:100000000C94A30A0C94C10A0C94C10A0C94C10A62
:100010000C94C10A0C94C10A0C94C10A0C94C10A34
:100020000C94C10A0C94C10A0C94C10A0C94C10A24
:100030000C94C10A0C94C10A0C94C10A0C94C10A14
:100040000C94C10A0C94C10A0C94C10A0C94C10A04
:100050000C94C10A0C94C10A0C94C10A0C94C10AF4
:100060000C94C10A0C94C10A526473004367730074
:10007000567468002D6368006465702E00656E68B4
:100080002E00565F475400D2E8F0E8F1F2EEF0009F
:10009000C4EE20F1E2E8E4E0EDE8FF21004F4B0080
:1000A000F1EBE0E1E0FF00F0E0E7F0FFE400C1E0A9
:1000B000F200CAEEEDF2F02EF1F3ECECE000645049
:1000C0003C281405006810A00F0A0FA60E420EACC3
:1000D0000DE40CEDE5F220E1E0F2E0F0E5E8005699
:1000E0006261743D00D2E5F1F22E2E2E00C1E0F2E5
:1000F000E0F0E5FF3F00C4E8EEE4002D06072D0028
:100100004963656F005662650068464500504E5071
:10011000004E504E00565F4753286F6666290049CF
:1001200064737300464554004D4F53004947425491
:10013000003220F0E5E7E8F1F2EEF0E000D0E5E78C
:10014000E8F1F2EEF000CAE0F2F3F8EAE00049F379
:10015000F23D004553523D00CAEEEDE4E5EDF1E01D
:10016000F2EEF000000010000000100E0000100180
:100170000000900000009000000090000018900027
:1001800000189000001808010018040E0018020062
:10019000001801000098000000580000003800001E
:1001A000FE1F000000380000005800001E980400E8
:1001B0002218070022180700229807001E18880F2F
:1001C0002218900022189000220090001E00900734
:1001D0000000900000009000000090000000900FD0
:1001E00000000000000010000000900F00009000D0
:1001F00000009000000090000000900700189000A0
:1002000000189000001889000018870F00180700D8
:1002100000180F000098000000580000003800008F
:10022000FE1F000000380000005800001E9800006B
:100230002218010022180200221804001E18080EBD
:100240002218100122189000220090001E00900039
:100250000000900000009000000010010000100E4F
:100260000000000000001000000090030000900457
:1002700000009008000090080000900800309008EE
:100280000030900800F69F0400368003003600001E
:100290001C0600002206000002360200023603009F
:1002A00002F61F003A361300223612002206100012
:1002B0001C0610000036100000361000FEF71F0765
:1002C00000309008003090000000900000001007FF
:1002D000000010080000100800009008000010073F
:1002E000000000000000100000001007000090084F
:1002F000000090000000900000001007003010087F
:1003000000301008FEF79F08003610070036100076
:100310001C061000220610000236110002361300DF
:1003200002F61F003A3603002236010022060000C2
:100330001C060000003600000036000000F69F0397
:1003400000309004003090080000900800009008F1
:100350000000900800009008000090040000900346
:100360000000000000001000000090030000900456
:1003700000009008000090080000900800309008ED
:100380000030900800F69F0400368003003600001D
:100390001C3600002236000002360200023603003E
:1003A00002F61F003A3613002236120022361000E1
:1003B0001C3610000036100000361000FEF71F0734
:1003C00000309008003090000000900000001007FE
:1003D000000010080000100800009008000010073E
:1003E000000000000000100000001007000090084E
:1003F000000090000000900000001007003010087E
:1004000000301008FEF79F08003610070036100075
:100410001C3610002236100002361100023613007E
:1004200002F61F003A360300223601002236000091
:100430001C360000003600000036000000F69F0366
:1004400000309004003090080000900800009008F0
:100450000000900800009008000090040000900345
:100460000000000000001000000090030000900455
:1004700000009008000090080000900800309008EC
:10048000003090080030900400F09F031C30000002
:100490002230000002300000023000000230000074
:1004A0003A30000022300000223000001C300000F2
:1004B0000031000000330000FEFF1F000033100772
:1004C00000319008003090000000900000001007FC
:1004D000000010080000100800009008000010073D
:1004E000000000000000100000001007000090084D
:1004F000000090000000900000001007003010087D
:100500000032100800339008FEFF1F070033000080
:10051000003200001C3000002230000002300000D9
:1005200002300000023000003A30000022300000AB
:10053000223000001C30000000F01F00003090034B
:1005400000309004003090080000900800009008EF
:100550000000900800009008000090040000900344
:1005600000000000000010000000100E000010014C
:10057000000090000000900000009000003090000B
:1005800000309000003610010036080E00360400DE
:10059000003602000036010000B6000000760000C0
:1005A000FE3700000076000000B600001C3609008F
:1005B00022360E0002360E0002360F000236900F71
:1005C0003A30900022309000220090001C009007EA
:1005D0000000900000009000000090000000900FCC
:1005E00000000000000010000000900F00009000CC
:1005F0000000900000009000000090070030900084
:10060000003090000036920000368E0F00360E004B
:1006100000361E000036010000B600000076000023
:10062000FE3700000076000000B600001C36010016
:100630002236020002360400023608000236100E8E
:100640003A30100122309000220090001C009000EF
:100650000000900000009000000010010000100E4B
:100660000000000000007100000089000000890007
:10067000000089000000F9000000890000008900E6
:1006800000008900000001000000010000FFFF01E0
:1006900000FEFF0000FC7F0000F83F0000F01F009C
:1006A00000E00F001CC007002280030002000100D0
:1006B00002FFFF013AFFFF012280010022400100FA
:1006C0001C20E1000010110000080900FE070900CD
:1006D0000000090000000900000011000000E10016
:1006E0000000000000000100000049000000490077
:1006F00000004900000049000000490000004900D6
:100700000000010000000100C0FFFF07C0FFFF075D
:100710000008FE03001CFE03001CFC01003EFC015F
:10072000003EF800007FF800007F70008CFF700032
:1007300092FF2000C2FFFF07DAFFFF071208010047
:100740000C0401000002110000011100FE00110064
:100750000000110000001100000011000000010065
:10076000000000004E45430053616D73756E6700D5
:10077000CAEEECE0EDE4E000C0E4F0E5F100C8CA48
:100780002DE4E5EAEEE4E5F000E4EEEBE3EE203DF7
:1007900020E2FBE1EEF000CDE0E7E0E400C2FBEA9E
:1007A000EBFEF7E8F2FC00CEEFF2EEEFE0F0E00057
:1007B000C8E7ECE5F0E5EDE8E52045535200D1F25D
:1007C000E0E1E8EBE8F2F0EEED00CAE0EBE8E1F0A2
:1007D000EEE2EAE00041436F6D700056636300563D
:1007E0007265660043300052692B0052692D00315A
:1007F0003220313320323300523000D1F2E0E1E8D0
:10080000EBE8F2F0EEED0070696E313D2B202070C8
:10081000696E333D2D00EAEEEDE4E5EDF1E0F2EE38
:10082000F02100E820F0E0E7F0FFE4E8F2E500C2A4
:10083000FBEAEBFEF7E8F2E520EFEBE0F2F300C8AD
:10084000E7ECE5F0E5EDE8E52045535200CDE0EFBB
:10085000F0FFE6E5EDE8E52100D2E5F1F2E8F0EEA3
:10086000E2E0EDE8E52E2E2E00327820EAF0E0F20C
:10087000EAEE3DEDE0E7E0E400317820EAF0E0F276
:10088000EAEE3DF1F2E0F0F200EDE520EDE0E9E422
:10089000E5ED2100D1E8ECE8F1F2EEF0005666005B
:1008A000745F6F666600745F6F6E00496600435444
:1008B0005200424A54004FEFF2F0EEED00E0E2F257
:1008C000EEF0204D2E2052657363686B65006D2D30
:1008D0006669726D7761726520312E35370076302A
:1008E0002E3200436F6D70756B697400CEF8E8E1CD
:1008F000EAE02100C2F0E5ECFF20E8F1F2E5EAEBE6
:10090000EE210000000001020303010203010203C3
:1009100002EFE5F0E5ECFBF7EAF300D3E1E5F0E800
:10092000F2E500312C203220E8203300D1EEE5E45E
:10093000E8EDE8F2E520E2FBE2EEE4FB0001041062
:100940000208200102040001028111530F940D26B8
:100950000CF40AF00911095008A6070F07890610C0
:1009600006A3053F05E40491044304FC03B9037A9C
:10097000033F030703D1029E026D023E020F02E114
:1009800001B20182014E010F01EE59CB52AD4C6014
:1009900047BC42A43E003BBF37D0342932C02F8C25
:1009A0002D872BAC29F5275E26E52485233D220AD9
:1009B00021EA1FDC1EDD1DED1C0A1C331B681AA773
:1009C00019F01841189B17FD166516D5154A15C65E
:1009D000144714CD135813E7127B121312AE114EA5
:1009E00011F0100000BA03870358032E030703E435
:1009F00002C302A402880266706E056D006B4D058D
:100A00000A0605060A050A0609060A050A0609066F
:100A10000A050A0609060A050A0605060A050A065F
:100A2000050A0600000000000000000000000000B1
:100A3000000000000042464E5EFFFF5E4E46420050
:100A400000000000004262727AFFFF7A7262420088
:100A5000000000000066666666E7E7666666660098
:100A600000000000001C3E63636363361477770068
:100A7000000000000006666666666666667E5703CE
:100A80000100000000FEFE060607070606FEFE0047
:100A900000000000007F7F6060E0E060607F7F001A
:100AA00000000000706C6666666666666666FFC378
:100AB0008100000066666666666666666666FEC0FB
:100AC000400000000F0606063E66666666663F004A
:100AD000000000007E636363636366786C66630096
:100AE00000000000000000786C6666666666FFC362
:100AF00081000000000000333333333333337F6031
:100B0000200000000000000606063E6666663E0005
:100B1000000000001824241800000000000000005D
:100B200000000000000000000000000000000000C5
:100B3000000000000C1E1E1E1E1E0C0C0C000C0CD7
:100B40000000000066664422000000000000000073
:100B500000000000000036367F3636367F3636001D
:100B600000000018183E6343033E606061633E1856
:100B7000180000000006496630180C0633493000A2
:100B800000000000001C36361C0E5B7333337E0001
:100B9000000000181810080000000000000000000D
:100BA000000000000030180C0C0C0C0C0C0C183061
:100BB00000000000000C1830303030303030180C9D
:100BC00000000000000000361C7F1C360000000002
:100BD0000000000000000018187E18180000000037
:100BE000000000000000000000000000001C1C18B5
:100BF0000C00000000000000007F7F0000000000EB
:100C0000000000000000000000000000000C0C00CC
:100C1000000000000000406030180C0603010000D6
:100C2000000000001C3663636363636363361C006B
:100C300000000000181C1E1E1818181818183C0078
:100C4000000000003E63636030180C0603637F0001
:100C5000000000003E636060603C606060633E00D6
:100C6000000000002030383C36337F3030307800D0
:100C7000000000007F0303033F60606061633E008B
:100C8000000000001C3603031F33636363361C003F
:100C9000000000007F63606030180C0C0C0C0C002E
:100CA000000000003E636363633E636363633E0072
:100CB000000000001C36636363667C6060361C00C5
:100CC000000000000000001C1C0000001C1C0000B4
:100CD000000000000000001C1C0000001C1C180C80
:100CE00004000000406030180C060C183060400012
:100CF000000000000000007E7E00007E7E000000FC
:100D00000000000002060C18306030180C060200CB
:100D1000000000001C366363301C0C0C00000C0C3F
:100D200000000000003E63637B6B6B3B03037E00AF
:100D300000000000081C366363637F636363630025
:100D4000000000003F666666663E666666663F00B7
:100D5000000000003C6643030303030343663C00BA
:100D6000000000001F3666666666666666361F000F
:100D7000000000007F664606161E160646667F00C7
:100D8000000000007F464606161E160606060F00E7
:100D9000000000003C66430303037B6363665C0062
:100DA0000000000063636363637F636363636300E6
:100DB000000000003C1818181818181818183C00E3
:100DC00000000000783030303030303333331E00D4
:100DD00000000000676666761E0E1E766666670077
:100DE000000000000F0606060606060646667F009F
:100DF00000000000636377777F6B6B63636363005E
:100E000000000000636367676F6B7B73736363004D
:100E1000000000001C3663636363636363361C0079
:100E2000000000003F666666663E060606060F0086
:100E3000000000003E636363636363636B6B3E307B
:100E4000700000003F6666663E1E366666666F008E
:100E5000000000003E636303060C306063633E00E5
:100E600000000000FFDB99181818181818183C002B
:100E700000000000636363636363636363633E0056
:100E8000000000006363636363636363361C0800F0
:100E90000000000063636B6B6B6B6B6B7F3636001F
:100EA00000000000636336361C1C3E36636363003B
:100EB0000000000066666666663C181818183C005C
:100EC000000000007F606030180C060303437F00C1
:100ED000000000003C0C0C0C0C0C0C0C0C0C3C002E
:100EE00000000000000103070E1C38706040000085
:100EF000000000003C3030303030303030303C00CA
:100F0000000000081C366300000000000000000024
:100F10000000000000000000000000000000007F52
:100F20007F00000C0C180000000000000000000012
:100F3000000000000000001E33303E3333336E00EB
:100F4000000000000706061E3666666666361E004E
:100F5000000000000000003C6603030303663C0041
:100F6000000000003830303C3633333333336E000A
:100F7000000000000000001C36637F0303663C0095
:100F800000000000386C6C0C1E0C0C0C0C0C1E00CD
:100F9000000000000000006E33333333333E303343
:100FA0001E0000000F0606366E66666666666F00F7
:100FB000000000001818001C1818181818183C0019
:100FC0000000000000303000383030303030333333
:100FD0001E00000007060666361E0E1E36666700F7
:100FE00000000000383030303030303030307800A1
:100FF00000000000000000356B6B6B6B6B6B6300D7
:10100000000000000000001B36666666666666002B
:10101000000000000000001C3663636363361C00A0
:10102000000000000000003B6666666666663E06DD
:101030000F0000000000006E3333333333333E3093
:10104000780000000000003B6666060606060F00FA
:10105000000000000000003E63060C1830633E00F4
:1010600000000000080C0C3F0C0C0C0C0C6C380041
:1010700000000000000000333333333333336E009D
:10108000000000000000006666666666663C1800A8
:101090000000000000000063636B6B6B6B7F360029
:1010A000000000000000006363361C1C3663630010
:1010B000000000000000006363636363637E60639D
:1010C0003E0000000000007F6330180C06637F00C4
:1010D0000000000030181818180C060C1818181802
:1010E00030000000181818181818181818181818B0
:1010F000180000000C18181818306030181818184C
:101100000C0000000000000000FFFF0000000000D5
:101110000000000000000010181C3E1C1810000009
:10112000000000007F6646061E26666666663F0073
:10113000000000007F6646060606060606060F004B
:1011400000000066007F6646161E160646667F0093
:10115000000000006B6B6B6B3E3E6B6B6B6B6B0050
:10116000000000003E636060203C606060633E0001
:1011700000000000636373737B6B6F6767636300DA
:101180000000001C6B6373737B6B6F6767636300A6
:1011900000000000786C66636363636363636300ED
:1011A000000000007F6363636363636363636300E2
:1011B000000000006363636363637E6060633E00FE
:1011C000000000001C083E6B6B6B6B6B3E081C0044
:1011D000000000006363636363637E6060606000BF
:1011E000000000006B6B6B6B6B6B6B6B6B6B7F0052
:1011F000000000000F0D0D0C3C6C6C6C6C6C3E0024
:1012000000000000636363636F5B5B5B5B5B6F00AD
:10121000000000001E336060647C646060331E0068
:1012200000000000336B6B6B6B6F6B6B6B6B330091
:10123000000000007E636363636366786C6663002E
:1012400000000000403C06063E66666666663C009E
:10125000000000000000003F66663E6666663F00D4
:10126000000000000000007E4C0C0C0C0C0C1E005A
:10127000000000003636003E63637F0303633E00D8
:10128000000000000000006B6B6B3E2A6B6B6B0074
:10129000000000000000003E6330183060633E0034
:1012A000000000000000006363737B6F67636300EE
:1012B00000000000001C086363737B6F67636300BA
:1012C0000000000000000067361E0E1E3666670034
:1012D00000000000000000786C66666666666300C9
:1012E0000000000000000063777F6B6B63636300A6
:1012F000000000000000006363637F6363636300BA
:10130000000000000000007F6363636363636300A9
:10131000000000000000007E5A5A181818183C00FF
:1013200000000000000000636363637E6060600093
:10133000000000000000006B6B6B6B6B6B6B7F0041
:10134000000000000000000F0D0D3C6C6C6C3C00B8
:10135000000000000000006363636F5B5B5B6F0075
:10136000000000000000000606063E6666663E00BD
:10137000000000000000001C3660786060361C0031
:1013800000000000000000336B6B6F6B6B6B330071
:10139000000000000000007E6363637E6C666300F3
:1013A00000000000786C6666666666666666FFC367
:1013B00081000000333333333333333333337F60CF
:1013C00020000000636B6B6B6B6B6B6B6B6BFFE0F8
:1013D00060000000000000786C6666666666FFC309
:1013E0008100000000001C083E6B6B6B6B6B3E08BD
:1013F0001C000000000033333333333333337F605A
:10140000200000000000006B6B6B6B6B6B6BFFC010
:10141000400000FF01020304050607FFFFFFFFFF76
:10142000FFFFFFFFFFFFFFFFFFFFFFFFFFFFFFFFCC
:10143000FFFFFF101112131415161718191A1B1C91
:101440001D1E1F202122232425262728292A2B2C54
:101450002D2E2F303132333435363738393A3B3C44
:101460003D3E3F404142434445464748494A4B4C34
:101470004D4E4F505152535455565758595A5B5C24
:101480005D5E5F606162636465666768696A6B6C14
:101490006D6EFFFFFFFFFFFFFFFFFFFFFFFFFFFF7F
:1014A000FFFFFFFFFFFFFFFFFFFFFFFFFFFFFFFF4C
:1014B000FFFFFFFFFFFFFFFFFFFFFF72FFFFFFFFC9
:1014C000FFFFFF0FFFFFFFFF05FFFF85FFFFFFFF90
:1014D000FFFFFF317032710835737475763B773DCD
:1014E000383F78403344797A48097B7C9A7D7E0A7C
:1014F0007F8081518283840C55868788898A8B8C72
:101500008D5F8E60538F699C680D90919E92930EB3
:10151000959697EDE5E8F1EFF0E0E2EDE0FF20E4ED
:10152000E5F2E0EBFC00CDE5E8E7E2E5F1F2EDE025
:10153000FF20E8EBE80007010701070206020207A7
:1015400007010704070011241FBECFEFD8E0DEBF5C
:10155000CDBF14BE0FB6F894A89580916000886145
:1015600080936000109260000FBE21E0A0E0B1E027
:1015700001C01D92A13EB207E1F70E9485270C949D
:101580000B3A0C9400008093CD016093CE01615022
:10159000603190F441E050E0062E02C0440F551F28
:1015A0000A94E2F72091CA013091CB01242B352B0C
:1015B0003093CB012093CA01815028E0829FC00163
:1015C000112401969093E0018093DF0180E1689FF0
:1015D000B00111246E5F7F4F7093DC016093DB01DB
:1015E000089598E087FF07C05C9A5A9A5A98880F26
:1015F0009150C1F708955C98F8CFCF93C82F599AAE
:10160000892FEFDF8C2FEDDFCF9108955998E9CF27
:101610008AE2FCDF8091DF019091E001EEDF8091B2
:10162000DD019091DE01E9DF8BE2F0DF8091DB01EB
:101630009091DC01E2DF8091D9019091DA01DDCF58
:10164000B0E0A0E0E6E2FBE00C94DE397C01E0DFF4
:101650000091DD011091DE010F5F1F4F8091DF01CE
:101660009091E001081B190BC091D901D091DA01CA
:1016700021968091DB019091DC01C81BD90B8CE293
:10168000C5DF209779F4CDB7DEB7E8E00C94FA39DE
:10169000C701B3DF81E0C81AD108C114D104C1F772
:1016A0002197EFCF6801F9CFB0E0A0E0EAE5FBE0D9
:1016B0000C94D7396C01062FC8E0D0E0F12CE12C56
:1016C0008FEFA62EB12C9DE0792E760E872C912CD3
:1016D0002CE0622E660E55245394560E96010E2C65
:1016E00002C0369527950A94E2F7122F11708F3FAA
:1016F000B9F01817A9F0CE0101979093E0018093FB
:10170000DF01D093DE01C093DD01B092DC01A09235
:10171000DB019092DA018092D90180EE97E090DFB0
:10172000852D202F111102C0872D262DD093E00189
:10173000C093DF01AE01485F5F4F5093DE014093DD
:10174000DD0130E03093DC012093DB0190E09093E9
:10175000DA018093D90180EE97E072DF8FEFE81A0B
:10176000F80A2996812F90E1E916F10409F0B6CF25
:10177000CDB7DEB7EFE00C94F339CF93DF93D82FDA
:10178000C62F90E09093E0018093DF01862F90E0D8
:101790009093DE018093DD018DE490E09093DC0175
:1017A0008093DB018BE590E09093DA018093D9017F
:1017B00080EE97E045DFDE5F8D2F90E09093E001B3
:1017C0008093DF01C250D0E0D093DE01C093DD01F1
:1017D0008FE490E09093DC018093DB0189E590E059
:1017E0009093DA018093D90190E080E029DFDF91C6
:1017F000CF910895B0E0A0E0E0E0FCE00C94DA398D
:10180000C82FD62F80E098EFCC2331F080EE9FEFE9
:10181000C13011F48FE190E02D2F30E03093E001E2
:101820002093DF0127E12D0F30E03093DE0120937C
:10183000DD0128E430E03093DC012093DB012FE56B
:1018400030E03093DA012093D901FADE99E0F92EE5
:10185000FD0ECF5FC23009F447C0C33009F047C066
:10186000C6E3D5E10FE410E0FE01A4904801FFEFCC
:101870008F1A9F0AEF2C82E0C82ED12CB12CC50103
:101880000C2C02C0959587950A94E2F780FF18C04A
:101890008E2D90E09093E0018093DF0181E08E0D2A
:1018A00090E09093DE018093DD011093DC010093C2
:1018B000DB019092DA018092D90190E080E0C0DEF5
:1018C00081E0C81AD108E394E394EFEFCE16DE0668
:1018D000B1F621960E5F1F4F0935110529F6CDB7D8
:1018E000DEB7ECE00C94F639C0E4D5E1BBCFCBE336
:1018F000D5E1B8CFCF93C62F60E17CDF68E78C2FAE
:1019000079DF88E290E09093E0018093DF0184E446
:1019100090E09093DE018093DD0183E590E0909369
:10192000DC018093DB0185E590E09093DA01809300
:10193000D9018FED94E684DE8BE590E09093E00191
:101940008093DF0187E790E09093DE018093DD01D3
:101950008FED94E675DECF910895B0E0A0E0E3EB63
:10196000FCE00C94DC39C6E1D0E0D093E001C093F8
:10197000DF018BE890E09093DE018093DD0188E445
:1019800090E09093DC018093DB0186E790E09093F8
:10199000DA018093D9018FEF97E052DE88E090E082
:1019A0009093E0018093DF010EE010E01093DE01E0
:1019B0000093DD018EE490E09093DC018093DB01E5
:1019C0008CE690E09093DA018093D9018FEF97E055
:1019D00037DE1093E0010093DF01D093DE01C09366
:1019E000DD0182E590E09093DC018093DB0188E5E6
:1019F00090E09093DA018093D9018FEF97E020DE99
:101A0000CDE1D0E08EE4A82EB12C98E5C92ED12CE2
:101A100026E6E22EF12C00E710E0D093E001C0931F
:101A2000DF01CE0108969093DE018093DD01B09234
:101A3000DC01A092DB01D092DA01C092D90190E0E2
:101A400080E0FEDDF092DC01E092DB011093DA0130
:101A50000093D90190E080E0F3DD2F96C638D105E0
:101A6000E1F68BE190E09093E0018093DF01D09369
:101A7000DE01C093DD018CE590E09093DC01809362
:101A8000DB0182E690E09093DA018093D90190E047
:101A900080E0D6DDCDB7DEB7EAE00C94F839A3E0FC
:101AA000B0E0E5E5FDE00C94D439462E79835A0187
:101AB000E82FF0E0ED5EFB4EE491EF3F09F444C007
:101AC00030E1E39FC00111249B838A83C22ED12C75
:101AD00080E1282E512C460181E0881A91083401BA
:101AE0006A0C7B1CE42CF980312C31100AC0EA818D
:101AF000FB81ED5DF54F54908A819B8101969B831C
:101B00008A8350FE15C0F092E001E092DF01C4012B
:101B10008E0D9F1D9093DE018093DD01B092DC015C
:101B2000A092DB017092DA016092D901C80188DDD0
:101B300056943394EC0CFD1C98E03912D6CF2A94BD
:101B4000AC0CBD1C2110CBCF2396E2E10C94F039F4
:101B5000AF92BF92CF92DF92FF920F931F93CF93DA
:101B6000DF93F62E5901EC01C42ED12CFE01849195
:101B7000219681110AC0DF91CF911F910F91FF90A3
:101B8000DF90CF90BF90AF9008956F2D70E08501EA
:101B900021E0A60184DF88E0F80EE8CFB0E0A0E005
:101BA000E4EDFDE00C94DE397C01C4E7D0E0C62E04
:101BB000D12C8F2D82958F708A30A8F4805D00EE35
:101BC0001FEF21E0A601BE016ADF84E0EE0CFF1CDE
:101BD0008A95E1F72896C439D10559F7CDB7DEB714
:101BE000E8E00C94FA39895CEACFA3E0B0E0EBEFCF
:101BF000FDE00C94DA397B016901582FFC012E2F8E
:101C0000251B349131963111FACFE114F10431F0F2
:101C10002F5FF7013491319631111EC0222309F450
:101C200042C060EA70E0E8E02E9F6019710911245B
:101C30007B836A8377FF04C06F5F7F4F7B836A83F8
:101C40002A813B81359527953B832A8332E039836E
:101C5000842E912C5C010EC02F5FDCCF860121E029
:101C6000A4016A817B811BDF6A817B81685F7F4F72
:101C70007B836A83F5018491FFEFAF1ABF0A81115C
:101C8000EDCFE114F10479F02A813B81285F3F4FC9
:101C90003B832A83C7013981313029F061E06983B0
:101CA000F12CE12CD7CF2396ECE00C94F639CF92AF
:101CB000DF92FF920F931F93CF93DF93F42E4FE1A8
:101CC000480F440F440F440F2FE0260F2295207F2A
:101CD00080E098EFFF2029F081E0F81659F180EEBE
:101CE0009FEFC42FD0E0D093E001C093DF01495FA4
:101CF00050E05093DE014093DD01C22ED12CD092F2
:101D0000DC01C092DB01215F30E03093DA012093E7
:101D1000D90196DC10E000E021E0A601BE0181E3DC
:101D20008F0DBDDEDF91CF911F910F91FF90DF905E
:101D3000CF9008958FE190E0D4CFB0E0A0E0E3EA47
:101D4000FEE00C94DC39E82F6091CE0110E000E059
:101D5000613011F400EE1FEF8091CD01853108F064
:101D600040C0F0E0ED5EFB4EC491CF3F09F439C0B6
:101D700090E1C99FE0011124CD5DD54F04DC809135
:101D8000DF019091E00107969093DE018093DD01E1
:101D90008091DB019091DC010F969093DA018093A2
:101DA000D90136DCC090D201D090D3018CE22EDC78
:101DB0005E01E0E1AE0EB11CFE01E49088E0F82E79
:101DC000C601E0FEC80119DCE694FA94F110F8CFE0
:101DD0002196CA15DB0581F78091CD018F5F809335
:101DE000CD01CDB7DEB7EAE00C94F8390F931F931D
:101DF000CF93DF938A01C7DBE801FE01849121962E
:101E0000811105C0DF91CF911F910F91089595DF4A
:101E1000F4CF0F931F93CF93DF93CCECD1E00E81DF
:101E20001F818FEF9FEF9F838E8346E255E162E033
:101E300083E0DCDF43E155E163E081E0D7DF80EE62
:101E400097E09F838E8364E088E09DDB8FE375DFFE
:101E500084DD1F830E83DF91CF911F910F91089531
:101E60000F931F93CF93DF93D82FA89581E0D111C3
:101E700004C0D091CE018091CD01D131E0F49FEF2B
:101E80009D0F21E030E002C0220F331F9A95E2F748
:101E90004091CA015091CB01BA0162237323672B91
:101EA00031F1813041F4209530952423352330934E
:101EB000CB012093CA016D2F66DB80EA90E09093FE
:101EC000DE018093DD018091DB019091DC019C01BA
:101ED000215F3F4F2238310578F43093DA012093A7
:101EE000D901C0E195DB8CE291DBC1110EC0DF911D
:101EF000CF911F910F910895C2E8C81B81E890E02F
:101F00009093DA018093D901EDCF0091DF01109118
:101F1000E001013A110510F0C150E7CF80EE9FEFCC
:101F2000D13011F090E080E068DB0F5F1F4FF1CF00
:101F3000CF93DF93C1E08C2F93DFCF5FCA30D9F707
:101F4000C091D201D091D3011092D3011092D2014D
:101F500061E087E018DB8DE4F0DE8DE2EEDE84E503
:101F6000ECDE85E6EADE83E7E8DE84E7E6DE85E6AA
:101F7000E4DE82E7E2DED093D301C093D20162E0D7
:101F800081E001DBDF91CF91089590919B01EDE21B
:101F9000F1E0911104C0F0E0E0E0CF01089520816C
:101FA000281303C021812617C1F391503696F1CF33
:101FB00016BC81E085BDA99BFECF15BC82E085BB28
:101FC000089580E2BACECF93DF93EC01FE018491B5
:101FD000811103C0DF91CF910895AFDE2196F6CF36
:101FE000CF93DF93613009F43CC0623009F042C006
:101FF000E9E8F9E0CCE2D0E029E130E04CE251E060
:102000008417950708F43FC0841B950BB9010E9403
:102010005039422F481B6C171D0611F008F0BE0105
:102020007727660F771F6E0F7F1FFB0185919491B5
:10203000FB013296C591D4918C1B9D0B489FB0013A
:10204000499F700D1124C90196958795860F971F9A
:10205000B9010E945039CE01860F971FDF91CF91B1
:102060000895E5EEF9E0C7E0D0E022E330E048EE85
:1020700053E0C6CFE9E4F9E0CEE1D0E029E130E079
:1020800048EC50E0BDCF90E080E0C0CFA8EBB1E0DD
:102090008C9311966C93119712964C93129790E033
:1020A000FC01E35CF64FE4911696EC93169770E012
:1020B000FB01E35CF64FE4911796EC93179750E021
:1020C000FA01E35CF64FE4911896EC931897FC0143
:1020D000E05CF64FE4911996EC931997FB01E05CF4
:1020E000F64FE4911A96EC931A97FA01E05CF64FDA
:1020F000E4911B96EC931B97FC01ED5BF64FE4918A
:102100001C96EC931C97FB01ED5BF64FE4911D963A
:10211000EC931D97FA01ED5BF64FE4911E96EC935C
:102120001E978A5B964FFC0184911F968C931F9794
:102130006A5B764FFB01649150966C9350974A5BB3
:10214000564FFA01449151964C930895E8EBF1E013
:102150004581648183819ACF43E0481B461B96CF1B
:10216000E1EAF1E080E09191890F91E0EB3AF90723
:10217000D1F7811101C081E00895E1EAF1E088EC36
:1021800090E0918380838CED90E09383828384E15F
:1021900090E0958384838BE2868317821086118674
:1021A0000895B0E0A0E0E7EDF0E10C94D5394B01E3
:1021B0005C01342E280139011E2DAC019B01D1E0B8
:1021C0009AE0C92ED12CE12CF12C2A3031054105A1
:1021D000510510F5A3019201C1E08AE0C82ED12C6F
:1021E000E12CF12C2A30310541055105E8F4811428
:1021F0009104A104B10491F14114510461047104EA
:1022000041F1432D4D0FE12EEC0EE416F4F1ED2FCC
:102210004E15D9F08FEF2AC0CA01B901A701960166
:102220000E947739DF5FD1CFCA01B901A7019601BA
:102230000E947739CF5FD6CFAAE0B0E0A301920128
:102240000E94CA392B013C01CF5FCD17ACF3EC17CC
:1022500094F0481459046A047B04B8F081E08414B3
:102260009504A604B70408F080E08195CDB7DEB7E9
:10227000E1E10C94F139AAE0B0E0A50194010E94DB
:10228000CA394B015C01EF5FE2CF81E0EFCF99DE0D
:102290008091970182FF03C08DE790E094CE88E79C
:1022A00090E0FCCF8EDE8091970180FF05C08EE428
:1022B00044DD84E790E087CE80E5FACF90917B0102
:1022C000981303C080917E01089590917C01891339
:1022D00003C080917F010895809180010895EEDF11
:1022E0002CCD1F93CF93DF9390919F01E92FEE0F99
:1022F000E90FE60FFF27FF1FE150F64FE491EE23B1
:1023000009F1C091D701C150D091D801E4FF04C0B8
:102310009091D6019695D90FE1FF04C09091D50117
:102320009F5FC90FE2FF04C09091D6019150D90F71
:10233000182F6D2F8C2F27D9812FC0DF883731F4CC
:10234000812FCDDFDF91CF911F910895412F6D2F08
:102350008C2FADDCF7CFCF93DF93C0E0D091CD01D0
:102360004C2F6091CE018D2FA2DCDF5FD093CD0189
:102370008DE3E3DC8C2FA2DFE0DCC23009F021DE4C
:10238000CF5FC33059F7DF91CF910895019708F4DB
:102390000895EFE9FFE03197F1F700C00000F6CFB4
:1023A000A895EFE9FFE03197F1F700C00000019731
:1023B000B9F708958F929F92AF92BF92DF92EF92FA
:1023C000FF920F931F93CF93DF93B2DD50E9E52E79
:1023D00050E0F52EF70180E094913196911129C0DB
:1023E000811129C080E197E2DBDFF8940FB6F89401
:1023F000A8958091600088618093600010926000D1
:102400000FBE5E9883B7817F846083BF83B781608E
:1024100083BF889583B78E7F83BFDF91CF911F9154
:102420000F91FF90EF90DF90BF90AF909F908F90B3
:1024300008958F5FD1CF98E0899FF001112480EA41
:1024400090E0BF010E946439D62E84E08617A0F187
:102450006623A9F18D2C912CE89DA001E99D500DDA
:10246000F89D500D112480EA90E0841B950B97FD98
:102470000196EC01D595C79599E0A92EB12CA81825
:10248000B90823E0AA0CBB1C2A95E1F733E0880CBD
:10249000991C3A95E1F7F7018491FFEFEF1AFF0AD3
:1024A000882309F49FCF0FEF1FEF2D2DA501BE014B
:1024B000F6DAC80DD91DEFCF44E0D42ECBCFDD2402
:1024C000D394C8CFB0E0A0E0E8E6F2E10C94DE39A6
:1024D000EC01162F15B818B88091C401062F0170B1
:1024E00060FFADC09091BF0194B987B987E0809338
:1024F0007A0080E480937B008091C801806C809397
:102500007C0084E480BF0E946F27A8951092800011
:1025100010928100109285001092840087E286BBA1
:102520009091C401612F647012FF8EC098B980E150
:1025300000008150E9F780918100816080938100E3
:1025400090E080E021E046B345FD85C040FFFBCF31
:1025500026BB019680349105B1F710E010928100FE
:1025600020E226BBC0908600D09087005091BF012A
:102570007091BE01572B54B917B8E0918400F091C7
:102580008500CE16DF0628F440FF03C041E046BBBD
:10259000019647E940937A0040917B004F7B40933E
:1025A0007B00112309F442C0F12CE12CB0E0A0E043
:1025B000AC0133272227C22AD32AE42AF52A84E051
:1025C000662331F08FE3C80ED11CE11CF11C83E0BF
:1025D000002309F442C08D5F90E0B0E0A0E020E06D
:1025E00030E0A9018C159D05AE05BF0530F4A701AB
:1025F0009601281B390B4A0B5B0BA1E7B2E00E9446
:10260000CA396B5F7F4F8F4F9F4F2AE030E040E029
:1026100050E00E947739288339834A835B83002303
:10262000F1F0223E344041055105F0F080EC8093FA
:10263000B001812FCDB7DEB7E8E00C94FA3914B8B9
:102640009091C501892B51CF809181008160809349
:10265000810098B975CF13E081CF8F5FBDCF25364C
:1026600031054105510510F712E0E0CFCF93DF931C
:102670008F70C82FC064C0937C00DC2FD07C809109
:10268000B0018D1721F00E947427D093B001809182
:102690007A00806480937A0080917A0086FDFCCF76
:1026A00020E030E0A90180E0E091AE018E17E8F073
:1026B000A091B101B091B201D03C21F0A091B30141
:1026C000B091B4010E94CA392CE096958795779510
:1026D00067952A95D1F72E2F30E050E040E00E9418
:1026E0007739C901DF91CF91089590917A00906474
:1026F00090937A0090917A0096FDFCCF60917800DB
:1027000070917900260F371F411D511D843061F4EF
:10271000211590E1390740F4D03C31F09091AF01A0
:10272000913011F4C06CA7CF8F5FBECFA6E0B0E0B0
:10273000ECE9F3E10C94DB3917B818B815B88FE35E
:1027400084B980E093DF9A83898381E08FDF9C8363
:102750008B8382E08BDF9E838D83912C42E0E42E7D
:1027600058E2F52EDD24D394AA24A394B12CE3944B
:1027700023E0E21201C0E12C0E2D10E0892D90E043
:102780000E2C02C0959587950A94E2F780FDEFCF55
:10279000F801EA5BF64FC4908C2D68DFF801EE0F6C
:1027A000FF1F41E050E04C0F5D1FE40FF51F20813B
:1027B00031818217930780F4918380834F2D4D19C7
:1027C000550B443151052CF45AEE5F1510F024E1FD
:1027D000F20EDD24D39409C08A30910528F438E242
:1027E000F31202C020E5F22ED3948330910508F055
:1027F00035C0C501002E01C0880F0A94EAF7982A57
:1028000057E0951629F1FD1408F033C081E080935C
:10281000960180939701E0929C01F801ED5BF64FE1
:10282000E49187B1E095E823E7B9F801E05CF64F61
:102830008491F801E35CF64FE49104B1E82BE09554
:10284000E023E4B98C2D12DF90939E0180939D01CB
:1028500014B817B82696EBE00C94F73980399140FC
:1028600078F6F801ED5BF64F8491E7B1E82BE7B914
:10287000C7CFA89582E390E093DD79CFCF93C82F9F
:10288000C09595B160FF11C0982B95B994B1892B73
:1028900084B963FF0CC00E946F2784B18C2384B974
:1028A00085B18C2385B9CF9108959C23EECF0E94EA
:1028B0006A27F3CFB0E0A0E0E0E6F4E10C94D7396A
:1028C000C42FD0E02EE0429FF0011124EF5AFE4FBA
:1028D0001082118294EF92831782108611861286DD
:1028E00013821482158216821486138690919601A3
:1028F000913009F49DC1B62EF82E9A3069F490906B
:102900009A0128E1C22E21E0D22EA12CA91408F4AC
:1029100056C024E6A2128CC16B2D8F2D36DB00979A
:1029200039F0FC01828193818C3D954008F480C18F
:102930006B2D8F2D11DCA2E0EA2EF12CB1E17B2E64
:1029400083E0682EF3DE80919601813009F483C024
:1029500018B88091C50187B98091BF0185B984B944
:102960008091C70183DE6C018091C8017FDEC81AA7
:10297000D90A15B814B8912C812C2FEF821A920A1B
:10298000672D8091BE017ADF8091C7016FDEC81686
:10299000D9060CF0B7C28C010C191D098EE78816F8
:1029A000910499F50C3291E01907D4F581E00B34CC
:1029B00011050CF480E0A8958111DFCF32C0F6013B
:1029C00080818F1114C081818B1116C0F601638143
:1029D000748185819681E12C0AE010E020E030E0EE
:1029E0004281DFDB8F3F41F493E6A92E05C08B11B6
:1029F00003C081818F1551F3A394F7E0CF0ED11C52
:102A000085CFEE24E394F12C9DCF80E00C32E1E001
:102A10001E070CF481E0F4EF8F16F1E09F0659F6E3
:102A2000A8950C3221E0120714F46624639481E027
:102A30008816910499F4053195E019077CF0E9E0D6
:102A40007E2EE1E0EE16F104E1F670DE8091960153
:102A5000813009F0F2C080919601D4C0F3E06F1686
:102A600009F4A3C0E2E06E12C9C0EFCF21E0E21A80
:102A7000F108FCDD9C012C193D09C816D90614F09B
:102A800030E020E0A8958091C701E114F10471F7CE
:102A9000D12CC12C2017310740F46801C21AD30A87
:102AA00095E6C916D10408F084C0E0DD5C01E72D8D
:102AB000E0715E2E09F47FC00E945F278091C701FC
:102AC000D5DD8A159B0518F47501E81AF90AF3E0BB
:102AD0006F12C8CF62E0C8018C0D9D1D81DA9C0188
:102AE000D4010E94B5394B015C01552009F4F5C1B0
:102AF000AAE0B0E0AC019B010E94CA394B015C0125
:102B000028E3821629E8920621E4A206B10408F41B
:102B1000DCC1C501B40128EE33E040E050E00E9482
:102B2000773949015A01A8EEB3E00E94CA391AEF79
:102B3000552009F4E2C122E434E040E050E00E9474
:102B400077398EE08C9FF0018D9FF00D1124EF5AA4
:102B5000FE4F8091B90180838091B80181831283F7
:102B600087829086A186B2862383348345835683E9
:102B70007AE0872E912CA12CB12C213085E33807E7
:102B80008CE048075105D0F4D7010E94CA3928EEDD
:102B900033E040E050E00E94773973FC1F5F6AE049
:102BA000C62ED12CE12CF12C18C0740130E020E0AD
:102BB0006ACF612C7ACF0E94642780CFCA01B90105
:102BC000A50194010E9477391F5FD7CFCA01B901CF
:102BD000A70196010E9477391F5F2115310591E009
:102BE0004907510598F78EE08C9FF0018D9FF00DFD
:102BF0001124EF5AFE4F3487238715878091960161
:102C0000843188F49EE09C9FF0019D9FF00D11247B
:102C1000EF5AFE4F92818A3009F04AC19A3F1CF068
:102C20008BE08093960182DD17B818B814B815B8F8
:102C3000CDB7DEB7EFE00C94F33915B897E097B94C
:102C400018B88091C10184B980E480937B0084E44A
:102C500080BF8091C701806480937C0090937A004C
:102C60000E947327109280001092810010928500BC
:102C70001092840087E286BB8091C10185B9809162
:102C800096018F3109F003C18091C401809587704E
:102C900091E09093810087B9F12CE12C86B385FDFA
:102CA0000CC080FFFBCF96BBA895FFEFEF1AFF0A81
:102CB00020E8E2162CE0F20689F71092810090E2FB
:102CC00096BBC0908600D090870014B820918400F5
:102CD00030918500C216D30638F480FF05C081E02C
:102CE00086BB8FEFE81AF80A87E980937A00809113
:102CF0007B008F7B80937B008091C701B7DC4C0108
:102D000015B88091C10184B990E8E9169CE0F906F4
:102D100008F074CFC601B0E0A0E06701F12CE12C0F
:102D20007601DD24CC24C82AD92AEA2AFB2AE3E04A
:102D3000CE16D104E104F10408F4ACC0F2E0CF1ADD
:102D4000D108E108F10828E3C21629E8D20621E4F7
:102D5000E206F10408F49EC0C701B60128EE33E094
:102D600040E050E00E94773969017A0117EF209125
:102D7000A9018091B1019091B20161E0820F911D92
:102D800027FD9A952DD9DC01A70196010E94CA3929
:102D900020E436E040E050E00E94773969017A0192
:102DA000143F99F48091A70190E0B0E0A0E0C12C1D
:102DB000D12C7601281739074A075B0730F06901E3
:102DC0007A01C81AD90AEA0AFB0A8EE08C9FF00140
:102DD0008D9FF00D1124EF5AFE4F8091B901808331
:102DE0008091B8018183128327833087418752877E
:102DF000C382D482E582F682143F09F04DC080EA96
:102E0000C81686E8D80681E0E806F10408F4F6CE94
:102E10008091C7012BDC853D9340D0F714B8109208
:102E2000AF018091C70122DC5C0181E08093AF019A
:102E30008091C7011BDCAC018091C10184B9D5012F
:102E4000A41BB50BA090B101B090B201CD010496C6
:102E5000099788F095010E94C4399A0150E040E03A
:102E60000E9499398091A801280F2093A801AC0CE9
:102E7000B11CC7FCBA9484010A191B09C801C19688
:102E80008336910508F0BACE0093A901B7CE8091A0
:102E9000C501FECE14EF6BCF173F09F0AFCE91E224
:102EA000C9169EE4D906E104F10408F4B1CFA6CE18
:102EB000953F0CF0B5CE83819481A581B6810597AD
:102EC000A105B10508F0ACCEAECEA8EEB3E0AC01E2
:102ED0009B010E94CA3917EF2ECEF8E38F16F9E84E
:102EE0009F06F1E4AF06B10408F013CEA8EEB3E0FC
:102EF000A50194010E94CA3917EF20E134E040E0B7
:102F000050E01DCE10E000E02EE78216910409F09B
:102F100081CD4CCDA4E0B0E0E0E9F7E10C94D439E8
:102F2000009751F42FEF3FEF3C832B838B819C81E3
:102F30002496E2E10C94F0399C838B83FC0163813D
:102F4000748185819681A7EFEA2E0AE010E020E0E7
:102F500030E0428126D987FDE5CFE8DB80919601FC
:102F6000813001F3EB81FC811181008117B818B821
:102F700014B815B8612F802FEFD88091C40187B99C
:102F80008091C80173DB7C018091C50187B9809174
:102F9000C7016CDBE816F90618F4602F812FDCD826
:102FA0008091C40187B98091BF0184B912E38091F7
:102FB000C8015CDB9C018039914040F497B180915D
:102FC000C501982B97B92832310530F0115021F006
:102FD00084E690E0E5D9EBCF17B814B8EB81FC811B
:102FE00061818081B9D80091C7018091C801006CCE
:102FF000806C8A8315BC82E084BD85E687BD18B8E5
:1030000000937C000E946A27FFEFF983C12CD12C2A
:103010007601C394412C512C32014394F2E3AF2E3C
:10302000B12C90E080E017EDA895C29758F48091FC
:10303000C50187B98091BE0185B984B90E947D27F9
:1030400014B815B822E3A216B10458F48091C40153
:1030500087B98091BF0185B984B90E947D2714B8D2
:1030600015B88091C40187B98091BE0185B984B932
:1030700000937C0010937A0080917A0086FDFCCF4B
:1030800010937A0080917A0086FDFCCF2090780022
:103090003090790036942794369427943A8130936F
:1030A0007C0010937A0080917A0086FDFCCF10930B
:1030B0007A000E9479270E94D80F8091BF0185B9BC
:1030C00084B90E947D2714B880917A0086FDFCCFD8
:1030D000A0907800B0907900B694A794B694A79485
:1030E0008091C50187B98091BF0185B984B96A8192
:1030F00060937C0010937A0080917A0086FDFCCF6B
:1031000010937A0080917A0086FDFCCF8090780041
:1031100090907900969487949694879400937C007D
:1031200010937A0080917A0086FDFCCF10937A008C
:103130000E9479270E94D80F8091BE0185B984B979
:103140000E947D2714B880917A0086FDFCCF809183
:103150007800909179009695879596958795A4012A
:1031600070E060E0420D531D611D711D440E551E3F
:10317000661E771EAC0170E060E04A0D5B1D611DAC
:10318000711DC40ED51EE61EF71E7981715079831C
:1031900071114ACF17B815B84C145D046E047F0442
:1031A00008F046C08091A1019091A2012AE0289FD9
:1031B000D001299FB00D1124A701960124193509CA
:1031C000460957090E94CA39A30192010E94773922
:1031D0008091A5019091A6018217930750F4F901FF
:1031E000E81BF90BFC83EB8380EC8093B0019EDA43
:1031F0009DCEEB81FC8163817481858196812AEF6C
:10320000E22E08EE13E020E030E042810E94D1106F
:1032100021E030E03C832B83181614F41C821B82BF
:103220006B817C817195619571097C836B83DCCFA7
:103230008FEF9FEF9C838B83D7CFB0E0A0E0E3E2DA
:10324000F9E10C94D639182F71DA8091960181300A
:1032500009F4A5C018B88091C50187B98091BE0155
:1032600085B984B90E946A27C2E0D0E0C12CD12C74
:1032700076018091C701A895806C80937C000E94A4
:10328000742780917A00806480937A0080917A001C
:1032900086FDFCCF04E6812C912C540180917A00AC
:1032A000806480937A0080917A0086FDFCCF8091C3
:1032B000780090917900880E991EA11CB11C0E9483
:1032C0007127015059F7A091B101B091B201A50148
:1032D00094010E94CA394B015C018CE0B694A7941A
:1032E000979487948A95D1F7219779F415B88091AE
:1032F000C5019091C401892B87B98C149D04AE043B
:10330000BF0450F090E080E042C0C1E0D0E0750121
:1033100064018091C801AFCF2091B3013091B40115
:10332000A4E6B0E00E94B5399B01AC012C193D091F
:103330004E095F090E94CA392B013C01A701960181
:10334000281939094A095B09A8EEB3E00E94CA3975
:103350006B017C012091A3013091A4012057354ECF
:1033600050E040E0C301B2010E947739C701B601C5
:103370000E947739C901113051F46091A501709113
:10338000A6016217730708F0BDCF861B970B20ECD0
:103390002093B001CDB7DEB7E0E10C94F23990E0B4
:1033A00080E0F8CFB0E0A0E0E8EDF9E10C94DA3984
:1033B0006B017C01C42F022F9AE0892E912CA12C45
:1033C000B12C80E1C81687E2D806E104F10408F0C8
:1033D00054C0C13F0CF45FC08FE08C0F23E0622F1C
:1033E0000E944339D92F992319F08F5F291BD22FBF
:1033F000883008F051C0E82FF0E0E950F64F149102
:103400004AE06CE071E0C6010E94D8382CE031E05F
:10341000F90101900020E9F79F012D503140B22EB3
:10342000C22FCD1B1C165CF080E30E949D0E8EE225
:103430000E949D0ECC2319F080E30E949D0ED111B5
:1034400001C0CFEFC1508CE0C82E81E0D82EF12C06
:10345000E12C0C2E000CDD0BEB1400F1112319F004
:10346000812F0E949D0E002319F0802F0E949D0E37
:10347000CDB7DEB7ECE00C94F639C701B6016B5F4F
:103480007F4F8F4F9F4FA50194010E9477396901AB
:103490007A01CF5F96CFD0E010E0B2CFF6018191F4
:1034A0006F010E949D0ECE15DF0519F48EE20E9479
:1034B0009D0EFFEFEF1AFF0ACFCFCF92DF92EF9270
:1034C000FF926B017C01F7FE0BC08DE20E949D0E06
:1034D000F094E094D094C094C11CD11CE11CF11C68
:1034E00026E54DEFC701B6015DDFFF90EF90DF905D
:1034F000CF900895CF92DF92EF92FF92CF936B011E
:103500007C01C42F88EEC81683E0D806E104F104DC
:10351000C8F0842F440F990B0F9663E070E00E946F
:103520006439892B79F4C701B6016B5F7F4F8F4FE8
:103530009F4F2AE030E040E050E00E947739690177
:103540007A01CF5F24E04C2FC701B6012BDFCF916A
:10355000FF90EF90DF90CF900895CF93DF9385E0B9
:1035600085D8EC019093B6018093B50184E68093F1
:10357000B701CE01845893408C3F984090F50E944B
:10358000980F8EEA90E00E94E30F0E94E10FCE01B7
:103590006AE070E00E94503990E080E026E54EEF4E
:1035A00001DF0E94E10F8091B5019091B601803852
:1035B0002CE09207C8F480E098EF9093D3018093B9
:1035C000D20187EA90E00E94E30F8FEF9FEF909384
:1035D000D3018093D20188EB9BE00E94D0110E941E
:1035E000DA11DF91CF9108958C3A9D4048F480EE36
:1035F0009FEF9093D3018093D20180EA90E0E3CFD4
:1036000080EE97E09093D3018093D2018DE990E012
:10361000DACFB0E0A0E0EFE0FBE10C94DA396C0126
:10362000162F8091AD0198E6E92EFF24F39485FDD5
:1036300002C0F12CE12C12FF05C08091AC0180FD8D
:103640004DC01C7F812F8370B82E39F068E084E173
:103650000E94C30A8EE30E949D0ED0E0C1E000E00C
:1036600084E1A82E812F8270982E812F8071882E60
:103670001870C114D10439F086E0C816D10488F15D
:1036800085E0C81AD1084F9938C08EE190E00E94B9
:10369000D011D0E0C11127C0C0E001E0112309F42E
:1036A00064C082E390E00E94D011C4E101E04F9930
:1036B0000CC08EE190E00E94D0114F9906C088ECBA
:1036C00090E00E94D011C1E003E0C1508AE090E098
:1036D0000E94D011C111EBCFD0E047C0D12CC12C3A
:1036E000B1CFC0E0D0CF4F99D7CFDF5FDB31D9F179
:1036F0008AE090E00E94D011CDCF85E090E00E945A
:10370000D011DF5F8D2F6A2D0E943739911107C0CC
:103710008091B7018230E0F081508093B701D436B8
:1037200021F5992051F068E084E1C130A9F40E94AC
:10373000C30A80E20E949D0EC2E0E114F10461F22E
:1037400081E0E816F10469F181E0E81AF108C4CFDC
:10375000882029F302DFE3CF0E94C30A8EE30E9490
:103760009D0EC1E0EACFC0E002E08091AD0180FF94
:103770001CC08091AD018E7F8093AD01BB2039F0DC
:1037800068E084E10E94C30A80E20E949D0E073631
:1037900011F40E94DA11802FCDB7DEB7ECE00C9463
:1037A000F639D0E0C0E007E6E0CFC11162CFE6CF46
:1037B000CF936091CE018091D00186131CC0C0913F
:1037C000CC01C0FF04C065E188EB9BE022DFC1FFB4
:1037D0000EC0C091D001C23028F462E081E00E94A6
:1037E000C30A07C08C2F0E94300FC150F4CF0E9433
:1037F000980FCF9108956F5FF1CFCF93DF93EC01D6
:10380000D7DFCE010E94E30F0E94E10FDF91CF913D
:103810000895809196018232D1F487E890E00E9469
:10382000E30FC6DF0E94AB1180918201909183016A
:10383000892B61F082E890E0E0DF60918201709175
:10384000830190E080E026E54DEFACCD089584E95A
:1038500098E0E5CFFF920F931F93CF93DF93F09003
:103860009701D0917C01C0917D01F0FE03C08D2FA6
:10387000DC2FC82F6C2F8D2F0E94C50F8C01892B38
:1038800059F00E94E10F8D2F0E946F1181E00E947C
:103890009D0E8C2F0E946F11F2FE33C08091840127
:1038A00090918501892B61F080E790E0A6DF60911F
:1038B000840170918501072E000C880B990BFDDDAA
:1038C0008CE690E09ADF6091910170919201809175
:1038D00093019091940126E44091950163DD8091DC
:1038E000820190918301892B61F088E690E085DF69
:1038F000609182017091830190E080E024E04EEFBE
:1039000051DD01151105A1F053DF81E00E949D0EEC
:103910000E94E10F8DE998E00E94E30F0E94E10F01
:10392000F8016281738190E080E026E54DEF3ADD99
:10393000CDB7DEB7E5E00C94FD39EF920F931F93FE
:10394000CF93DF93EC0160918C0170918D01809198
:103950008E0190918F0127EFE22E0AE010E020E027
:1039600030E0409190010E94D11087FD0EC0CE0141
:1039700044DF60918C0170918D0180918E01909156
:103980008F0121E4409190010DDDDF91CF911F91D6
:103990000F91EF900895CF93C82F0E946B278C2F23
:1039A0000E943613CF910895B0E0A0E0EAEDFCE16B
:1039B0000C94D839C82F7B018091B8018093BB014A
:1039C0008091B9018093BC018091BA018093BD01BF
:1039D0008091C301C13009F07AC19091BE01892B59
:1039E00084B985B90E9466270091B3011091B40192
:1039F0008091C7010E943613081B190BC090B301B8
:103A0000D090B4018091C9010E943613F601E81BE1
:103A1000F90BC090A301D090A401D1E088E49DE00F
:103A20002DEF39E02E173F0708F0C3C180919601B2
:103A30008E3109F063C180919701982F9C23846097
:103A4000992359F0C13059F490917C018091B801CB
:103A5000981305C0C093960182E0809397018091EE
:103A60009801816080939801E016F10610F40E1918
:103A70001F09D80120EF3BE247E050E00E94CA391D
:103A80009F0150E040E00E947739AAE0B0E00E9438
:103A9000CA3920E7C21A25EED20A960150E040E06A
:103AA0000E94773969017A019091C001C13009F013
:103AB0002BC18091C40187B988B98091BF01892B3E
:103AC00084B995B98091C80166DF8C01A090B301DB
:103AD000B090B4018091C9010E9436139501281B52
:103AE000390B2115310511F421E030E0C801821BAA
:103AF000930BB9010E9450394B01B12CA12C2031FC
:103B0000310508F03FC08091C301C13009F014C1F4
:103B10009091BF01982B94B985B98091C8013BDF82
:103B20003C010091B3011091B4018091C9010E9440
:103B30003613F801E81BF90B0091A1011091A201C5
:103B4000309711F4E1E0F0E0D30120EF3BE247E0F1
:103B500050E00E94CA399F0150E040E00E9477394E
:103B6000AAE0B0E00E94CA390057154E980150E013
:103B700040E00E94773982169306A406B50610F439
:103B800049015A01D2E0C814D904EA04FB0418F030
:103B900046015701D1E0C0908801D0908901E090A2
:103BA0008A01F0908B018091BA0140E06091B801E8
:103BB000C13019F4682F8091B9010E945A140E94F3
:103BC000A6108091970182FFCEC000915401109100
:103BD00055012091560130915701609191017091EA
:103BE00092018091930190919401E0905301409152
:103BF00095010E94D110813009F4BBC08C2F8460E4
:103C00008093970115B88091BF0184B98091C40158
:103C100087B988B98091C801BEDE8430910508F467
:103C2000ADC0C090A101D090A201F12CE12C30E9EF
:103C3000C30E3AE1D31EE11CF11C20EA36E841E054
:103C400050E019EF17B818B814B815B8DC010E9485
:103C5000CA39A70196010E94773920938C013093CD
:103C60008D0140938E0150938F01109390018092AB
:103C7000880190928901A0928A01B0928B01D09321
:103C800081018091540190915501A0915601B0910C
:103C900057018093910190939201A0939301B09367
:103CA000940180915301809395018091BA01809392
:103CB0007B018091B8019091B901C13009F071C0C8
:103CC00080937C0190937D0110929F0152C090914E
:103CD000BF01892B84B98091C8015DDE8C01809180
:103CE000C9010E943613FC01C090A101D090A2012D
:103CF00080ED97E021ED33E0D2E094CE8EE1809329
:103D00009601C0939701B0CE18B88091C50187B9CC
:103D10008091BE0185B9892B84B90091B3011091BE
:103D2000B4018091C70137DE081B190B8091C901CE
:103D30000E9436139C01D5CE9091BE01892B84B987
:103D40006090B3017090B4018091C70124DE681ABD
:103D5000790A8091C9010E943613FC010091A301E8
:103D60001091A401EDCEC814D904EA04FB0408F4B0
:103D700049CFCDB7DEB7EEE00C94F4398091C201A3
:103D800084B98091C80107DE60EFC62E6BE2D62EA3
:103D900067E0E62EF12C20E432E44FE050E017EF2C
:103DA00051CF90937C0180937D0181E080939F01AE
:103DB000E0CF21E6E216F104E0F680179107C8F69D
:103DC0008091C7010E9436137C018091C8010E9436
:103DD0003613E81AF90A3AEFE316F10408F0D0C0F6
:103DE0002FE1209396012D2F246120939701D1304C
:103DF00009F0BBC0A091A301B091A401A057B54E9A
:103E000022E020939F014AE04E9D90014F9D300D8E
:103E100011240E94B539980150E040E00E947739A2
:103E20008091A5019091A6018217930708F0A5C083
:103E3000281B390B30938301209382018D2F8170D1
:103E4000982E0091BE01C091C40150E1852ED0FD95
:103E500006C00091BF01C091C50141E1842EC77029
:103E60008091C901806480937C000E9474271AE0CD
:103E7000C12CD12C7601AA24AA9433E0B32EA895A4
:103E8000682D8091C0010E943E148091C301802B57
:103E900084B9992009F482C086B18C23E9F704B96A
:103EA00080917A00806480937A0080917A0086FD08
:103EB000FCCF8091780090917900969587959695A2
:103EC0008795992009F46EC0C80ED91EE11CF11C1B
:103ED0001150A9F6C701B6012AE030E040E050E0F9
:103EE0000E949939A091B301B091B4010E94CA39DE
:103EF00020E034E040E050E00E94993930938501A1
:103F00002093840180E48093B001809198018160C6
:103F1000809398018091BA0180937B012091B9012F
:103F20009091B801D13009F045C090937C01209365
:103F30007D0140E060917D010E945A1480915401FE
:103F400090915501A0915601B09157018093910134
:103F500090939201A0939301B093940180915301A7
:103F6000809395010E94A61004CFA091A101B09169
:103F7000A201A057B54E23E044CF30E020E05ACF55
:103F800080E2809396018D2F84608093970188E072
:103F9000D13009F089E080939F0150CF86B18C2306
:103FA000E9F37DCF9501281B390BC21AD30AE1082A
:103FB000F1088ECF20937C0190937D01BACFB0E0C1
:103FC000A0E0E5EEFFE10C94DA39A8950E94961383
:103FD00080919601813009F490C018B88091C50194
:103FE00087B98091C7010E9436134C018091C101AD
:103FF00084B985B961E18091C0010E943E1480912D
:10400000C701C9DC5C018091BE0184B985B961E159
:104010008091C0010E943E148091C701BCDC8C01DC
:104020008091C8010E9436136C010E949613809102
:104030009601813009F461C018B88091C50187B933
:104040008091C7010E9436137C0117B88091C4018A
:1040500088B987B915B88091C20184B960E18091AF
:10406000C0010E943E148091C70195DCEC01809153
:10407000C8010E943613C817D90708F443C0C81BEB
:10408000D90B0C191D098091BF0184B960E18091A1
:10409000C0010E943E148091C7017DDC6C018091BB
:1040A000C8010E943613C81AD90A17B8C016D1061B
:1040B00060F5C8018C199D097401E501893E9340A2
:1040C000E0F4C630D105C8F0CE018E199F09EC1678
:1040D000FD0618F0C7018C1B9D0B23E0E216F104CE
:1040E00018F08436910548F0C832D10598F0C8011F
:1040F0008759910989389141A8F1CDB7DEB7ECE035
:104100000C94F639D0E0C0E0BCCFC601801B910B07
:104110008601D4CF15B88091BF0184B98091C401C4
:1041200088B987B98091C80136DC7C018091BE01D5
:1041300084B98091C50188B987B98091C7012BDC0A
:104140009C01C70164E170E00E945039C701861BE1
:10415000970B8217930758F6E60EF71E2E153F05AC
:1041600030F6CBCF80919601882311F08A3019F474
:1041700084E18093960180919B0196E0899FF001F4
:104180001124E35DFE4F9091B80190839091B901A5
:10419000918313830283D583C4838F5F80939B01B4
:1041A000ACCF0E94AC1015B88091BF0184B980914A
:1041B000C40187B988B98091C801EDDB813D934086
:1041C00008F0FDCE0895A8E0B0E0E9EEF0E20C942E
:1041D000D439A89518B88091C50187B98091BE01DE
:1041E00084B985B98091C801D6DB4C018091C701A3
:1041F0000E9436139B838A8315B88091C10184B9CC
:104200008091C701C8DB459740F58091C10185B910
:104210008091C701C0DB6C018091C40187B988B966
:1042200015B88091BF0184B98091C701B4DB2C011E
:104230008091C8010E9436135C018091C20184B94B
:104240008091C801A8DB3C012A813B8120333141A8
:1042500040F452E6C516D10448F02896E2E10C94E9
:10426000F0396CE6C61663E1D606B8F789EAA816F7
:10427000B10408F071C096E26916710470F3D601BA
:1042800020EF3BE247E050E00E94CA39A091B30121
:10429000B091B401BB83AA839D012C193D0950E064
:1042A00040E00E94773949015A01AA81BB81A619D1
:1042B000B70920EF3BE247E050E00E94CA39930182
:1042C00050E040E00E947739BEEDCB16B3E0DB064C
:1042D00038F5F2E0880C991CAA1CBB1CFA95D1F7A2
:1042E000CA01B901680D791D8A1D9B1D25E030E0CA
:1042F00040E050E00E947739225A3E4F4F4F5F4FC7
:10430000AAE0B0E00E94CA394B015C01B4E68B160A
:104310009104A104B10408F4ADC02FEF2F83D4C0E1
:10432000EEED6E16E3E07E0670F4E2E0220F331F3E
:10433000441F551FEA95D1F7C501B401620F731FE1
:10434000841F951FD3CF280D391D4A1D5B1D56951F
:10435000479537952795D0CF2A813B812815390578
:1043600008F47FC04A145B0408F47BC04091B30199
:104370005091B4014217530721F4215031093B8376
:104380002A832091A3013091A4012057354EAA81A0
:10439000BB81A819B9090E94B539AA81BB814A1B02
:1043A0005B0B9A0150E040E00E94773969017A0185
:1043B0002091A1013091A2012057354ED201AA19B6
:1043C000BB090E94B539950150E040E00E94773961
:1043D000EA81FB81EE3DF340B0F462E0CC0CDD1CE1
:1043E000EE1CFF1C6A95D1F7CA01B9016C0D7D1D49
:1043F0008E1D9F1D25E030E040E050E00E9477399F
:1044000049015A0183CF8EEDA81683E0B806F0F477
:10441000283F94E2390791E04907510550F4CA0159
:10442000B90142E0660F771F881F991F4A95D1F79F
:10443000DDCFA9E0B0E00E94CA396C0D7D1D8E1D54
:104440009F1D2AE030E040E050E0D8CFC20ED31EDE
:10445000E41EF51E46015701B694A79497948794DD
:1044600055CFAFE8AA16A2E1BA0608F058C0812CD1
:10447000912C540181E00E941D196C01F12CE12C5A
:10448000A5019401220F331F441F551FE5E08E162E
:104490009104A104B10420F4280D391D4A1D5B1DAF
:1044A000AAE0B0E00E94CA39611571058105910545
:1044B00021F464E670E080E090E0C616D706E806D6
:1044C000F90698F1FFEFFF8340919A0148875091D8
:1044D000B80159833090B901609196016E8320E054
:1044E000A8852A1738F1BE81B0939601243609F4C5
:1044F000B4CEA33008F0B1CE27E0A29FF001112482
:10450000E85EFE4F30823981318383829482A582B6
:10451000B6824F814283AF5FA0939A019ECE2AE07C
:10452000822E912CA12CB12CA5CF460157013EEF34
:104530003F83CACFC22ED12CA7E0AC9DC001AD9D58
:10454000900D1124FC01E85EFE4F3F018081F9814E
:104550008F138FC0D30111968C9183118AC0E12CE7
:1045600002E010E020E030E04F81C501B4010E947C
:10457000D1108F3F09F072C0F301F2802380448094
:104580005580768002E010E020E030E04F2D622D73
:10459000742D852D972D0E94D110682EFFEF8F135B
:1045A00020C02F812F1102C066246394EF809501F3
:1045B00084014F2D622D742D852D972D0E94D110D1
:1045C000861509F445C037E03C9DF0013D9DF00D96
:1045D0001124E85EFE4F83829482A582B6824F81C9
:1045E000428324013501769467945794479457E0A9
:1045F0005C9DF0015D9DF00D1124E85EFE4FF280A0
:1046000083819481A581B6818A839B83AC83BD839A
:10461000EF809501840104191509260937094F2DEA
:10462000BC01CD010E94D11087FD10C0950184010D
:10463000040D151D261D371DEF804F2D6A817B81CE
:104640008C819D810E94D1101816ACF428EC48CFC3
:10465000FF82822C942CA52CB72CC3CFC501B401AA
:1046600024E130E040E050E00E94773929013A012E
:10467000BECF2F5F35CF9AE09E8324E631CFCF9314
:10468000DF930E94AC1017B88091BE0185B990915C
:10469000BF01892B84B98091C7017DD9EC0180913C
:1046A000C8010E943613AC012091B3013091B401CE
:1046B00036952795C9014E978C179D0760F4225EA9
:1046C0003F4FC217D30738F48417950720F481E0D1
:1046D0004217530708F080E014B8DF91CF91089596
:1046E000CF9361E080E0CBDFC82F62E080E0C7DFDE
:1046F000C80F62E081E0C3DF8C0FCF910895B0E076
:10470000A0E0E5E8F3E20C94D439382E212C88237C
:1047100011F053E0252EE4DF281609F482C0409002
:10472000D2015090D3010E94980F8FEF9FEF90938A
:10473000D3018093D201332009F479C04CE259E0CF
:1047400062E083E00E94F60E80EE9FEF9093D3012B
:104750008093D20143E259E063E084E00E94F60EC8
:104760000E94AD0C332009F451C08AE0E82E89E0A4
:10477000F82E03E019E0CDE1D0E09EE4692E712C23
:1047800028E5C22ED12C36E6A32EB12C40E7842E8C
:10479000912CF7018491813009F452C0823009F0E4
:1047A00052C08FE190E0D093E001C093DF019E0101
:1047B000285F3F4F3093DE012093DD017092DC01D2
:1047C0006092DB01D092DA01C092D9010E94200BE5
:1047D000F8018491882381F08130C1F18230C9F5DC
:1047E0008FE190E0B092DC01A092DB019092DA01BF
:1047F0008092D9010E94200BFFEFEF1AFF0A2F963B
:104800000F5F1F4FC638D10509F0C3CF5092D301B7
:104810004092D20165DF28121FC088EC90E00E9410
:10482000D01181E0CDB7DEB7E2E10C94F0394BE175
:1048300059E062E083E00E94F60E41E159E08CCF3E
:1048400080E098EFB0CF80EE9FEFADCF80E098EFA3
:10485000C9CF80EE9FEFC6CF60E184E690E00E9472
:10486000091B91E03912D6CF8823A1F280E0DACF7C
:10487000CF93C82F2ED38C2F0E943613CF9108953B
:104880008F929F92BF92CF92DF92EF92FF920F93FF
:104890001F93CF93DF9390919601913009F491C2C9
:1048A000A8950E94461015B88091BF0184B98091E7
:1048B000C40187B988B960E18091C0010E943E14AB
:1048C0008091C80168D88C018091BF019091C0018E
:1048D000892B84B98091C8015ED82091BF0124B989
:1048E0008017910720F48530910508F488C2013DB6
:1048F00023E01207F0F061E18091C0010E943E14B4
:104900008091C80148D88C019091C00195B98091DF
:10491000BF01892B84B98091C8013DD815B8209179
:10492000BF0124B98017910720F48530910508F460
:1049300066C20031110508F49EC180919801811171
:1049400095C128EEC22EDD24D3940B3E31E013072F
:1049500018F498E2C92ED12C8091BF019091C30127
:10496000892B84B98091C80183DFEC018091C30158
:1049700085B98091C8017CDF7C01EC1AFD0A9E019B
:104980002C0D3D1D2817390708F07AC08091C00111
:1049900084B985B918B88091C50187B98091C901DA
:1049A00067DF17B8C397BB24B3948938924018F0D7
:1049B000269708F0B12C8091C40187B98091C90174
:1049C00057DFEC018091C7010E94361317B88C178E
:1049D0009D0738F4C81BD90BC23CD14010F4BB244E
:1049E000B3948091C50188B987B98091BE01909137
:1049F000C301892B84B915B88091C70139DFEC0157
:104A00008091C30185B98091C70132DF8C1B9D0B5A
:104A1000EC0118B88091C50187B98091BE019091D1
:104A2000C301892B84B985B98091C90121DF8834FC
:104A30009F40F8F089E18093970184E080939F0183
:104A40008FE1809396018091980181608093980115
:104A50004091BA0140937B018091B9019091B801D6
:104A6000CE15DF0508F482C080937C0190937D0110
:104A700081C0B11005C089E28093970186E0DECF46
:104A800018B88091C50187B98091BE019091C3018A
:104A9000892B84B985B98091C701EADEEC01809148
:104AA000BE0185B98091C701E3DE4C01C601880DC6
:104AB000991D8C179D0708F0D9C0E090B301F090C4
:104AC000B4018091C00184B915B88091C40187B93F
:104AD00088B98091C901CCDE18B88D5C9041BB24A7
:104AE000B3948938924048F08CE0E81AF108BB246E
:104AF000B394CE15DF0508F4B12CC819D9098091FB
:104B0000C40187B98091BF019091C301892B84B9F9
:104B100085B98091C801ACDE7C018091BF0185B967
:104B20008091C801A5DEE81AF90AD694C794EC145E
:104B3000FD0428F09E2D8F2D7E01C92FD82F15B88A
:104B40008091C40188B987B98091C90191DE813D06
:104B5000934028F48AE18093970185E06FCFB110EC
:104B600085C08AE28093970187E068CF90937C01AB
:104B700080937D01C70162E370E00E945039C70154
:104B8000861B970BC817D90750F06E0D7F1D6C1749
:104B90007D0728F080919701806480939701609150
:104BA0007D0180917C010E9446108091C501909109
:104BB000C601892B87B99091BE0194B920919701C4
:104BC00020FF0BC118B895B9C091B301D091B401C1
:104BD0008091C7014DDE9E01281B390BC901409110
:104BE000A3015091A4014057554E9C01A0E1B7E2AA
:104BF0000E94B5399A0150E040E00E947739209335
:104C00008C0130938D0140938E0150938F018AEF78
:104C1000809390018091C2019091C301892B84B946
:104C20009091C40197B92091970120FFE0C015B879
:104C300098B950D18091C8010E943613EC0180913F
:104C4000C9010E9436138C1B9D0B909387018093A2
:104C500086012091970120FFCDC080549D4E813C5C
:104C6000924120F01092870110928601013D33E0BD
:104C7000130708F0FFC080919801811196C08091C0
:104C8000BF0184B915B88091C40187B988B923D10F
:104C90008091BF019091C001892B84B98091C80196
:104CA0000E94CB1C8F359D4020F0B80182E00E940D
:104CB000D41C80919801811178C08091C50187B979
:104CC00018B88091BE019091C001892B84B985B933
:104CD0008091C7010E94CB1C8034964008F065C0CB
:104CE0008091C9010E943613EC018091C8010E9495
:104CF00036137C0160E18091C0010E943E148091D6
:104D0000C7010E94CB1C6C0115B8E5D08091BE0193
:104D100085B98091C7010E94CB1C20E4C21626E011
:104D2000D20608F09DC08133914108F499C014B8AF
:104D300015B88091C50188B9CED08091BE0184B9E3
:104D40008091C7010E94CB1C853F910508F088C067
:104D500060E18091C0010E943E148091C7010E94D1
:104D6000CB1C6C018DEDC81682E0D80608F049C056
:104D700082E28093960180919801816080939801EE
:104D80008AE080939F018091BA0180937B0180919A
:104D9000B80180937C018091B90180937D01CE1987
:104DA000DF09D0938301C09382018091960188230B
:104DB00019F08A3009F060C006DA17B818B814B8CC
:104DC00015B8DF91CF911F910F91FF90EF90DF9079
:104DD000CF90BF909F908F90089588B915B880911B
:104DE000C70146DD4091A1015091A201FCCE85B9D9
:104DF00018B81FCF813C924108F034CF37CF8C01D7
:104E00003ACF8091BE0185B966D015B88091C701AF
:104E10000E94CB1C853F910518F580919601813247
:104E200029F48091980181608093980181E28093B8
:104E300096018BE080939F01809188019091890178
:104E40008C159D0508F0B9CFC601B0E0A0E08093B5
:104E5000880190938901A0938A01B0938B0193CF2D
:104E600080919601813209F4A8CFB80181E00E94B7
:104E7000D41C9BCFA4D899CF8F3109F09ECF9091AD
:104E8000970194FF9ACF80917C0160917D0190FD04
:104E900003C0962F682F892F0E94C50F892B09F414
:104EA0008CCF1092960110929701809198018E7F7D
:104EB0008093980182CF03D002D001D000D000D0DF
:104EC00003D002D001D000D0A89500D003D002D0EA
:104ED00001D000D000D003D002D001D000D000D04B
:104EE00003D002D001D000D000D003D002D001D036
:104EF00000D000D003D002D001D000D000D00000FC
:104F000000000000000000000895AFE4B0E0EBE80E
:104F1000F7E20C94D43980E48AB98BB980E886BF73
:104F20009CE496BF8093610091E090936100000043
:104F300000008093F20087E98093F2008FEF8EBB30
:104F40008EB381116DC08FEF8EBB8EB381116BC09C
:104F500080E88093F20087EB8093F2008FEF8EBBA6
:104F60008EB3811163C08FEF8EBB8EB3811161C090
:104F700080E8809361001092610084EF91E00E94CC
:104F8000C61180E185BF87E880937A0084B7887076
:104F900094B7977F94BF0FB6F894A895909160004E
:104FA000986190936000109260000FBE1092AC0167
:104FB00092E09093AD019AB194619AB99BB19B7EB6
:104FC0009BB99091AC0198609093AC019AB19360B9
:104FD0009AB99AB197619AB99BB1987E9BB9589842
:104FE000882351F10E94980F80E098EF9093D301AD
:104FF0008093D20184EF98E00E94E30F0E94D81BB7
:105000008CEE98E00E94E30F80ED97E00E94D011B3
:105010005E9890E080E0C15BDF4FE2E10C94F039F4
:105020008EB381508CCF8EB381508ECF8EB3815092
:1050300096CF8EB3815098CF10E04F9BC4C1809122
:10504000AC0180FF05C08091AD0180628093AD010D
:1050500080E590E00E94C611589A86E990E00E948F
:10506000C61181E00E94060B86E990E00E94C611FD
:1050700086E30E94060B599A80E60E94F10A8AE3B1
:105080000E94060B599A85E00E94F10A1092E001F5
:105090001092DF018FE990E09093DE018093DD01B3
:1050A0001092DC011092DB018FE790E09093DA011F
:1050B0008093D9010E94080B83E790E00E94C611FB
:1050C00081E10E94060B88E790E00E94C61184E10E
:1050D0008093CF0188E08093D00184E08093D50154
:1050E00082E08093D6018FEF9FEF9093CB01809366
:1050F000CA010E94980F89E20E94060B1092CC010F
:105100008FEF97E09093D3018093D2011A3609F084
:1051100066C10E94BD100E94980F2FEF3FEF48E23A
:105120006EED78E083EE98E00E94F50D2FEF37E00A
:105130004CE470E060E08EEC98E00E94F50D2FEFFB
:1051400037E04EE570E060E08DEB98E00E94F50DF1
:105150008FEF9FEF9093D3018093D20160E080E1C5
:1051600097E20E94091B89E18093AE0181E0809360
:10517000AF018093B00189E893E19093B4018093EB
:10518000B30188E19FE00FB6F894A8958093600082
:105190000FBE909360007894109296011092970140
:1051A000109298011092990110929B0110929A010D
:1051B0001092810110928301109282011092850158
:1051C000109284011092870110928601109288013A
:1051D0001092890110928A0110928B0110928C0119
:1051E00010928D0110928E0110928F011092090180
:1051F0001092080110920B0110920A0123E02093F3
:10520000D40117B882E08093CC010E94980F80915E
:10521000CD008093C8008091A801082E000C990B46
:105220009C5F9093B2018093B10189E18093AE01BC
:105230000E94AD1A0091B5011091B601C090D20143
:10524000D090D3018FEF9FEF9093D3018093D20141
:1052500045EE50E062E084E00E94F60E4FED50E033
:1052600063E082E00E94F60E63E087E00E94C30ADA
:10527000083E33E0130708F0D9C080EE9FEF90930B
:10528000D3018093D20143ED50E063E087E00E94B8
:10529000F60E0E94AD0CD092D301C092D20184EFE1
:1052A00091E00E94D0110E94961380919601813066
:1052B00009F468C042E061E080E0E2DA42E060E0E8
:1052C00081E0DEDA41E062E080E0DADA41E060E0ED
:1052D00082E0D6DA40E062E081E0D2DA40E061E0EC
:1052E00082E0CEDA809199018823E1F090919801D3
:1052F00090FD18C091FD04C0909196019E3190F4EC
:10530000809396018091050180937B018091060135
:1053100080937C018091070180937D018091A001A1
:1053200080939F0180919601803209F4F6C008F0C5
:10533000E4C095E423E432E48E3131F08F3109F496
:10534000E5C090E020E030E030937E0120937F01C3
:1053500090938001882311F08A30A1F40E94E10F1C
:1053600083E40E949D0E40E060E082E00E945A14B7
:1053700041E061E082E00E945A1442E060E081E096
:105380000E945A140E94980F33E03093CC01809110
:1053900096018E3109F4CEC308F090C18A3009F429
:1053A000F0C408F0C3C0813009F479C20E94090F2B
:1053B00095C21F5F153639F41AE68091AC01816001
:1053C0008093AC013CCE84E190E00E94D0114F9BD1
:1053D000F0CF103110F411E032CE12E0EECF0E9487
:1053E000B0108093AB014BE050E060E070E081EAE8
:1053F00091E00E9401390E94B0109091AB01992375
:1054000009F489CE891709F486CE0E94980F82EBA1
:1054100090E00E94E30F0E94D81B8CEE98E00E945F
:10542000E30F88E893E10E94D01173CE84E6B82E92
:10543000083680E1180708F032C0053E9CE01907E5
:1054400008F459C021E030E0F901EE0FFF1FEB53E3
:10545000FF4FE590F4900E151F0508F446C0D901E2
:105460001197FD01EE0FFF1FEB53FF4F4591549134
:10547000A254BF4FFD01A491F901E254FF4FB49033
:1054800098012E193F09AB19BB0B0E94C4394E1964
:105490005F099A0150E040E00E947739B20EC801DE
:1054A0006AE070E00E94503990E080E026E54EEF1F
:1054B0000E94D2190E94E10FF8E280EE97E0FB15FE
:1054C00038F024E180EE9FEF2B1510F080E098EF8C
:1054D0009093D3018093D2016B2D70E090E080E037
:1054E00025E240E00E94D219D4CE2F5F3F4F2730F3
:1054F000310509F0A9CFB12CD2CF813289F093E4E4
:1055000021E4843208F01DCF37E41ECF909197013B
:1055100096FF09C098E728E7F7CF95E423E4F4CF96
:1055200091E322E3F1CF93E524E4EECF8B3009F44D
:10553000D0C0843109F03ACF8090D2019090D3014D
:105540008FEF9FEF9093D3018093D20146EF50E00D
:1055500062E082E00E94F60E10919B01123048F04A
:105560000E94E10F88E70E949D0E80E3810F0E9458
:105570009D0E63E082E00E94C30A85E50E949D0EB5
:1055800086E60E949D0E8DE30E949D0E60912F0184
:105590007091300190E080E026E54DEF0E94D21935
:1055A00060912E0180912D010E947A0C86E490E09A
:1055B0009093E0018093DF0188E490E09093DE0116
:1055C0008093DD010CE410E01093DC010093DB011B
:1055D0007CE5E72EF12CF092DA01E092D90180EE21
:1055E00097E00E94200B89E490E09093E001809383
:1055F000DF011093DE010093DD018EE490E09093D3
:10560000DC018093DB01EAE5CE2ED12CD092DA01C9
:10561000C092D90180EE97E00E94200B8DE490E0CB
:105620009093E0018093DF0180E590E09093DE01AC
:105630008093DD019093DC018093DB01F8E5AF2ED0
:10564000B12CB092DA01A092D90180EE97E00E94CD
:10565000200B81E590E09093E0018093DF0184E5E9
:1056600090E09093DE018093DD0182E590E09093DD
:10567000DC018093DB0186E590E09093DA01809372
:10568000D90180EE97E00E94200BB092E001A09239
:10569000DF01D092DE01C092DD011093DC010093A6
:1056A000DB01F092DA01E092D90180EE97E00E94EE
:1056B000200B9092D3018092D20110C1803209F464
:1056C00051C308F410C3833208F070CE0E94091C45
:1056D00005C100915401109155012091560130915E
:1056E0005701609162017091630180916401909112
:1056F0006501E0905301409161010E94D11011E5D4
:10570000C12E11E0D12E813021F4BFE5CB2EB1E0C6
:10571000DB2ED60113960D911D912D913C9116977C
:10572000609170017091710180917201909173018B
:105730001296EC9040916F010E94D110813021F4BB
:10574000ADE6CA2EA1E0DA2EC6010E948A178C01AE
:10575000E090D201F090D3018FEF9FEF9093D301AF
:105760008093D20148E551E062E082E00E94F60EAB
:1057700063E082E00E94C30A83E40E949D0E8DE3F1
:105780000E949D0EF601638174818581968126E4D5
:1057900042810E94D2190F3F100769F043E551E0A2
:1057A00064E082E00E94F60EB80190E080E024E020
:1057B0004EEF0E94D219D6011B968D919C91892B98
:1057C00079F04EE451E067E082E00E94F60EF601C7
:1057D0006385748590E080E021E445850E94D219BC
:1057E000D60111966C9111978C910E947A0C85E4E8
:1057F00090E09093E0018093DF017AE4C72ED12CF2
:10580000D092DE01C092DD0183E590E09093DC014F
:105810008093DB0105E510E01093DA010093D901D4
:105820008FED94E60E94200B1093E0010093DF01BE
:105830008AE590E09093DE018093DD018FED94E6A0
:105840000E94200B8BE490E09093E0018093DF01B5
:105850008EE490E09093DE018093DD01D092DC0134
:10586000C092DB018EE590E09093DA018093D9013C
:1058700080EE97E00E94200B82E590E09093E0019B
:105880008093DF011093DE010093DD0180EE97E04D
:105890000E94200BF092D301E092D2011FC08091B0
:1058A0009701813009F0AFC08DEE90E00E94E30FC8
:1058B0000E94D81B80919C018F5C0E949D0E8AE300
:1058C0000E949D0E0E94E10F60919D0170919E01CA
:1058D00090E080E026E54DEF0E94D219809196017C
:1058E0008E3108F493C09091D401992309F48EC0AD
:1058F0002091D6013091D00181E0820F381708F451
:1059000085C08091CF01803120F0290F231708F442
:1059100036C53093CE010E94D81B83E092E080937D
:10592000D7019093D80160E080917B010E947111B2
:1059300061E080917C010E94711162E080917D01A3
:105940000E947111E090D201F090D30180EE9FEFA0
:105950009093D3018093D2016091D8018091D701B7
:105960000E94C30A00919F01B0E80B9F800111249F
:105970000C591E4F6091CE018091CD010E94C30A47
:105980008091DF019091E0014D969093DE0180932C
:10599000DD018091DB019091DC014F969093DA015B
:1059A0008093D9010E94080BA090D201B090D3013E
:1059B0008CE20E94060B4801E0E88E0E911C680103
:1059C000F4E0CF0ED11C5EE1652E762CF8E0F615E2
:1059D00010F468E0762E6718F80154907110D3C463
:1059E0000F5F1F4F0C151D0581F70815190539F7B5
:1059F0006091D8016F5F81E00E94C30AF092D301E9
:105A0000E092D20103C0823009F4D0CC1092CC01D4
:105A1000539810E000E0D12CC12CF12CE12C9AE03D
:105A2000A92EB12C29E9422E512C35E0832E912C40
:105A300042E0742E4B993EC5312C612C212C89B14A
:105A400083FB882780F92812A8C463944EDAA895AE
:105A500032E4331631F08FEE861588F793E0931514
:105A600048F7A4E9B0E0B093E001A093DF015092C1
:105A7000DE014092DD019092DC018092DB01B09268
:105A8000DA01A092D90180E098EF0E94200BB2E4E5
:105A90003B124DC08A818654893208F048C0898102
:105AA0008E3108F444C0A2E06A2E823810F06624D9
:105AB000639427961FAE279726961FAE26972596A6
:105AC0001FAE259724961FAE2497FE01319680E0E5
:105AD000238192819450913150F59CEF920F9D3229
