:100000000C94810C0C949F0C0C949F0C0C949F0CE2
:100010000C949F0C0C949F0C0C949F0C0C949F0CB4
:100020000C949F0C0C949F0C0C949F0C0C949F0CA4
:100030000C949F0C0C949F0C0C949F0C0C949F0C94
:100040000C949F0C0C949F0C0C949F0C0C949F0C84
:100050000C949F0C0C949F0C0C949F0C0C949F0C74
:100060000C949F0C0C949F0C5264730043677300B4
:10007000567468002D6368006465702E00656E68B4
:100080002E00565F475400534352004279652100C9
:100090006F6B007765616B006C6F77004261740075
:1000A000436865636B73756D0064503C28140500EC
:1000B0006810A00F0A0FA60E420EAC0DE40C6E6F76
:1000C000206261747465727900566261743D0054F7
:1000D000657374696E672E2E2E00426174746572AA
:1000E000793F0044696F6465002D06072D00496360
:1000F000656F005662650068464500504E50004EE0
:10010000504E00565F4753286F6666290049647356
:100110007300464554004D4F530049474254003246
:10012000207265736973746F7273005265736973BB
:10013000746F7200496E647563746F7200496C6508
:10014000616B3D004553523D0043617061636974CA
:100150006F7200000010000000100E00001001007F
:100160000090000000900000009000001890000037
:10017000189000001808010018040E001802000072
:10018000180100009800000058000000380000FE30
:100190001F000000380000005800001E98040022D4
:1001A00018070022180700229807001E18880F223F
:1001B00018900022189000220090001E0090070066
:1001C00000900000009000000090000000900F00E0
:1001D000000000000010000000900F0000900000E0
:1001E00000900000009000000090070018900000B0
:1001F000189000001889000018870F0018070000E9
:10020000180F00009800000058000000380000FEA1
:100210001F000000380000005800001E9800002257
:1002200018010022180200221804001E18080E22CD
:1002300018100122189000220090001E009000006B
:1002400000900000009000000010010000100E005F
:100250000000000000100000009003000090040067
:1002600000900800009008000090080030900800FE
:1002700030900800F69F0400368003003600001C12
:1002800006000022060000023602000236030002C9
:10029000F61F003A36130022361200220610001C08
:1002A0000610000036100000361000FEF71F070091
:1002B000309008003090000000900000001007000F
:1002C000001008000010080000900800001007004F
:1002D000000000000010000000100700009008005F
:1002E000009000000090000000100700301008008F
:1002F000301008FEF79F0800361007003610001C6B
:100300000610002206100002361100023613000209
:10031000F61F003A36030022360100220600001CB8
:10032000060000003600000036000000F69F0300C3
:100330003090040030900800009008000090080001
:100340000090080000900800009004000090030056
:100350000000000000100000009003000090040066
:1003600000900800009008000090080030900800FD
:1003700030900800F69F0400368003003600001C11
:100380003600002236000002360200023603000268
:10039000F61F003A36130022361200223610001CD7
:1003A0003610000036100000361000FEF71F070060
:1003B000309008003090000000900000001007000E
:1003C000001008000010080000900800001007004E
:1003D000000000000010000000100700009008005E
:1003E000009000000090000000100700301008008E
:1003F000301008FEF79F0800361007003610001C6A
:1004000036100022361000023611000236130002A8
:10041000F61F003A36030022360100223600001C87
:10042000360000003600000036000000F69F030092
:100430003090040030900800009008000090080000
:100440000090080000900800009004000090030055
:100450000000000000100000009003000090040065
:1004600000900800009008000090080030900800FC
:100470003090080030900400F09F031C30000022F0
:100480003000000230000002300000023000003A6C
:1004900030000022300000223000001C300000003C
:1004A00031000000330000FEFF1F00003310070082
:1004B000319008003090000000900000001007000C
:1004C000001008000010080000900800001007004D
:1004D000000000000010000000100700009008005D
:1004E000009000000090000000100700301008008D
:1004F00032100800339008FEFF1F07003300000091
:100500003200001C300000223000000230000002E7
:10051000300000023000003A30000022300000229B
:100520003000001C30000000F01F0000309003007D
:1005300030900400309008000090080000900800FF
:100540000090080000900800009004000090030054
:10055000000000000010000000100E00001001005C
:10056000009000000090000000900000309000001B
:10057000309000003610010036080E0036040000EE
:100580003602000036010000B6000000760000FED2
:100590003700000076000000B600001C360900227B
:1005A000360E0002360E0002360F000236900F3A69
:1005B00030900022309000220090001C0090070034
:1005C00000900000009000000090000000900F00DC
:1005D000000000000010000000900F0000900000DC
:1005E0000090000000900000009007003090000094
:1005F0003090000036920000368E0F00360E00005C
:10060000361E000036010000B6000000760000FE35
:100610003700000076000000B600001C3601002202
:1006200036020002360400023608000236100E3A86
:1006300030100122309000220090001C0090000039
:1006400000900000009000000010010000100E005B
:100650000000000000710000008900000089000017
:100660000089000000F900000089000000890000F6
:10067000008900000001000000010000FFFF0100F0
:10068000FEFF0000FC7F0000F83F0000F01F0000AC
:10069000E00F001CC00700228003000200010002DE
:1006A000FFFF013AFFFF0122800100224001001CF0
:1006B00020E1000010110000080900FE07090000F9
:1006C00000090000000900000011000000E1000026
:1006D0000000000000010000004900000049000087
:1006E00000490000004900000049000000490000E6
:1006F00000010000000100C0FFFF07C0FFFF07006E
:1007000008FE03001CFE03001CFC01003EFC01006F
:100710003EF800007FF800007F70008CFF700092B0
:10072000FF2000C2FFFF07DAFFFF07120801000CDD
:100730000401000002110000011100FE0011000080
:100740000011000000110000001100000001000075
:100750000000004E45430053616D73756E670044A1
:10076000617461436F64650055736572436F6465BE
:10077000004952206465636F646572006C6F6E6738
:10078000203D2073656C656374004261636B0050AB
:100790006F776572206F6666004F70746F207465A6
:1007A000737400455352206D65746572005A656E0E
:1007B000657220746573740043616C696272617460
:1007C000696F6E0041436F6D70005663630056722F
:1007D00065660043300052692B0052692D003132AA
:1007E000203133203233005230005A656E6572205A
:1007F000746573740070696E313D2B202070696ED2
:10080000333D2D00636170616369746F72206669A6
:1008100072737400646973636861726765207468D9
:100820006500506F776572206F666620616E6400A8
:10083000455352206D6574657200566F6C74616724
:1008400065210054657374696E672E2E2E2E00325A
:10085000782073686F72743D6261636B0031782039
:1008600073686F72743D7374617274004E6F6E655D
:1008700000547269616300566600745F6F666600BB
:10088000745F6F6E0049660043545200424A540040
:100890004F70746F20436F75706C657200627920C1
:1008A0004D2E2052657363686B65006D2D6669720D
:1008B0006D7761726520312E35370076302E32002B
:1008C000436F6D70756B6974004572726F722100B1
:1008D00054696D656F757400000000010203030127
:1008E000020301020302636F6E6E656374696F6ECB
:1008F0000052656D6F76652074686500312C20327A
:1009000020616E64203300436F6E6E6563742070E7
:10091000696E730001041002082001020400010244
:100920008111530F940D260CF40AF0091109500897
:10093000A6070F0789061006A3053F05E4049104E6
:100940004304FC03B9037A033F030703D1029E0269
:100950006D023E020F02E101B20182014E010F0160
:10096000EE59CB52AD4C6047BC42A43E003BBF3772
:10097000D0342932C02F8C2D872BAC29F5275E2649
:10098000E52485233D220A21EA1FDC1EDD1DED1C26
:100990000A1C331B681AA719F01841189B17FD167B
:1009A0006516D5154A15C6144714CD135813E7120A
:1009B0007B121312AE114E11F0100000BA03870320
:1009C00058032E030703E402C302A40288026670E0
:1009D0006E056D006B4D050A0605060A050A060937
:1009E000060A050A0609060A050A0609060A050A8C
:1009F0000605060A050A06050A06000000000000B2
:100A000000000000000000000000000000000000E6
:100A10000000000000000000000000000000820054
:100A200086008E009E00BE00FF03BE009E008E006A
:100A3000860082000000000000000000000082002C
:100A4000C200E200F200FA00FF03FA00F200E20046
:100A5000C2008200000000000000000000008601CB
:100A6000860186018601860187038601860186014B
:100A7000860186010000000000000000780084006C
:100A80000201020102010201020184004800480043
:100A90004800860100000000000000000000000087
:100AA000000000008200820082008200820082003A
:100AB000C600BA0002000200020000000000FE03AF
:100AC0000200020002000200030002000200020015
:100AD0000200FE0300000000000000000000FF0113
:100AE00000010001000100010003000100010001FC
:100AF0000001FF01000000000000440000000000B1
:100B0000100038002800480044008400FE00020164
:100B1000020101020000000000004400000000008B
:100B200078008400020102010201020102010201B7
:100B30008400780000000000000044000000000075
:100B40008200820082008200820082008200820095
:100B500044003C0000000000000000001C002200D7
:100B60002200220012001200120022004200820025
:100B7000820072000000000000000000000024005D
:100B8000000000003C0040004000780044004200AB
:100B90006200DC00000000000000000000002400F3
:100BA00000000000380044008200820082008200C1
:100BB0004400380000000000000000000000240095
:100BC0000000000042004200420042004200420099
:100BD00062005C000000000000000000100028001F
:100BE00010000000000000000000000000000000F5
:100BF00000000000000000000000000000000000F5
:100C000000000000000000000000000000000000E4
:100C100000000000000000000000000010001000B4
:100C20001000100010001000100010001000000054
:100C3000100010000000000000000000440044000C
:100C4000440044000000000000000000000000001C
:100C50000000000000000000000000009000900074
:100C600048004800FE0148002400FF012400240041
:100C7000120012000000000000002000F8002C000C
:100C800024002400280030006000E000A000A00044
:100C9000A4007C0020000000000000000E021101F2
:100CA000910051004E0020001000C80128022402CB
:100CB0002202C101000000000000000038004400D2
:100CC0004400640038000C0012023102210141018D
:100CD000C200FC0100000000000000001000100035
:100CE00010001000000000000000000000000000E4
:100CF0000000000000000000000000008001600013
:100D00003000100008000800080008000800080073
:100D10001000300060008001000000000600180094
:100D200030002000400040004000400040004000F3
:100D30002000300018000600000000001000100025
:100D4000D6006C00280038002800000000000000D9
:100D50000000000000000000000000000000000093
:100D6000000000001000100010001000FF01100033
:100D70001000100000000000000000000000000053
:100D80000000000000000000000000000000000063
:100D900018001800100010000800000000000000FB
:100DA00000000000000000000000FC000000000047
:100DB0000000000000000000000000000000000033
:100DC0000000000000000000000000000000000023
:100DD0001800180000000000000000000001800062
:100DE000800040004000200020001000100008009B
:100DF0000800040004000200000000003800440065
:100E0000440082008200820082008200820044004E
:100E100044003800000000000000000010001E0028
:100E20001000100010001000100010001000100042
:100E30001000FE0000000000000000003E00420024
:100E40004000400040002000200010000800040086
:100E500002007E0000000000000000003C00400096
:100E6000400040004000380040004000400040008A
:100E700040003C00000000000000000020003000A6
:100E8000280028002400220022002100FF0020006A
:100E90002000200000000000000000007C00040092
:100EA000040004001C0020004000400040004000FE
:100EB00020001C000000000000000000780004007A
:100EC000040002003A004600820082008200820094
:100ED000440038000000000000000000FE00800018
:100EE000400020002000100010000800080008004A
:100EF0000400040000000000000000007C008200EC
:100F000082008200640018006400420082008200B7
:100F100042003C00000000000000000038004400D7
:100F20008200820082008200C400B800800040007D
:100F300040003C0000000000000000000000000035
:100F40000000000018001800000000000000000071
:100F50001800180000000000000000000000000061
:100F60000000000018001800000000000000000051
:100F70001800180010001000080000000000000019
:100F8000000000000001C00030000C000C00300028
:100F9000C000000100000000000000000000000090
:100FA0000000000000000000FE0100000000FE0143
:100FB0000000000000000000000000000000000031
:100FC0000000000002000C003000C000C000300033
:100FD0000C00020000000000000000007E00C200C3
:100FE000820080004000200010000800080000007F
:100FF00008000800000000000000000078008400E5
:10100000E200930089008900C900C900E900B20329
:1010100046007C000000000000000000000000000E
:10102000100038002800480044008400FE0002013F
:1010300002010102000000000000000000000000AA
:101040007E008200820042003E0042008200820058
:1010500082007E0000000000000000000000000090
:10106000F8008600020001000100010001000200FA
:101070000600F80000000000000000000000000072
:101080003E004200820082008200820082008200D4
:1010900042003E00000000000000000000000000D0
:1010A000FE0002000200020002007E0002000200B8
:1010B0000200FE0000000000000000000000000030
:1010C000FE0002000200020002007E000200020098
:1010D000020002000000000000000000000000000C
:1010E000F0010C01040002000200C201020104012F
:1010F0000C01F001000000000000000000000000F2
:1011000082008200820082008200FE008200820053
:1011100082008200000000000000000000000000CB
:10112000FE00100010001000100010001000100051
:101130001000FE00000000000000000000000000A1
:101140007800400040004000400040004000400067
:1011500040003C0000000000000000000000000013
:1011600082004200220012000E000A0012006200FB
:1011700082000201000000000000000000000000EA
:10118000020002000200020002000200020002004F
:101190000200FE000000000000000000000000004F
:1011A000C300C300C700A500A500AD0099009900C9
:1011B000810081000000000000000000000000002D
:1011C000820086008A008A0092009200A200A2009B
:1011D000C2008200000000000000000000000000CB
:1011E00078008400020102010201020102010201F1
:1011F00084007800000000000000000000000000F3
:101200007E0082008200820042003E000200020056
:1012100002000200000000000000000000000000CA
:1012200078008400020102010201020102010201B0
:1012300084007800400080010000000000000000F1
:101240003E0042004200420022001E001200220026
:1012500042008200000000000000000000000000CA
:10126000FC00820002000600180060008000800080
:10127000C2003E000000000000000000000000006E
:10128000FF011000100010001000100010001000EE
:10129000100010000000000000000000000000002E
:1012A000820082008200820082008200820082002E
:1012B00044003C00000000000000000000000000AE
:1012C0000102020102018400840044004800480039
:1012D00030003000000000000000000000000000AE
:1012E000010201021201320132012A014A01CC003D
:1012F000CC0084000000000000000000000000009E
:1013000001020201840048003000300048008400DF
:1013100002010102000000000000000000000000C7
:101320000102020184004400280010001000100097
:10133000100010000000000000000000000000008D
:10134000FE010001800040002000100008000400A1
:101350000200FE010000000000000000F80008008C
:10136000080008000800080008000800080008003D
:10137000080008000800F800000000000200040057
:1013800004000800080010001000200020004000A9
:101390004000800080000001000000003E002000AE
:1013A000200020002000200020002000200020003D
:1013B0002000200020003E0000000000200020004F
:1013C000300050005800480088008400840002016A
:1013D000000000000000000000000000000000000D
:1013E00000000000000000000000000000000000FD
:1013F00000000000FF0300000000100020000000BB
:1014000000000000000000000000000000000000DC
:1014100000000000000000000000000000000000CC
:10142000000000003C004000400078004400420002
:101430006200DC000000000000000000020002006A
:10144000020002007A0046008200820082008200D0
:1014500046003A000000000000000000000000000C
:1014600000000000F8000400020002000200020078
:101470000400F80000000000000000008000800070
:1014800080008000B800C4008200820082008200D8
:10149000C400BC00000000000000000000000000CC
:1014A00000000000780084008200FE0002000200BC
:1014B0000400F8000000000000000000E001180037
:1014C00008000800FE0108000800080008000800E5
:1014D00008000800000000000000000000000000FC
:1014E00000000000B800C400820082008200820078
:1014F000C400BC00800040003C000000020002006C
:101500000200020072008A008600820082008200CF
:101510008200820000000000000000001800180097
:10152000000000001E00100010001000100010004D
:10153000100010000000000000000000300030002B
:10154000000000003C0020002000200020002000BF
:1015500020002000200020001E00000002000200E9
:10156000020002008200620012000E000A00320037
:101570004200820000000000000000003C0020004B
:10158000200020002000200020002000200020005B
:10159000200020000000000000000000000000000B
:1015A00000000000CD0033011101110111011101F2
:1015B0001101110100000000000000000000000007
:1015C0000000000072008E0086008200820082000F
:1015D0008200820000000000000000000000000007
:1015E0000000000038004400820082008200820077
:1015F000440038000000000000000000000000006F
:10160000000000007A004600820082008200820012
:1016100046003A0002000200020000000000000044
:1016200000000000B800C400820082008200820036
:10163000C400BC00800080008000000000000000AA
:1016400000000000E40094008C000400040004008A
:101650000400040000000000000000000000000082
:10166000000000007C00020002000C00300040007E
:1016700042003E00000000000000000000000000EA
:1016800008000800FE000800080008000800080024
:101690000800F00000000000000000000000000052
:1016A00000000000420042004200420042004200AE
:1016B00062005C000000000000000000000000006C
:1016C000000000000101820082004200440024006A
:1016D00028001800000000000000000000000000CA
:1016E0000000000001021102320132014A014A01E8
:1016F000CC0084000000000000000000000000009A
:101700000000000002018400480030003000480062
:101710008400020100000000000000000000000042
:101720000000000001020201020184004C00480098
:10173000300030001000080007000000000000002A
:1017400000000000FE0180004000200010000800A2
:101750000400FE010000000000000000E000100096
:10176000100010001000100010000C0010001000FD
:10177000100010001000E000000000001000100039
:1017800010001000100010001000100010001000D9
:101790001000100010001000000000001C002000CD
:1017A00020002000200020002000C0002000200099
:1017B0002000200020001C000000000000000000AD
:1017C00000000000000000000E023102C101000014
:1017D00000000000000000000000FF0102030405FB
:1017E0000607FFFFFFFFFFFFFFFFFFFFFFFFFFFFFA
:1017F000FFFFFFFFFFFFFFFFFFFF10111213141584
:10180000161718191A1B1C1D1E1F20212223242500
:10181000262728292A2B2C2D2E2F303132333435F0
:10182000363738393A3B3C3D3E3F404142434445E0
:10183000464748494A4B4C4D4E4F505152535455D0
:10184000565758595A5B5C5D5E5F606162636465C0
:10185000666768696A6B6C6D6EFFFFFFFFFFFFFFD5
:10186000FFFFFFFFFFFFFFFFFFFFFFFFFFFFFFFF88
:10187000FFFFFFFFFFFFFFFFFFFFFFFFFFFFFFFF78
:10188000FFFFFFFFFFFFFFFFFFFF0FFFFFFFFF0552
:10189000FFFFFFFFFFFFFFFFFFFFFFFFFFFF08FF4F
:1018A000FFFFFFFFFFFFFFFFFFFFFFFFFFFFFFFF48
:1018B00009FFFFFFFFFF0AFFFF0BFFFFFFFF0CFF0A
:1018C000FFFFFFFFFFFFFFFFFFFFFFFFFFFFFFFF28
:1018D0000DFFFFFFFFFF0EFFFFFF64616D61676596
:1018E00064207061727400556E6B6E6F776E206F3E
:1018F0007200070107010702060202070701070439
:10190000070011241FBECFEFD8E0DEBFCDBF14BE4D
:101910000FB6F894A895809160008861809360006C
:10192000109260000FBE21E0A0E0B1E001C01D9266
:10193000A13EB207E1F70E9472290C94F93B0C9486
:1019400000008093CD016093CE016150603190F42E
:1019500041E050E0062E02C0440F551F0A94E2F702
:101960002091CA013091CB01242B352B3093CB0130
:101970002093CA0181502AE0829FC0011124019660
:101980009093E0018093DF0180E1689FB001112412
:101990006E5F7F4F7093DC016093DB01089598E0E8
:1019A00087FF07C05C9A5A9A5A98880F9150C1F7DE
:1019B00008955C98F8CFCF93C82F599A892FEFDFFD
:1019C0008C2FEDDFCF9108955998E9CF8AE2FCDFA3
:1019D0008091DF019091E001EEDF8091DD01909137
:1019E000DE01E9DF8BE2F0DF8091DB019091DC0129
:1019F000E2DF8091D9019091DA01DDCFB0E0A0E083
:101A0000E4E0FDE00C94CC3B7C01E0DF0091DD01E3
:101A10001091DE010F5F1F4F8091DF019091E00177
:101A2000081B190BC091D901D091DA012196809140
:101A3000DB019091DC01C81BD90B8CE2C5DF20973C
:101A400079F4CDB7DEB7E8E00C94E83BC701B3DF2B
:101A500081E0C81AD108C114D104C1F72197EFCF92
:101A60006801F9CFB0E0A0E0E8E3FDE00C94C53BED
:101A70006C01062FC8E0D0E0F12CE12C8FEFA62EF0
:101A8000B12C9DE0792E760E872C912C2CE0622EC5
:101A9000660E55245394560E96010E2C02C03695B0
:101AA00027950A94E2F7122F11708F3FB9F018179B
:101AB000A9F0CE0101979093E0018093DF01D093CC
:101AC000DE01C093DD01B092DC01A092DB019092B7
:101AD000DA018092D90180EE97E090DF852D202FEA
:101AE000111102C0872D262DD093E001C093DF0194
:101AF000AE01485F5F4F5093DE014093DD0130E05F
:101B00003093DC012093DB0190E09093DA01809325
:101B1000D90180EE97E072DF8FEFE81AF80A299674
:101B2000812F90E1E916F10409F0B6CFCDB7DEB709
:101B3000EFE00C94E13BCF93DF93D82FC62F90E0DA
:101B40009093E0018093DF01862F90E09093DE0177
:101B50008093DD018DE490E09093DC018093DB01C4
:101B60008BE590E09093DA018093D90180EE97E0C5
:101B700045DFDE5F8D2F90E09093E0018093DF01E1
:101B8000C250D0E0D093DE01C093DD018FE490E03D
:101B90009093DC018093DB0189E590E09093DA017A
:101BA0008093D90190E080E029DFDF91CF91089503
:101BB000B0E0A0E0EEEDFDE00C94C83BC82FD62FBE
:101BC00080E098EFCC2331F080EE9FEFC13011F42C
:101BD0008FE190E02D2F30E03093E0012093DF0182
:101BE00027E12D0F30E03093DE012093DD0128E462
:101BF00030E03093DC012093DB012FE530E03093BF
:101C0000DA012093D901FADE99E0F92EFD0ECF5FBB
:101C1000C23009F447C0C33009F047C0C2EFD8E171
:101C20000FE410E0FE01A4904801FFEF8F1A9F0A15
:101C3000EF2C82E0C82ED12CB12CC5010C2C02C097
:101C4000959587950A94E2F780FF18C08E2D90E055
:101C50009093E0018093DF0181E08E0D90E09093FE
:101C6000DE018093DD011093DC010093DB01909293
:101C7000DA018092D90190E080E0C0DE81E0C81AEC
:101C8000D108E394E394EFEFCE16DE06B1F6219689
:101C90000E5F1F4F0935110529F6CDB7DEB7ECE011
:101CA0000C94E43BCCEFD8E1BBCFC7EFD8E1B8CF81
:101CB000CF93C62F60E17CDF68E78C2F79DF88E265
:101CC00090E09093E0018093DF0184E490E09093B2
:101CD000DE018093DD0183E590E09093DC01809349
:101CE000DB0185E590E09093DA018093D9018FEDD7
:101CF00094E684DE8BE590E09093E0018093DF0131
:101D000087E790E09093DE018093DD018FED94E60C
:101D100075DECF910895B0E0A0E0E1E9FEE00C941B
:101D2000CA3BC6E1D0E0D093E001C093DF018BE86D
:101D300090E09093DE018093DD0188E490E0909341
:101D4000DC018093DB0186E790E09093DA018093D9
:101D5000D9018FEF97E052DE88E090E09093E001A8
:101D60008093DF010EE010E01093DE010093DD01AF
:101D70008EE490E09093DC018093DB018CE690E0B0
:101D80009093DA018093D9018FEF97E037DE1093BB
:101D9000E0010093DF01D093DE01C093DD0182E515
:101DA00090E09093DC018093DB0188E590E09093D4
:101DB000DA018093D9018FEF97E020DECDE1D0E00A
:101DC0008EE4A82EB12C98E5C92ED12C26E6E22E61
:101DD000F12C00E710E0D093E001C093DF01CE01C9
:101DE00008969093DE018093DD01B092DC01A09211
:101DF000DB01D092DA01C092D90190E080E0FEDDF3
:101E0000F092DC01E092DB011093DA010093D9013A
:101E100090E080E0F3DD2F96C638D105E1F68BE146
:101E200090E09093E0018093DF01D093DE01C093B6
:101E3000DD018CE590E09093DC018093DB0182E68C
:101E400090E09093DA018093D90190E080E0D6DDB4
:101E5000CDB7DEB7EAE00C94E63BA3E0B0E0E3E305
:101E6000FFE00C94C23B462E79835A01E82FF0E044
:101E7000E652F84EE491EF3F09F445C030E2E39FAB
:101E8000C00111249B838A83C22ED12C80E1282E8D
:101E9000512C460181E0881A910834016A0C7B1CA0
:101EA000E42CF980312C832D877051F4EA81FB8179
:101EB000E650F64F54908A819B8101969B838A83DA
:101EC00050FE15C0F092E001E092DF01C701880DDD
:101ED000991D9093DE018093DD01B092DC01A09208
:101EE000DB017092DA016092D901C80187DD569456
:101EF0003394EC0CFD1C9AE03912D5CF2A94AC0C2B
:101F0000BD1C2110CACF2396E2E10C94DE3BAF92B8
:101F1000BF92CF92DF92FF920F931F93CF93DF93E5
:101F2000F62E5901EC01C42ED12CFE01849121968C
:101F300081110AC0DF91CF911F910F91FF90DF9027
:101F4000CF90BF90AF9008956F2D70E0850121E094
:101F5000A60183DF8AE0F80EE8CFB0E0A0E0E3EB73
:101F6000FFE00C94CC3B7C01C4E7D0E0C62ED12C22
:101F70008F2D82958F708A30A8F4805D00EE1FEF60
:101F800021E0A601BE0169DF84E0EE0CFF1C8A950A
:101F9000E1F72A96CC39D10559F7CDB7DEB7E8E09D
:101FA0000C94E83B895CEACFA3E0B0E0EAEDFFE007
:101FB0000C94C83B7B016901582FFC012E2F251B77
:101FC000349131963111FACFE114F10431F02F5FE1
:101FD000F7013491319631111EC0222309F442C019
:101FE00060EA70E0EAE02E9F6019710911247B839A
:101FF0006A8377FF04C06F5F7F4F7B836A832A8188
:102000003B81359527953B832A8332E03983842EA3
:10201000912C5C010EC02F5FDCCF860121E0A40172
:102020006A817B811ADF6A817B81665F7F4F7B8358
:102030006A83F5018491FFEFAF1ABF0A8111EDCFDA
:10204000E114F10479F02A813B81265F3F4F3B8305
:102050002A83C7013981313029F061E06983F12C8D
:10206000E12CD7CF2396ECE00C94E43BCF92DF92A7
:10207000FF920F931F93CF93DF93F42E4AE0849F38
:10208000402D1124C6EFC40F2FE0260F2295207F8C
:1020900080E098EFFF2029F081E0F81651F180EE02
:1020A0009FEFD0E0D093E001C093DF01415050E0BA
:1020B0005093DE014093DD01C22ED12CD092DC0181
:1020C000C092DB01215F30E03093DA012093D90127
:1020D00095DC10E000E021E0A601BE0181E38F0D58
:1020E000BCDEDF91CF911F910F91FF90DF90CF90D9
:1020F00008958FE190E0D5CFB0E0A0E0E2E8F0E114
:102100000C94C73BE82F6091CE0110E000E06130F5
:1021100011F400EE1FEF8091CD01813108F048C02D
:10212000F0E0E652F84EC491CF3F09F441C090E28E
:10213000C99FE0011124C650D64F03DC8091DF0116
:102140009091E00109969093DE018093DD018091EA
:10215000DB019091DC010F969093DA018093D90115
:1021600035DCA090D201B090D3018CE22DDC6E0161
:10217000E0E2CE0ED11C7E01F2E0EF0EF11C8AE00F
:10218000882E982CF8E0F81510F498E0992E89180C
:10219000FE017490911011C02196CE15DF0589F7CC
:1021A000CC16DD0641F78091CD018F5F8093CD0184
:1021B000CDB7DEB7EDE00C94E33BC50170FEC8017E
:1021C000FADB76949A94E6CF0F931F93CF93DF9325
:1021D0008A01B7DBE801FE0184912196811105C0D7
:1021E000DF91CF911F910F91089586DFF4CF0F9368
:1021F0001F93CF93DF93CCECD1E00E811F818FEF43
:102200009FEF9F838E8347EE58E162E083E0DCDF3F
:102210004AED58E163E081E0D7DF80EE97E09F83ED
:102220008E8364E088E08DDB8FE366DF74DD1F83DF
:102230000E83DF91CF911F910F9108950F931F93FC
:10224000CF93DF93D82FA89581E0D11104C0D0910E
:10225000CE018091CD01D131E0F49FEF9D0F21E0BF
:1022600030E002C0220F331F9A95E2F74091CA0175
:102270005091CB01BA0162237323672B31F1813076
:1022800041F420953095242335233093CB012093BE
:10229000CA016D2F56DB80EA90E09093DE018093B7
:1022A000DD018091DB019091DC019C01215F3F4FBA
:1022B0002238310578F43093DA012093D901C0E156
:1022C00085DB8CE281DBC1110EC0DF91CF911F91C4
:1022D0000F910895C2E8C81B81E890E09093DA015D
:1022E0008093D901EDCF0091DF011091E001013A17
:1022F000110510F0C150E7CF80EE9FEFD13011F003
:1023000090E080E058DB0F5F1F4FF1CFCF93DF935A
:10231000C1E08C2F93DFCF5FCA30D9F7C091D201D3
:10232000D091D3011092D3011092D20161E085E0E7
:1023300008DB8DE4E1DE8DE2DFDE84E5DDDE85E6CF
:10234000DBDE83E7D9DE84E7D7DE85E6D5DE82E70C
:10235000D3DED093D301C093D20162E081E0F1DA01
:10236000DF91CF91089590919B01EDE2F1E0911101
:1023700004C0F0E0E0E0CF0108952081281303C0FD
:1023800021812617C1F391503696F1CF16BC81E01A
:1023900085BDA99BFECF15BC82E085BB089580E278
:1023A000ABCECF93DF93EC01FE018491811103C08A
:1023B000DF91CF910895A0DE2196F6CFCF93DF93E2
:1023C000613009F43CC0623009F042C0E0E6F9E057
:1023D000CCE2D0E029E130E04CE251E084179507EF
:1023E00008F43FC0841B950BB9010E943E3B422F6D
:1023F000481B6C171D0611F008F0BE017727660F09
:10240000771F6E0F7F1FFB0185919491FB01329620
:10241000C591D4918C1B9D0B489FB001499F700DB5
:102420001124C90196958795860F971FB9010E94BF
:102430003E3BCE01860F971FDF91CF910895ECEBC5
:10244000F9E0C7E0D0E022E330E048EE53E0C6CF49
:10245000E0E2F9E0CEE1D0E029E130E048EC50E004
:10246000BDCF90E080E0C0CFA8EBB1E08C93119697
:102470006C93119712964C93129790E0FC01EC5ECE
:10248000F64FE4911696EC93169770E0FB01EC5E24
:10249000F64FE4911796EC93179750E0FA01EC5E33
:1024A000F64FE4911896EC931897FC01E95EF64F0D
:1024B000E4911996EC931997FB01E95EF64FE491CC
:1024C0001A96EC931A97FA01E95EF64FE4911B967F
:1024D000EC931B97FC01E65EF64FE4911C96EC939F
:1024E0001C97FB01E65EF64FE4911D96EC931D9759
:1024F000FA01E65EF64FE4911E96EC931E97835E1A
:10250000964FFC0184911F968C931F97635E764FC4
:10251000FB01649150966C935097435E564FFA01BD
:10252000449151964C930895E8EBF1E04581648124
:1025300083819ACF43E0481B461B96CFE1EAF1E046
:1025400080E09191890F91E0EB3AF907D1F7811181
:1025500001C081E00895E1EAF1E088EC90E0918328
:1025600080838CED90E09383828384E190E0958377
:1025700084838BE286831782108611860895B0E0EB
:10258000A0E0E5ECF2E10C94C33B4B015C01342E7E
:10259000280139011E2DAC019B01D1E09AE0C92E22
:1025A000D12CE12CF12C2A3031054105510510F5D3
:1025B000A3019201C1E08AE0C82ED12CE12CF12CBC
:1025C0002A30310541055105E8F481149104A10434
:1025D000B10491F1411451046104710441F1432D9E
:1025E0004D0FE12EEC0EE416F4F1ED2F4E15D9F05F
:1025F0008FEF2AC0CA01B901A70196010E94653B6D
:10260000DF5FD1CFCA01B901A70196010E94653BE6
:10261000CF5FD6CFAAE0B0E0A30192010E94B83B01
:102620002B013C01CF5FCD17ACF3EC1794F04814AD
:1026300059046A047B04B8F081E084149504A6046C
:10264000B70408F080E08195CDB7DEB7E1E10C94E6
:10265000DF3BAAE0B0E0A50194010E94B83B4B012A
:102660005C01EF5FE2CF81E0EFCF99DE80919701CF
:1026700082FF03C08DE790E094CE88E790E0FCCF26
:102680008EDE8091970180FF05C08EE435DD84E702
:1026900090E087CE80E5FACF90917B01981303C03C
:1026A00080917E01089590917C01891303C08091EF
:1026B0007F010895809180010895EEDF1DCD1F9365
:1026C000CF93DF9390919F01E92FEE0FE90FE60F73
:1026D000FF27FF1FEA52F64FE491EE2309F1C09164
:1026E000D701C150D091D801E4FF04C09091D60128
:1026F0009695D90FE1FF04C09091D5019F5FC90F56
:10270000E2FF04C09091D6019150D90F182F6D2F80
:102710008C2F17D9812FC0DF883731F4812FCDDF7F
:10272000DF91CF911F910895412F6D2F8C2F9EDC4B
:10273000F7CFCF93DF93C0E0D091CD014C2F6091C4
:10274000CE018D2F93DCDF5FD093CD018DE3D4DC00
:102750008C2FA2DFD1DCC23009F021DECF5FC33085
:1027600059F7DF91CF910895019708F40895EFE9A3
:10277000FFE03197F1F700C00000F6CFA895EFE930
:10278000FFE03197F1F700C000000197B9F7089515
:102790008F929F92AF92BF92DF92EF92FF920F9330
:1027A0001F93CF93DF93B2DD4BE8E42E40E0F42E8D
:1027B000F70180E094913196911129C0811129C0CF
:1027C00080E197E2DBDFF8940FB6F894A89580914A
:1027D0006000886180936000109260000FBE5E9878
:1027E00083B7817F846083BF83B7816083BF88950F
:1027F00083B78E7F83BFDF91CF911F910F91FF90A1
:10280000EF90DF90BF90AF909F908F9008958F5F73
:10281000D1CF9AE0899FF001112480EA90E0BF01B6
:102820000E94523BD62E84E0861798F16623A1F1D0
:102830002D2D30E0E29FA001E39F500DF29F500D3F
:10284000112480EA90E0841B950B97FD0196EC0122
:10285000D595C79599E0A92EB12CA21AB30A23E009
:10286000AA0CBB1C2A95E1F79AE0D99E40011124DD
:10287000F7018491FFEFEF1AFF0A882309F4A0CF34
:102880000FEF1FEF2D2DA501BE01E7DAC80DD91DF1
:10289000EFCF34E0D32ECCCFDD24D394C9CFB0E03A
:1028A000A0E0E5E5F4E10C94CC3BEC01162F15B863
:1028B00018B88091C401062F017060FFADC09091DF
:1028C000BF0194B987B987E080937A0080E4809350
:1028D0007B008091C801806C80937C0084E480BF81
:1028E0000E945C29A895109280001092810010929D
:1028F00085001092840087E286BB9091C401612F0D
:10290000647012FF8EC098B980E100008150E9F731
:102910008091810081608093810090E080E021E0DF
:1029200046B345FD85C040FFFBCF26BB01968034F2
:102930009105B1F710E01092810020E226BBC09013
:102940008600D09087005091BF017091BE01572B37
:1029500054B917B8E0918400F0918500CE16DF06D7
:1029600028F440FF03C041E046BB019647E940938D
:102970007A0040917B004F7B40937B00112309F448
:1029800042C0F12CE12CB0E0A0E0AC0133272227BB
:10299000C22AD32AE42AF52A84E0662331F08FE3A1
:1029A000C80ED11CE11CF11C83E0002309F442C0D5
:1029B0008D5F90E0B0E0A0E020E030E0A9018C1550
:1029C0009D05AE05BF0530F4A7019601281B390B04
:1029D0004A0B5B0BA1E7B2E00E94B83B6B5F7F4FF5
:1029E0008F4F9F4F2AE030E040E050E00E94653B6F
:1029F000288339834A835B830023F1F0223E3440ED
:102A000041055105F0F080EC8093B001812FCDB7E6
:102A1000DEB7E8E00C94E83B14B89091C501892B2F
:102A200051CF8091810081608093810098B975CFEA
:102A300013E081CF8F5FBDCF2536310541055105AC
:102A400010F712E0E0CFCF93DF938F70C82FC064F0
:102A5000C0937C00DC2FD07C8091B0018D1721F0D9
:102A60000E946129D093B00180917A0080648093A4
:102A70007A0080917A0086FDFCCF20E030E0A90149
:102A800080E0E091AE018E17E8F0A091B101B09125
:102A9000B201D03C21F0A091B301B091B4010E94E9
:102AA000B83B2CE096958795779567952A95D1F751
:102AB0002E2F30E050E040E00E94653BC901DF91DD
:102AC000CF91089590917A00906490937A009091BC
:102AD0007A0096FDFCCF6091780070917900260F06
:102AE000371F411D511D843061F4211590E13907D4
:102AF00040F4D03C31F09091AF01913011F4C06CB2
:102B0000A7CF8F5FBECFA6E0B0E0E9E8F5E10C9477
:102B1000C93B17B818B815B88FE384B980E093DFC4
:102B20009A83898381E08FDF9C838B8382E08BDFB4
:102B30009E838D83912C42E0E42E58E2F52EDD2415
:102B4000D394AA24A394B12CE39423E0E21201C00D
:102B5000E12C0E2D10E0892D90E00E2C02C09595F1
:102B600087950A94E2F780FDEFCFF801E35EF64F18
:102B7000C4908C2D68DFF801EE0FFF1F41E050E09C
:102B80004C0F5D1FE40FF51F2081318182179307E1
:102B900080F4918380834F2D4D19550B443151059D
:102BA0002CF45AEE5F1510F024E1F20EDD24D394DC
:102BB00009C08A30910528F438E2F31202C020E5FA
:102BC000F22ED3948330910508F035C0C501002E54
:102BD00001C0880F0A94EAF7982A57E0951629F160
:102BE000FD1408F033C081E0809396018093970133
:102BF000E0929C01F801E65EF64FE49187B1E09522
:102C0000E823E7B9F801E95EF64F8491F801EC5E3C
:102C1000F64FE49104B1E82BE095E023E4B98C2D64
:102C200012DF90939E0180939D0114B817B82696E9
:102C3000EBE00C94E53B8039914078F6F801E65ED4
:102C4000F64F8491E7B1E82BE7B9C7CFA89582E3A7
:102C500090E094DD79CFCF93C82FC09595B160FFF8
:102C600011C0982B95B994B1892B84B963FF0CC01E
:102C70000E945C2984B18C2384B985B18C2385B9E9
:102C8000CF9108959C23EECF0E945729F3CFB0E057
:102C9000A0E0EDE4F6E10C94C53BC42FD0E02EE0BB
:102CA000429FF0011124EF5AFE4F1082118294EFDF
:102CB00092831782108611861286138214821582DF
:102CC00016821486138690919601913009F49DC165
:102CD000B62EF82E9A3069F490909A0128E1C22E0F
:102CE00021E0D22EA12CA91408F456C024E6A21289
:102CF0008CC16B2D8F2D37DB009739F0FC01828161
:102D000093818C3D954008F480C16B2D8F2D12DC92
:102D1000A2E0EA2EF12CB1E17B2E83E0682EF3DEF7
:102D200080919601813009F483C018B88091C50163
:102D300087B98091BF0185B984B98091C70183DECD
:102D40006C018091C8017FDEC81AD90A15B814B881
:102D5000912C812C2FEF821A920A672D8091BE014F
:102D60007ADF8091C7016FDEC816D9060CF0B7C2B2
:102D70008C010C191D098EE78816910499F50C3207
:102D800091E01907D4F581E00B3411050CF480E0D3
:102D9000A8958111DFCF32C0F60180818F1114C058
:102DA00081818B1116C0F6016381748185819681C2
:102DB000E12C0AE010E020E030E04281E0DB8F3FD0
:102DC00041F493E6A92E05C08B1103C081818F15B4
:102DD00051F3A394F7E0CF0ED11C85CFEE24E394FA
:102DE000F12C9DCF80E00C32E1E01E070CF481E075
:102DF000F4EF8F16F1E09F0659F6A8950C3221E00A
:102E0000120714F46624639481E08816910499F4FF
:102E1000053195E019077CF0E9E07E2EE1E0EE1641
:102E2000F104E1F670DE80919601813009F0F2C084
:102E300080919601D4C0F3E06F1609F4A3C0E2E0DC
:102E40006E12C9C0EFCF21E0E21AF108FCDD9C014F
:102E50002C193D09C816D90614F030E020E0A895D9
:102E60008091C701E114F10471F7D12CC12C201716
:102E7000310740F46801C21AD30A95E6C916D10495
:102E800008F084C0E0DD5C01E72DE0715E2E09F4FE
:102E90007FC00E944C298091C701D5DD8A159B0512
:102EA00018F47501E81AF90AF3E06F12C8CF62E06E
:102EB000C8018C0D9D1D82DA9C01D4010E94A33BA8
:102EC0004B015C01552009F4F5C1AAE0B0E0AC016A
:102ED0009B010E94B83B4B015C0128E3821629E864
:102EE000920621E4A206B10408F4DCC1C501B401D4
:102EF00028EE33E040E050E00E94653B49015A0172
:102F0000A8EEB3E00E94B83B1AEF552009F4E2C1E5
:102F100022E434E040E050E00E94653B8EE08C9F6C
:102F2000F0018D9FF00D1124EF5AFE4F8091B901F1
:102F300080838091B8018183128387829086A186E5
:102F4000B28623833483458356837AE0872E912C7F
:102F5000A12CB12C213085E338078CE048075105BE
:102F6000D0F4D7010E94B83B28EE33E040E050E0B7
:102F70000E94653B73FC1F5F6AE0C62ED12CE12CDA
:102F8000F12C18C0740130E020E06ACF612C7ACFB8
:102F90000E94512980CFCA01B901A50194010E9464
:102FA000653B1F5FD7CFCA01B901A70196010E94F7
:102FB000653B1F5F2115310591E04907510598F7E1
:102FC0008EE08C9FF0018D9FF00D1124EF5AFE4F83
:102FD00034872387158780919601843188F49EE099
:102FE0009C9FF0019D9FF00D1124EF5AFE4F92819E
:102FF0008A3009F04AC19A3F1CF08BE08093960119
:1030000082DD17B818B814B815B8CDB7DEB7EFE041
:103010000C94E13B15B897E097B918B88091C101BD
:1030200084B980E480937B0084E480BF8091C701F1
:10303000806480937C0090937A000E9460291092B3
:10304000800010928100109285001092840087E227
:1030500086BB8091C10185B9809196018F3109F0BD
:1030600003C18091C4018095877091E090938100A5
:1030700087B9F12CE12C86B385FD0CC080FFFBCF16
:1030800096BBA895FFEFEF1AFF0A20E8E2162CE0A6
:10309000F20689F71092810090E296BBC0908600FC
:1030A000D090870014B82091840030918500C2161A
:1030B000D30638F480FF05C081E086BB8FEFE81AA5
:1030C000F80A87E980937A0080917B008F7B809358
:1030D0007B008091C701B7DC4C0115B88091C1011C
:1030E00084B990E8E9169CE0F90608F074CFC601AF
:1030F000B0E0A0E06701F12CE12C7601DD24CC24C6
:10310000C82AD92AEA2AFB2AE3E0CE16D104E10430
:10311000F10408F4ACC0F2E0CF1AD108E108F108DC
:1031200028E3C21629E8D20621E4E206F10408F4F5
:103130009EC0C701B60128EE33E040E050E00E9497
:10314000653B69017A0117EF2091A9018091B101D6
:103150009091B20161E0820F911D27FD9A952ED9C1
:10316000DC01A70196010E94B83B20E436E040E074
:1031700050E00E94653B69017A01143F99F4809107
:10318000A70190E0B0E0A0E0C12CD12C7601281777
:1031900039074A075B0730F069017A01C81AD90A72
:1031A000EA0AFB0A8EE08C9FF0018D9FF00D11243E
:1031B000EF5AFE4F8091B90180838091B8018183DD
:1031C00012832783308741875287C382D482E58266
:1031D000F682143F09F04DC080EAC81686E8D8068A
:1031E00081E0E806F10408F4F6CE8091C7012BDCFB
:1031F000853D9340D0F714B81092AF018091C7017C
:1032000022DC5C0181E08093AF018091C7011BDC6F
:10321000AC018091C10184B9D501A41BB50BA0906C
:10322000B101B090B201CD010496099788F09501E3
:103230000E94B23B9A0150E040E00E94873B80919F
:10324000A801280F2093A801AC0CB11CC7FCBA94AC
:1032500084010A191B09C801C1968336910508F03B
:10326000BACE0093A901B7CE8091C501FECE14EF6E
:103270006BCF173F09F0AFCE91E2C9169EE4D90695
:10328000E104F10408F4B1CFA6CE953F0CF0B5CE21
:1032900083819481A581B6810597A105B10508F0C8
:1032A000ACCEAECEA8EEB3E0AC019B010E94B83B21
:1032B00017EF2ECEF8E38F16F9E89F06F1E4AF067C
:1032C000B10408F013CEA8EEB3E0A50194010E946A
:1032D000B83B17EF20E134E040E050E01DCE10E0B5
:1032E00000E02EE78216910409F081CD4CCDA4E0D8
:1032F000B0E0EDE7F9E10C94C23B009751F42FEFF9
:103300003FEF3C832B838B819C812496E2E10C94DC
:10331000DE3B9C838B83FC01638174818581968174
:10332000A7EFEA2E0AE010E020E030E0428127D942
:1033300087FDE5CFE8DB80919601813001F3EB81D9
:10334000FC811181008117B818B814B815B8612F25
:10335000802FF0D88091C40187B98091C80173DBB8
:103360007C018091C50187B98091C7016CDBE816AB
:10337000F90618F4602F812FDDD88091C40187B938
:103380008091BF0184B912E38091C8015CDB9C018C
:103390008039914040F497B18091C501982B97B93D
:1033A0002832310530F0115021F084E690E0E6D962
:1033B000EBCF17B814B8EB81FC8161818081BAD85A
:1033C0000091C7018091C801006C806C8A8315BC94
:1033D00082E084BD85E687BD18B800937C000E941A
:1033E0005729FFEFF983C12CD12C7601C394412CCE
:1033F000512C32014394F2E3AF2EB12C90E080E0E7
:1034000017EDA895C29758F48091C50187B98091AE
:10341000BE0185B984B90E946A2914B815B822E39F
:10342000A216B10458F48091C40187B98091BF01FC
:1034300085B984B90E946A2914B815B88091C4016D
:1034400087B98091BE0185B984B900937C0010933F
:103450007A0080917A0086FDFCCF10937A008091EB
:103460007A0086FDFCCF2090780030907900369469
:103470002794369427943A8130937C0010937A00F5
:1034800080917A0086FDFCCF10937A000E94662915
:103490000E94C6118091BF0185B984B90E946A2932
:1034A00014B880917A0086FDFCCFA0907800B0908F
:1034B0007900B694A794B694A7948091C50187B972
:1034C0008091BF0185B984B96A8160937C001093B3
:1034D0007A0080917A0086FDFCCF10937A0080916B
:1034E0007A0086FDFCCF80907800909079009694C9
:1034F00087949694879400937C0010937A0080912F
:103500007A0086FDFCCF10937A000E9466290E9403
:10351000C6118091BE0185B984B90E946A2914B888
:1035200080917A0086FDFCCF80917800909179009F
:103530009695879596958795A40170E060E0420D79
:10354000531D611D711D440E551E661E771EAC0174
:1035500070E060E04A0D5B1D611D711DC40ED51E3B
:10356000E61EF71E79817150798371114ACF17B821
:1035700015B84C145D046E047F0408F046C08091B9
:10358000A1019091A2012AE0289FD001299FB00DAE
:103590001124A701960124193509460957090E94EB
:1035A000B83BA30192010E94653B8091A5019091D7
:1035B000A6018217930750F4F901E81BF90BFC836D
:1035C000EB8380EC8093B0019EDA9DCEEB81FC8191
:1035D00063817481858196812AEFE22E08EE13E0E3
:1035E00020E030E042810E94BF1221E030E03C83C5
:1035F0002B83181614F41C821B826B817C817195BD
:10360000619571097C836B83DCCF8FEF9FEF9C8387
:103610008B83D7CFB0E0A0E0E0E1FBE10C94C43BAA
:10362000182F71DA80919601813009F4A5C018B87D
:103630008091C50187B98091BE0185B984B90E9486
:103640005729C2E0D0E0C12CD12C76018091C7016E
:10365000A895806C80937C000E94612980917A00FB
:10366000806480937A0080917A0086FDFCCF04E626
:10367000812C912C540180917A00806480937A008F
:1036800080917A0086FDFCCF80917800909179003E
:10369000880E991EA11CB11C0E945E29015059F789
:1036A000A091B101B091B201A50194010E94B83B73
:1036B0004B015C018CE0B694A794979487948A950B
:1036C000D1F7219779F415B88091C5019091C40183
:1036D000892B87B98C149D04AE04BF0450F090E090
:1036E00080E042C0C1E0D0E0750164018091C80172
:1036F000AFCF2091B3013091B401A4E6B0E00E94B5
:10370000A33B9B01AC012C193D094E095F090E94A6
:10371000B83B2B013C01A7019601281939094A0938
:103720005B09A8EEB3E00E94B83B6B017C012091DD
:10373000A3013091A4012057354E50E040E0C30171
:10374000B2010E94653BC701B6010E94653BC901F9
:10375000113051F46091A5017091A60162177307B1
:1037600008F0BDCF861B970B20EC2093B001CDB79E
:10377000DEB7E0E10C94E03B90E080E0F8CFB0E011
:10378000A0E0E5ECFBE10C94C83B6B017C01C42F8D
:10379000022F9AE0892E912CA12CB12C80E1C81621
:1037A00087E2D806E104F10408F054C0C13F0CF4EC
:1037B0005FC08FE08C0F23E0622F0E94313BD92F36
:1037C000992319F08F5F291BD22F883008F051C040
:1037D000E82FF0E0E253F64F14914AE06CE071E01C
:1037E000C6010E94C63A2CE031E0F90101900020A8
:1037F000E9F79F012D503140B22EC22FCD1B1C1670
:103800005CF080E30E947C108EE20E947C10CC234E
:1038100019F080E30E947C10D11101C0CFEFC1509C
:103820008CE0C82E81E0D82EF12CE12C0C2E000C5F
:10383000DD0BEB1400F1112319F0812F0E947C1095
:10384000002319F0802F0E947C10CDB7DEB7ECE08A
:103850000C94E43BC701B6016B5F7F4F8F4F9F4FC6
:10386000A50194010E94653B69017A01CF5F96CF63
:10387000D0E010E0B2CFF60181916F010E947C1080
:10388000CE15DF0519F48EE20E947C10FFEFEF1ACF
:10389000FF0ACFCFCF92DF92EF92FF926B017C01B4
:1038A000F7FE0BC08DE20E947C10F094E094D0945F
:1038B000C094C11CD11CE11CF11C26E54DEFC701D1
:1038C000B6015DDFFF90EF90DF90CF900895CF922B
:1038D000DF92EF92FF92CF936B017C01C42F88EEB1
:1038E000C81683E0D806E104F104C8F0842F440F21
:1038F000990B0F9663E070E00E94523B892B79F49C
:10390000C701B6016B5F7F4F8F4F9F4F2AE030E0BA
:1039100040E050E00E94653B69017A01CF5F24E0FE
:103920004C2FC701B6012BDFCF91FF90EF90DF90B6
:10393000CF900895CF93DF9385E085D8EC019093E5
:10394000B6018093B50184E68093B701CE01845817
:1039500093408C3F984090F50E9486118CE990E04E
:103960000E94D1110E94CF11CE016AE070E00E9446
:103970003E3B90E080E026E54EEF01DF0E94CF1154
:103980008091B5019091B60180382CE09207C8F47F
:1039900080E098EF9093D3018093D20188E990E082
:1039A0000E94D1118FEF9FEF9093D3018093D201AA
:1039B00088EB9BE00E94BE130E94C813DF91CF9159
:1039C00008958C3A9D4048F480EE9FEF9093D30188
:1039D0008093D20183E990E0E3CF80EE97E090936B
:1039E000D3018093D20180E990E0DACFB0E0A0E08B
:1039F000ECEFFCE10C94C83B6C01162F8091AD01FB
:103A000098E6E92EFF24F39485FD02C0F12CE12C09
:103A100012FF05C08091AC0180FD4DC01C7F812F3D
:103A20008370B82E39F068E080E10E94A10C8EE32B
:103A30000E947C10D0E0C1E000E084E1A82E812F3C
:103A40008270982E812F8071882E1870C114D10435
:103A500039F086E0C816D10488F185E0C81AD1088B
:103A60004F9938C08EE190E00E94BE13D0E0C111A2
:103A700027C0C0E001E0112309F464C082E390E0B4
:103A80000E94BE13C4E101E04F990CC08EE190E0AA
:103A90000E94BE134F9906C088EC90E00E94BE13AE
:103AA000C1E003E0C1508AE090E00E94BE13C11162
:103AB000EBCFD0E047C0D12CC12CB1CFC0E0D0CFEC
:103AC0004F99D7CFDF5FDB31D9F18AE090E00E94D8
:103AD000BE13CDCF85E090E00E94BE13DF5F8D2F37
:103AE0006A2D0E94253B911107C08091B701823059
:103AF000E0F081508093B701D43621F5992051F040
:103B000068E080E1C130A9F40E94A10C80E20E942B
:103B10007C10C2E0E114F10461F281E0E816F104E6
:103B200069F181E0E81AF108C4CF882029F302DFA7
:103B3000E3CF0E94A10C8EE30E947C10C1E0EACF8B
:103B4000C0E002E08091AD0180FF1CC08091AD011A
:103B50008E7F8093AD01BB2039F068E080E10E9448
:103B6000A10C80E20E947C10073611F40E94C81359
:103B7000802FCDB7DEB7ECE00C94E43BD0E0C0E0A2
:103B800007E6E0CFC11162CFE6CFCF936091CE01BF
:103B90008091D00186131CC0C091CC01C0FF04C02D
:103BA00065E188EB9BE022DFC1FF0EC0C091D00130
:103BB000C23028F462E081E00E94A10C07C08C2F83
:103BC0000E941E11C150F4CF0E948611CF9108951A
:103BD0006F5FF1CFCF93DF93EC01D7DFCE010E946F
:103BE000D1110E94CF11DF91CF910895809196015C
:103BF0008232D1F487E890E00E94D111C6DF0E94A2
:103C000099138091820190918301892B61F082E860
:103C100090E0E0DF609182017091830190E080E0AC
:103C200026E54DEFACCD089581E798E0E5CFFF9212
:103C30000F931F93CF93DF93F0909701D0917C0166
:103C4000C0917D01F0FE03C08D2FDC2FC82F6C2F9B
:103C50008D2F0E94B3118C01892B59F00E94CF1136
:103C60008D2F0E945D1381E00E947C108C2F0E949A
:103C70005D13F2FE33C08091840190918501892B00
:103C800061F080E790E0A6DF60918401709185018A
:103C9000072E000C880B990BFDDD8CE690E09ADF77
:103CA00060919101709192018091930190919401A2
:103CB00026E44091950163DD80918201909183011A
:103CC000892B61F088E690E085DF60918201709138
:103CD000830190E080E024E04EEF51DD01151105F5
:103CE000A1F053DF81E00E947C100E94CF1187E792
:103CF00098E00E94D1110E94CF11F8016281738176
:103D000090E080E026E54DEF3ADDCDB7DEB7E5E0A7
:103D10000C94EB3BEF920F931F93CF93DF93EC0147
:103D200060918C0170918D0180918E0190918F0135
:103D300027EFE22E0AE010E020E030E04091900111
:103D40000E94BF1287FD0EC0CE0144DF60918C013E
:103D500070918D0180918E0190918F0121E44091AD
:103D600090010DDDDF91CF911F910F91EF9008959C
:103D7000CF93C82F0E9458298C2F0E942315CF91D2
:103D80000895B0E0A0E0E7ECFEE10C94C63BC82F3C
:103D90007B018091B8018093BB018091B901809330
:103DA000BC018091BA018093BD018091C301C130F3
:103DB00009F07AC19091BE01892B84B985B90E941E
:103DC00053290091B3011091B4018091C7010E9461
:103DD0002315081B190BC090B301D090B40180913A
:103DE000C9010E942315F601E81BF90BC090A3013D
:103DF000D090A401D1E088E49DE02DEF39E02E17AA
:103E00003F0708F0C3C1809196018E3109F063C16C
:103E100080919701982F9C238460992359F0C13099
:103E200059F490917C018091B801981305C0C0931A
:103E3000960182E080939701809198018160809340
:103E40009801E016F10610F40E191F09D80120EFB1
:103E50003BE247E050E00E94B83B9F0150E040E069
:103E60000E94653BAAE0B0E00E94B83B20E7C21A7E
:103E700025EED20A960150E040E00E94653B6901C0
:103E80007A019091C001C13009F02BC18091C40129
:103E900087B988B98091BF01892B84B995B9809180
:103EA000C80166DF8C01A090B301B090B40180918D
:103EB000C9010E9423159501281B390B21153105D5
:103EC00011F421E030E0C801821B930BB9010E947C
:103ED0003E3B4B01B12CA12C2031310508F03FC0F5
:103EE0008091C301C13009F014C19091BF01982B9A
:103EF00094B985B98091C8013BDF3C010091B301C1
:103F00001091B4018091C9010E942315F801E81BAA
:103F1000F90B0091A1011091A201309711F4E1E099
:103F2000F0E0D30120EF3BE247E050E00E94B83BD5
:103F30009F0150E040E00E94653BAAE0B0E00E9493
:103F4000B83B0057154E980150E040E00E94653B99
:103F500082169306A406B50610F449015A01D2E070
:103F6000C814D904EA04FB0418F046015701D1E053
:103F7000C0908801D0908901E0908A01F0908B0177
:103F80008091BA0140E06091B801C13019F4682F06
:103F90008091B9010E9447160E9494128091970166
:103FA00082FFCEC00091540110915501209156011D
:103FB000309157016091910170919201809193012C
:103FC00090919401E0905301409195010E94BF129D
:103FD000813009F4BBC08C2F84608093970115B8A1
:103FE0008091BF0184B98091C40187B988B980915B
:103FF000C801BEDE8430910508F4ADC0C090A101B7
:10400000D090A201F12CE12C30E9C30E3AE1D31E8D
:10401000E11CF11C20EA36E841E050E019EF17B846
:1040200018B814B815B8DC010E94B83BA701960176
:104030000E94653B20938C0130938D0140938E014B
:1040400050938F0110939001809288019092890182
:10405000A0928A01B0928B01D0938101809154018A
:1040600090915501A0915601B09157018093910113
:1040700090939201A0939301B09394018091530186
:10408000809395018091BA0180937B018091B80162
:104090009091B901C13009F071C080937C01909377
:1040A0007D0110929F0152C09091BF01892B84B96C
:1040B0008091C8015DDE8C018091C9010E942315A9
:1040C000FC01C090A101D090A20180ED97E021ED0C
:1040D00033E0D2E094CE8EE180939601C0939701B5
:1040E000B0CE18B88091C50187B98091BE0185B95D
:1040F000892B84B90091B3011091B4018091C7015B
:1041000037DE081B190B8091C9010E9423159C0101
:10411000D5CE9091BE01892B84B96090B301709087
:10412000B4018091C70124DE681A790A8091C9011F
:104130000E942315FC010091A3011091A401EDCE72
:10414000C814D904EA04FB0408F449CFCDB7DEB79C
:10415000EEE00C94E23B8091C20184B98091C801E9
:1041600007DE60EFC62E6BE2D62E67E0E62EF12C5E
:1041700020E432E44FE050E017EF51CF90937C0100
:1041800080937D0181E080939F01E0CF21E6E216DC
:10419000F104E0F680179107C8F68091C7010E94EC
:1041A00023157C018091C8010E942315E81AF90AA1
:1041B0003AEFE316F10408F0D0C02FE12093960106
:1041C0002D2F246120939701D13009F0BBC0A0911D
:1041D000A301B091A401A057B54E22E020939F0106
:1041E0004AE04E9D90014F9D300D11240E94A33B4B
:1041F000980150E040E00E94653B8091A5019091BC
:10420000A6018217930708F0A5C0281B390B30932D
:104210008301209382018D2F8170982E0091BE0121
:10422000C091C40150E1852ED0FD06C00091BF01B0
:10423000C091C50141E1842EC7708091C90180649D
:1042400080937C000E9461291AE0C12CD12C760158
:10425000AA24AA9433E0B32EA895682D8091C001BA
:104260000E942B168091C301802B84B9992009F4F8
:1042700082C086B18C23E9F704B980917A0080640A
:1042800080937A0080917A0086FDFCCF809178003F
:10429000909179009695879596958795992009F440
:1042A0006EC0C80ED91EE11CF11C1150A9F6C70141
:1042B000B6012AE030E040E050E00E94873BA09148
:1042C000B301B091B4010E94B83B20E034E040E07B
:1042D00050E00E94873B309385012093840180E465
:1042E0008093B001809198018160809398018091C2
:1042F000BA0180937B012091B9019091B801D1302E
:1043000009F045C090937C0120937D0140E06091CD
:104310007D010E9447168091540190915501A09112
:104320005601B09157018093910190939201A0930F
:104330009301B093940180915301809395010E9461
:10434000941204CFA091A101B091A201A057B54E43
:1043500023E044CF30E020E05ACF80E28093960102
:104360008D2F84608093970188E0D13009F089E037
:1043700080939F0150CF86B18C23E9F37DCF9501C7
:10438000281B390BC21AD30AE108F1088ECF2093FB
:104390007C0190937D01BACFB0E0A0E0E2EDF1E2C4
:1043A0000C94C83BA8950E9483158091960181309A
:1043B00009F490C018B88091C50187B98091C701F0
:1043C0000E9423154C018091C10184B985B961E136
:1043D0008091C0010E942B168091C701C9DC5C014D
:1043E0008091BE0184B985B961E18091C0010E94CC
:1043F0002B168091C701BCDC8C018091C8010E9402
:1044000023156C010E94831580919601813009F477
:1044100061C018B88091C50187B98091C7010E9419
:1044200023157C0117B88091C40188B987B915B8E4
:104430008091C20184B960E18091C0010E942B1675
:104440008091C70195DCEC018091C8010E94231581
:10445000C817D90708F443C0C81BD90B0C191D098C
:104460008091BF0184B960E18091C0010E942B1648
:104470008091C7017DDC6C018091C8010E942315E9
:10448000C81AD90A17B8C016D10660F5C8018C1928
:104490009D097401E501893E9340E0F4C630D105E1
:1044A000C8F0CE018E199F09EC16FD0618F0C70161
:1044B0008C1B9D0B23E0E216F10418F08436910565
:1044C00048F0C832D10598F0C80187599109893858
:1044D0009141A8F1CDB7DEB7ECE00C94E43BD0E01D
:1044E000C0E0BCCFC601801B910B8601D4CF15B8AC
:1044F0008091BF0184B98091C40188B987B9809146
:10450000C80136DC7C018091BE0184B98091C5016F
:1045100088B987B98091C7012BDC9C01C70164E190
:1045200070E00E943E3BC701861B970B82179307E2
:1045300058F6E60EF71E2E153F0530F6CBCF8091CC
:104540009601882311F08A3019F484E18093960152
:1045500080919B0196E0899FF0011124E35DFE4F5D
:104560009091B80190839091B90191831383028354
:10457000D583C4838F5F80939B01ACCF0E949A1236
:1045800015B88091BF0184B98091C40187B988B9F9
:104590008091C801EDDB813D934008F0FDCE089588
:1045A000A8E0B0E0E6EDF2E20C94C23BA89518B8A2
:1045B0008091C50187B98091BE0184B985B9809188
:1045C000C801D6DB4C018091C7010E9423159B8353
:1045D0008A8315B88091C10184B98091C701C8DB75
:1045E000459740F58091C10185B98091C701C0DB35
:1045F0006C018091C40187B988B915B88091BF0159
:1046000084B98091C701B4DB2C018091C8010E945C
:1046100023155C018091C20184B98091C801A8DB97
:104620003C012A813B812033314140F452E6C516DA
:10463000D10448F02896E2E10C94DE3B6CE6C61605
:1046400063E1D606B8F789EAA816B10408F071C08C
:1046500096E26916710470F3D60120EF3BE247E061
:1046600050E00E94B83BA091B301B091B401BB836C
:10467000AA839D012C193D0950E040E00E94653B52
:1046800049015A01AA81BB81A619B70920EF3BE273
:1046900047E050E00E94B83B930150E040E00E94A8
:1046A000653BBEEDCB16B3E0DB0638F5F2E0880CD7
:1046B000991CAA1CBB1CFA95D1F7CA01B901680D57
:1046C000791D8A1D9B1D25E030E040E050E00E94EE
:1046D000653B225A3E4F4F4F5F4FAAE0B0E00E9429
:1046E000B83B4B015C01B4E68B169104A104B10404
:1046F00008F4ADC02FEF2F83D4C0EEED6E16E3E0CB
:104700007E0670F4E2E0220F331F441F551FEA9526
:10471000D1F7C501B401620F731F841F951FD3CF5A
:10472000280D391D4A1D5B1D5695479537952795D0
:10473000D0CF2A813B812815390508F47FC04A145F
:104740005B0408F47BC04091B3015091B40142175F
:10475000530721F4215031093B832A832091A3017F
:104760003091A4012057354EAA81BB81A819B909FF
:104770000E94A33BAA81BB814A1B5B0B9A0150E0BC
:1047800040E00E94653B69017A012091A1013091CE
:10479000A2012057354ED201AA19BB090E94A33BA2
:1047A000950150E040E00E94653BEA81FB81EE3DCF
:1047B000F340B0F462E0CC0CDD1CEE1CFF1C6A95EB
:1047C000D1F7CA01B9016C0D7D1D8E1D9F1D25E01D
:1047D00030E040E050E00E94653B49015A0183CF40
:1047E0008EEDA81683E0B806F0F4283F94E239076E
:1047F00091E04907510550F4CA01B90142E0660F42
:10480000771F881F991F4A95D1F7DDCFA9E0B0E047
:104810000E94B83B6C0D7D1D8E1D9F1D2AE030E06F
:1048200040E050E0D8CFC20ED31EE41EF51E460174
:104830005701B694A7949794879455CFAFE8AA16DA
:10484000A2E1BA0608F058C0812C912C540181E0F5
:104850000E940A1B6C01F12CE12CA5019401220F8E
:10486000331F441F551FE5E08E169104A104B104C7
:1048700020F4280D391D4A1D5B1DAAE0B0E00E94FE
:10488000B83B611571058105910521F464E670E07E
:1048900080E090E0C616D706E806F90698F1FFEF2B
:1048A000FF8340919A0148875091B8015983309015
:1048B000B901609196016E8320E0A8852A1738F12E
:1048C000BE81B0939601243609F4B4CEA33008F02B
:1048D000B1CE27E0A29FF0011124E85EFE4F3082A6
:1048E0003981318383829482A582B6824F8142834B
:1048F000AF5FA0939A019ECE2AE0822E912CA12C2C
:10490000B12CA5CF460157013EEF3F83CACFC22E3F
:10491000D12CA7E0AC9DC001AD9D900D1124FC01F0
:10492000E85EFE4F3F018081F9818F138FC0D30174
:1049300011968C9183118AC0E12C02E010E020E0F6
:1049400030E04F81C501B4010E94BF128F3F09F0D2
:1049500072C0F301F280238044805580768002E0AB
:1049600010E020E030E04F2D622D742D852D972D25
:104970000E94BF12682EFFEF8F1320C02F812F11CE
:1049800002C066246394EF80950184014F2D622D4F
:10499000742D852D972D0E94BF12861509F445C0F0
:1049A00037E03C9DF0013D9DF00D1124E85EFE4F87
:1049B00083829482A582B6824F814283240135018D
:1049C000769467945794479457E05C9DF0015D9D01
:1049D000F00D1124E85EFE4FF28083819481A58161
:1049E000B6818A839B83AC83BD83EF80950184016C
:1049F00004191509260937094F2DBC01CD010E9464
:104A0000BF1287FD10C095018401040D151D261DE0
:104A1000371DEF804F2D6A817B818C819D810E94A3
:104A2000BF121816ACF428EC48CFFF82822C942CCD
:104A3000A52CB72CC3CFC501B40124E130E040E080
:104A400050E00E94653B29013A01BECF2F5F35CF70
:104A50009AE09E8324E631CFCF93DF930E949A128F
:104A600017B88091BE0185B99091BF01892B84B997
:104A70008091C7017DD9EC018091C8010E94231566
:104A8000AC012091B3013091B40136952795C9014D
:104A90004E978C179D0760F4225E3F4FC217D307D5
:104AA00038F48417950720F481E04217530708F083
:104AB00080E014B8DF91CF910895CF9361E080E05A
:104AC000CBDFC82F62E080E0C7DFC80F62E081E083
:104AD000C3DF8C0FCF910895B0E0A0E0E2E7F5E2EC
:104AE0000C94C23B382E212C882311F053E0252E44
:104AF000E4DF281609F482C04090D2015090D3011F
:104B00000E9486118FEF9FEF9093D3018093D20183
:104B1000332009F479C047E059E062E083E00E9465
:104B2000E41080EE9FEF9093D3018093D2014CEF7D
:104B300058E063E084E00E94E4100E948B0E332072
:104B400009F451C08FEDE82E88E0F82E08ED18E04A
:104B5000CDE1D0E09EE4692E712C28E5C22ED12C47
:104B600036E6A32EB12C40E7842E912CF7018491D8
:104B7000813009F452C0823009F052C08FE190E0D8
:104B8000D093E001C093DF019E01285F3F4F309337
:104B9000DE012093DD017092DC016092DB01D09296
:104BA000DA01C092D9010E94FE0CF8018491882399
:104BB00081F08130C1F18230C9F58FE190E0B0928F
:104BC000DC01A092DB019092DA018092D9010E946F
:104BD000FE0CFFEFEF1AFF0A2F960F5F1F4FC6382C
:104BE000D10509F0C3CF5092D3014092D20165DFC5
:104BF00028121FC088EC90E00E94BE1381E0CDB760
:104C0000DEB7E2E10C94DE3B41EF58E062E083E086
:104C10000E94E41046EE58E08CCF80E098EFB0CFD1
:104C200080EE9FEFADCF80E098EFC9CF80EE9FEF91
:104C3000C6CF60E184E690E00E94F61C91E0391254
:104C4000D6CF8823A1F280E0DACFCF93C82F2ED31E
:104C50008C2F0E942315CF9108958F929F92BF921F
:104C6000CF92DF92EF92FF920F931F93CF93DF9338
:104C700090919601913009F491C2A8950E94341246
:104C800015B88091BF0184B98091C40187B988B9F2
:104C900060E18091C0010E942B168091C80168D804
:104CA0008C018091BF019091C001892B84B98091C2
:104CB000C8015ED82091BF0124B98017910720F464
:104CC0008530910508F488C2013D23E01207F0F019
:104CD00061E18091C0010E942B168091C80148D8E3
:104CE0008C019091C00195B98091BF01892B84B945
:104CF0008091C8013DD815B82091BF0124B9801713
:104D0000910720F48530910508F466C20031110541
:104D100008F49EC180919801811195C128EEC22EA0
:104D2000DD24D3940B3E31E0130718F498E2C92E2A
:104D3000D12C8091BF019091C301892B84B98091BE
:104D4000C80183DFEC018091C30185B98091C8015E
:104D50007CDF7C01EC1AFD0A9E012C0D3D1D2817FD
:104D6000390708F07AC08091C00184B985B918B8B4
:104D70008091C50187B98091C90167DF17B8C397D2
:104D8000BB24B3948938924018F0269708F0B12CD0
:104D90008091C40187B98091C90157DFEC018091EE
:104DA000C7010E94231517B88C179D0738F4C81B3C
:104DB000D90BC23CD14010F4BB24B3948091C501FF
:104DC00088B987B98091BE019091C301892B84B9BC
:104DD00015B88091C70139DFEC018091C30185B915
:104DE0008091C70132DF8C1B9D0BEC0118B88091BC
:104DF000C50187B98091BE019091C301892B84B907
:104E000085B98091C90121DF88349F40F8F089E19C
:104E10008093970184E080939F018FE180939601B6
:104E2000809198018160809398014091BA014093EC
:104E30007B018091B9019091B801CE15DF0508F48E
:104E400082C080937C0190937D0181C0B11005C028
:104E500089E28093970186E0DECF18B88091C50182
:104E600087B98091BE019091C301892B84B985B91E
:104E70008091C701EADEEC018091BE0185B9809185
:104E8000C701E3DE4C01C601880D991D8C179D07F3
:104E900008F0D9C0E090B301F090B4018091C00156
:104EA00084B915B88091C40187B988B98091C901C6
:104EB000CCDE18B88D5C9041BB24B3948938924005
:104EC00048F08CE0E81AF108BB24B394CE15DF0556
:104ED00008F4B12CC819D9098091C40187B980910F
:104EE000BF019091C301892B84B985B98091C80114
:104EF000ACDE7C018091BF0185B98091C801A5DE3F
:104F0000E81AF90AD694C794EC14FD0428F09E2DF3
:104F10008F2D7E01C92FD82F15B88091C40188B973
:104F200087B98091C90191DE813D934028F48AE1DF
:104F30008093970185E06FCFB11085C08AE280939E
:104F4000970187E068CF90937C0180937D01C70132
:104F500062E370E00E943E3BC701861B970BC817B7
:104F6000D90750F06E0D7F1D6C177D0728F08091DA
:104F7000970180648093970160917D0180917C010D
:104F80000E9434128091C5019091C601892B87B986
:104F90009091BE0194B92091970120FF0BC118B8E0
:104FA00095B9C091B301D091B4018091C7014DDE94
:104FB0009E01281B390BC9014091A3015091A40106
:104FC0004057554E9C01A0E1B7E20E94A33B9A01D5
:104FD00050E040E00E94653B20938C0130938D01AE
:104FE00040938E0150938F018AEF809390018091BE
:104FF000C2019091C301892B84B99091C40197B9E2
:105000002091970120FFE0C015B898B950D1809148
:10501000C8010E942315EC018091C9010E9423154B
:105020008C1B9D0B909387018093860120919701A3
:1050300020FFCDC080549D4E813C924120F01092C3
:10504000870110928601013D33E0130708F0FFC08D
:1050500080919801811196C08091BF0184B915B8E3
:105060008091C40187B988B923D18091BF01909103
:10507000C001892B84B98091C8010E94B81E8F3568
:105080009D4020F0B80182E00E94C11E80919801ED
:10509000811178C08091C50187B918B88091BE018F
:1050A0009091C001892B84B985B98091C7010E9474
:1050B000B81E8034964008F065C08091C9010E94F6
:1050C0002315EC018091C8010E9423157C0160E149
:1050D0008091C0010E942B168091C7010E94B81ECA
:1050E0006C0115B8E5D08091BE0185B98091C701EA
:1050F0000E94B81E20E4C21626E0D20608F09DC029
:105100008133914108F499C014B815B88091C50154
:1051100088B9CED08091BE0184B98091C7010E9428
:10512000B81E853F910508F088C060E18091C001FC
:105130000E942B168091C7010E94B81E6C018DED54
:10514000C81682E0D80608F049C082E28093960132
:10515000809198018160809398018AE080939F01FB
:105160008091BA0180937B018091B80180937C018A
:105170008091B90180937D01CE19DF09D09383011D
:10518000C093820180919601882319F08A3009F03A
:1051900060C006DA17B818B814B815B8DF91CF9107
:1051A0001F910F91FF90EF90DF90CF90BF909F9055
:1051B0008F90089588B915B88091C70146DD409158
:1051C000A1015091A201FCCE85B918B81FCF813C36
:1051D000924108F034CF37CF8C013ACF8091BE0195
:1051E00085B966D015B88091C7010E94B81E853F69
:1051F000910518F580919601813229F480919801EA
:1052000081608093980181E2809396018BE0809386
:105210009F0180918801909189018C159D0508F06E
:10522000B9CFC601B0E0A0E08093880190938901D6
:10523000A0938A01B0938B0193CF80919601813224
:1052400009F4A8CFB80181E00E94C11E9BCFA4D869
:1052500099CF8F3109F09ECF9091970194FF9ACF0B
:1052600080917C0160917D0190FD03C0962F682F95
:10527000892F0E94B311892B09F48CCF10929601CB
:1052800010929701809198018E7F8093980182CF30
:1052900003D002D001D000D000D003D002D001D082
:1052A00000D0A89500D003D002D001D000D000D00B
:1052B00003D002D001D000D000D003D002D001D062
:1052C00000D000D003D002D001D000D000D003D055
:1052D00002D001D000D000D000000000000000008B
:1052E00000000895AFE4B0E0E8E7F9E20C94C23BB7
:1052F00080E48AB98BB980E886BF9CE496BF80932E
:10530000610091E090936100000000008093F20042
:1053100087E98093F2008FEF8EBB8EB381116DC051
:105320008FEF8EBB8EB381116BC080E88093F2004B
:1053300087EB8093F2008FEF8EBB8EB3811163C039
:105340008FEF8EBB8EB3811161C080E880936100C6
:105350001092610084EF91E00E94B41380E185BF58
:1053600087E880937A0084B7887094B7977F94BF5A
:105370000FB6F894A89590916000986190936000A2
:10538000109260000FBE1092AC0192E09093AD01BC
:105390009AB194619AB99BB19B7E9BB99091AC01F3
:1053A00098609093AC019AB193609AB99AB1976161
:1053B0009AB99BB1987E9BB95898882351F10E9465
:1053C000861180E098EF9093D3018093D20180ED15
:1053D00098E00E94D1110E94C51D89EC98E00E94BE
:1053E000D11180ED97E00E94BE135E9890E080E0BE
:1053F000C15BDF4FE2E10C94DE3B8EB381508CCF7A
:105400008EB381508ECF8EB3815096CF8EB38150A4
:1054100098CF10E04F9BC4C18091AC0180FF05C0C4
:105420008091AD0180628093AD0180E590E00E94A3
:10543000B413589A86E990E00E94B41381E00E9468
:10544000E40C86E990E00E94B41386E30E94E40C29
:10545000599A80E60E94CF0C8AE30E94E40C599A84
:1054600085E00E94CF0C1092E0011092DF018FE9DD
:1054700090E09093DE018093DD011092DC011092A8
:10548000DB018FE790E09093DA018093D9010E94CD
:10549000E60C83E790E00E94B41381E10E94E40CE3
:1054A00088E790E00E94B41380E18093CF0188E008
:1054B0008093D00183E08093D50182E08093D60170
:1054C0008FEF9FEF9093CB018093CA010E948611CA
:1054D00089E20E94E40C1092CC018FEF97E0909348
:1054E000D3018093D2011A3609F066C10E94AB1233
:1054F0000E9486112FEF3FEF48E26BEB78E080ECE3
:1055000098E00E94D40F2FEF37E04CE470E060E0A9
:105510008BEA98E00E94D40F2FEF37E04EE570E061
:1055200060E08DE998E00E94D40F8FEF9FEF909399
:10553000D3018093D20160E080E197E20E94F61CE3
:1055400089E18093AE0181E08093AF018093B00147
:1055500089E893E19093B4018093B30188E19FE0DF
:105560000FB6F894A895809360000FBE90936000EA
:1055700078941092960110929701109298011092CF
:10558000990110929B0110929A0110928101109240
:105590008301109282011092850110928401109271
:1055A0008701109286011092880110928901109251
:1055B0008A0110928B0110928C0110928D01109231
:1055C0008E0110928F011092090110920801109221
:1055D0000B0110920A0123E02093D40117B882E056
:1055E0008093CC010E9486118091CD008093C800E9
:1055F0008091A801082E000C990B9C5F9093B2013A
:105600008093B10189E18093AE010E949A1C0091C0
:10561000B5011091B601C090D201D090D3018FEFA7
:105620009FEF9093D3018093D2014FEC50E062E062
:1056300084E00E94E41049EC50E063E082E00E94C4
:10564000E41063E087E00E94A10C083E33E01307FA
:1056500008F0D9C080EE9FEF9093D3018093D201E0
:105660004EEB50E063E087E00E94E4100E948B0E56
:10567000D092D301C092D20184EF91E00E94BE1378
:105680000E94831580919601813009F468C042E040
:1056900061E080E0E2DA42E060E081E0DEDA41E011
:1056A00062E080E0DADA41E060E082E0D6DA40E011
:1056B00062E081E0D2DA40E061E082E0CEDA80911F
:1056C00099018823E1F09091980190FD18C091FD17
:1056D00004C0909196019E3190F480939601809140
:1056E000050180937B018091060180937C0180916C
:1056F000070180937D018091A00180939F0180919B
:105700009601803209F4F6C008F0E4C095E423E481
:1057100032E48E3131F08F3109F4E5C090E020E0C1
:1057200030E030937E0120937F01909380018823A5
:1057300011F08A30A1F40E94CF1183E40E947C1002
:1057400040E060E082E00E94471641E061E082E0D4
:105750000E94471642E060E081E00E9447160E94E6
:10576000861133E03093CC01809196018E3109F49B
:10577000CEC308F090C18A3009F4F0C408F0C3C069
:10578000813009F479C20E94F71095C21F5F153667
:1057900039F41AE68091AC0181608093AC013CCE73
:1057A00084E190E00E94BE134F9BF0CF103110F4C3
:1057B00011E032CE12E0EECF0E949E128093AB0138
:1057C0004BE050E060E070E081EA91E00E94EF3A47
:1057D0000E949E129091AB01992309F489CE8917FA
:1057E00009F486CE0E94861180EA90E00E94D111D1
:1057F0000E94C51D89EC98E00E94D11188E893E1D0
:105800000E94BE1373CE44E6B42E083640E114075E
:1058100008F032C0053E8CE0180708F459C021E0BA
:1058200030E0F901EE0FFF1FE055FF4FE590F490D7
:105830000E151F0508F446C0D9011197FD01EE0FA2
:10584000FF1FE055FF4F45915491A755BF4FFD01F4
:10585000A491F901E755FF4FB49098012E193F0923
:10586000AB19BB0B0E94B23B4E195F099A0150E085
:1058700040E00E94653BB20EC8016AE070E00E9401
:105880003E3B90E080E026E54EEF0E94BF1B0E9469
:10589000CF11F8E280EE97E0FB1538F024E180EEBE
:1058A0009FEF2B1510F080E098EF9093D301809339
:1058B000D2016B2D70E090E080E025E240E00E9494
:1058C000BF1BD4CE2F5F3F4F2730310509F0A9CF42
:1058D000B12CD2CF813289F093E421E4843208F0F4
:1058E0001DCF37E41ECF9091970196FF09C098E72E
:1058F00028E7F7CF95E423E4F4CF91E322E3F1CF57
:1059000093E524E4EECF8B3009F4D0C0843109F064
:105910003ACF8090D2019090D3018FEF9FEF909378
:10592000D3018093D20143EE50E062E082E00E9416
:10593000E41010919B01123048F00E94CF1188E7CB
:105940000E947C1080E3810F0E947C1063E082E063
:105950000E94A10C85E50E947C1086E60E947C10C6
:105960008DE30E947C1060912F017091300190E0D6
:1059700080E026E54DEF0E94BF1B60912E018091D3
:105980002D010E94580E86E490E09093E0018093F0
:10599000DF0188E490E09093DE018093DD010CE468
:1059A00010E01093DC010093DB01ACE5EA2EF12C52
:1059B000F092DA01E092D90180EE97E00E94FE0CAD
:1059C00089E490E09093E0018093DF011093DE0181
:1059D0000093DD018EE490E09093DC018093DB0185
:1059E000BAE5CB2ED12CD092DA01C092D90180EE4B
:1059F00097E00E94FE0C8DE490E09093E00180938C
:105A0000DF0180E590E09093DE018093DD019093CB
:105A1000DC018093DB0188E5A82EB12CB092DA017D
:105A2000A092D90180EE97E00E94FE0C81E590E003
:105A30009093E0018093DF0184E590E09093DE0194
:105A40008093DD0182E590E09093DC018093DB019F
:105A500086E590E09093DA018093D90180EE97E09B
:105A60000E94FE0CB092E001A092DF01D092DE0114
:105A7000C092DD011093DC010093DB01F092DA01AA
:105A8000E092D90180EE97E00E94FE0C9092D30143
:105A90008092D20110C1803209F451C308F410C3BE
:105AA000833208F070CE0E94F61D05C100915401AA
:105AB000109155012091560130915701609162017A
:105AC000709163018091640190916501E0905301B0
:105AD000409161010E94BF1231E5C32E31E0D32E07
