:100000000C94A10C0C94CA0C0C94CA0C0C94CA0C41
:100010000C94CA0C0C94CA0C0C94CA0C0C94CA0C08
:100020000C94CA0C0C94CA0C0C94CA0C0C94CA0CF8
:100030000C94CA0C0C94CA0C0C94CA0C0C94CA0CE8
:100040000C94CA0C0C94CA0C0C94CA0C0C94CA0CD8
:100050000C94CA0C0C94CA0C0C94CA0C0C94CA0CC8
:100060000C94CA0C0C94CA0C666F756E6421004E19
:100070006F20636F6D706F6E656E740052647300F5
:1000800043677300567468002D6368006465702EC2
:1000900000656E682E00565F47540053435200427D
:1000A000796521006F6B007765616B006C6F77007D
:1000B0006578740042617400426174746572793FBE
:1000C000004300495F52002D022D002D012D0049F3
:1000D00063656F005662650068464500504E5000EB
:1000E0004E504E00565F4753286F6666290049649C
:1000F000737300464554004D4F5300494742540026
:10010000565400505554002D06072D00495F6C00D1
:100110002D032D00000010000000100E0000100143
:100120000000900000009000000090000018900077
:1001300000189000001808010018040E00180200B2
:10014000001801000098000000580000003800006E
:10015000FE1F000000380000005800001E98040038
:100160002218070022180700229807001E18880F7F
:100170002218900022189000220090001E00900784
:100180000000900000009000000090000000900F20
:1001900000000000000010000000900F0000900020
:1001A00000009000000090000000900700189000F0
:1001B00000189000001889000018870F0018070029
:1001C00000180F00009800000058000000380000E0
:1001D000FE1F000000380000005800001E980000BC
:1001E0002218010022180200221804001E18080E0E
:1001F0002218100122189000220090001E0090008A
:100200000000900000009000000010010000100E9F
:1002100000000000000010000000900300009004A7
:10022000000090080000900800009008003090083E
:100230000030900800F69F0400368003003600006E
:100240001C060000220600000236020002360300EF
:1002500002F61F003A361300223612002206100062
:100260001C0610000036100000361000FEF71F07B5
:10027000003090080030900000009000000010074F
:10028000000010080000100800009008000010078F
:10029000000000000000100000001007000090089F
:1002A00000009000000090000000100700301008CF
:1002B00000301008FEF79F080036100700361000C7
:1002C0001C06100022061000023611000236130030
:1002D00002F61F003A360300223601002206000013
:1002E0001C060000003600000036000000F69F03E8
:1002F0000030900400309008000090080000900842
:100300000000900800009008000090040000900396
:1003100000000000000010000000900300009004A6
:10032000000090080000900800009008003090083D
:100330000030900800F69F0400368003003600006D
:100340001C3600002236000002360200023603008E
:1003500002F61F003A361300223612002236100031
:100360001C3610000036100000361000FEF71F0784
:10037000003090080030900000009000000010074E
:10038000000010080000100800009008000010078E
:10039000000000000000100000001007000090089E
:1003A00000009000000090000000100700301008CE
:1003B00000301008FEF79F080036100700361000C6
:1003C0001C361000223610000236110002361300CF
:1003D00002F61F003A3603002236010022360000E2
:1003E0001C360000003600000036000000F69F03B7
:1003F0000030900400309008000090080000900841
:100400000000900800009008000090040000900395
:1004100000000000000010000000900300009004A5
:10042000000090080000900800009008003090083C
:10043000003090080030900400F09F031C30000052
:1004400022300000023000000230000002300000C4
:100450003A30000022300000223000001C30000042
:100460000031000000330000FEFF1F0000331007C2
:10047000003190080030900000009000000010074C
:10048000000010080000100800009008000010078D
:10049000000000000000100000001007000090089D
:1004A00000009000000090000000100700301008CD
:1004B0000032100800339008FEFF1F0700330000D1
:1004C000003200001C30000022300000023000002A
:1004D00002300000023000003A30000022300000FC
:1004E000223000001C30000000F01F00003090039C
:1004F0000030900400309008000090080000900840
:100500000000900800009008000090040000900394
:1005100000000000000010000000100E000010019C
:10052000000090000000900000009000003090005B
:1005300000309000003610010036080E003604002E
:10054000003602000036010000B600000076000010
:10055000FE3700000076000000B600001C360900DF
:1005600022360E0002360E0002360F000236900FC1
:100570003A30900022309000220090001C0090073A
:100580000000900000009000000090000000900F1C
:1005900000000000000010000000900F000090001C
:1005A00000009000000090000000900700309000D4
:1005B000003090000036920000368E0F00360E009C
:1005C00000361E000036010000B600000076000074
:1005D000FE3700000076000000B600001C36010067
:1005E0002236020002360400023608000236100EDF
:1005F0003A30100122309000220090001C00900040
:100600000000900000009000000010010000100E9B
:100610000000000000007100000089000000890057
:10062000000089000000F900000089000000890036
:1006300000008900000001000000010000FFFF0130
:1006400000FEFF0000FC7F0000F83F0000F01F00EC
:1006500000E00F001CC00700228003000200010020
:1006600002FFFF013AFFFF0122800100224001004A
:100670001C20E1000010110000080900FE0709001D
:100680000000090000000900000011000000E10066
:1006900000000000000001000000490000004900C7
:1006A0000000490000004900000049000000490026
:1006B0000000010000000100C0FFFF07C0FFFF07AE
:1006C0000008FE03001CFE03001CFC01003EFC01B0
:1006D000003EF800007FF800007F70008CFF700083
:1006E00092FF2000C2FFFF07DAFFFF071208010098
:1006F0000C0401000002110000011100FE001100B5
:1007000000001100000011000000110000000100B5
:100710000000000000007100000089000000890056
:1007200000008900FE07F900000889000010890018
:100730001C208900224001000280010002FFFF010D
:100740003AFEFF0022FC7F0022F83F001CF01F0051
:1007500000E00F0000C0070000800300000001005F
:1007600000FFFF0100FFFF01000001000000010089
:100770000000E10000001100000009000000090075
:100780000000090000000900000011000000E10065
:100790000000000000001000000090040000900421
:1007A00000009004000090040000900400309004C9
:1007B000003090043E30100040F21F0080330000F3
:1007C00080330000C0330000003400003E380000D9
:1007D0000230000002300000023000001E30000035
:1007E000023000000230000002F01F003E30100016
:1007F0000030100100301001000010010000100155
:1008000000001001000010010000100100001000A5
:100810000000000053656C6563740053686F7720B7
:1008200056616C7565730041646A7573746D656EAD
:100830007400546573740052682B0052682D002BAD
:1008400052682D002B526C2D003132203133203272
:1008500033005A656E6572004952206465746563A1
:10086000746F72004E6F6E6500547269616300565A
:100870006600745F6F666600745F6F6E00496600A5
:1008800043545200424A54005374617274004F70D2
:10089000746F20436F75706C657200646F6E6521B4
:1008A00000487A006400FA00F401E803C4098813E0
:1008B0001027A86150574D0050726F62696E672E05
:1008C0002E2E0076312E35376D00436F6D706F6EB2
:1008D000656E74205465737465720054696D656F3C
:1008E00075740053686F727420436972637569741C
:1008F00021004372656174650052656D6F76650015
:100900004C6F61640053617665004578697400231B
:1009100032002331004572726F72210043686563B3
:100920006B73756D0041436F6D70005663630056C5
:100930007265660052300043300052692B005269E4
:100940002D0001041002082001020400010281119F
:10095000530F940D260CF40AF00911095008A6074C
:100960000F0789061006A3053F05E404910443041C
:10097000FC03B9037A033F030703D1029E026D0211
:100980003E020F02E101B20182014E010F01EE5958
:10099000CB52AD4C6047BC42A43E003BBF37D03485
:1009A0002932C02F8C2D872BAC29F5275E26E52414
:1009B00085233D220A21EA1FDC1EDD1DED1C0A1CD9
:1009C000331B681AA719F01841189B17FD166516F6
:1009D000D5154A15C6144714CD135813E7127B12C8
:1009E0001312AE114E11F0100000BA038703580322
:1009F0002E030703E402C302A402880266706E0598
:100A00006D006B4D050A0605060A050A0609060A69
:100A1000050A0609060A050A0609060A050A060560
:100A2000060A050A06050A06090A06090A065243C5
:100A30002D360052432D35005368617270005349C2
:100A400052430053616D73004D6F74004B6173002E
:100A50004D6174004A56430050726F74004E454316
:100A60000000000000000000000000000000000086
:100A70000000000000000000000000000000000076
:100A80000000000000820086008E009E00BE00FF75
:100A900003BE009E008E0086008200000000000061
:100AA00000000000008200C200E200F200FA00FF35
:100AB00003FA00F200E200C2008200000000000021
:100AC00000000000008601860186018601860187FC
:100AD0000386018601860186018601000000000070
:100AE00000000078008400020102010201020102FC
:100AF0000184004800480048008601000000000012
:100B0000000000000000000000000082008200825F
:100B100000820082008200C600BA000200020002C9
:100B20000000000000FE03020002000200020003B9
:100B3000000200020002000200FE030000000000AC
:100B40000000000000FF01000100010001000100A1
:100B5000030001000100010001FF0100000000008E
:100B60000044000000000010003800280048004445
:100B7000008400FE000201020101020000000000EA
:100B8000004400000000007800840002010201021D
:100B9000010201020102018400780000000000004F
:100BA0000044000000000082008200820082008277
:100BB0000082008200820044003C0000000000002F
:100BC0000000001C0022002200220012001200126D
:100BD000002200420082008200720000000000003B
:100BE00000000000002400000000003C0040004025
:100BF000007800440042006200DC000000000000B9
:100C000000000000002400000000003800440082C2
:100C100000820082008200440038000000000000D2
:100C200000000000002400000000004200420042DA
:100C30000042004200420062005C00000000000030
:100C4000000000100028001000000000000000005C
:100C50000000000000000000000000000000000094
:100C60000000000000000000000000000000000084
:100C70000000000000000000000000000000000074
:100C800000000010001000100010001000100010F4
:100C90000010001000000010001000000000000014
:100CA0000000004400440044004400000000000034
:100CB0000000000000000000000000000000000034
:100CC0000000009000900048004800FE0148002409
:100CD00000FF0124002400120012000000000000A8
:100CE000002000F8002C00240024002800300060C0
:100CF00000E000A000A000A4007C00200000000094
:100D00000000000E021101910051004E0020001061
:100D100000C801280224022202C1010000000000D4
:100D2000000000380044004400640038000C001249
:100D300002310221014101C200FC0100000000005B
:100D40000000001000100010001000000000000063
:100D50000000000000000000000000000000000093
:100D6000000000800160003000100008000800084A
:100D7000000800080008001000300060008001003A
:100D80000000000600180030002000400040004035
:100D90000040004000400020003000180006000025
:100DA00000000010001000D6006C00280038002859
:100DB0000000000000000000000000000000000033
:100DC00000000000000000000000001000100010F3
:100DD000001000FF011000100010000000000000D3
:100DE0000000000000000000000000000000000003
:100DF000000000000000001800180010001000089B
:100E000000000000000000000000000000000000E2
:100E100000FC0000000000000000000000000000D6
:100E200000000000000000000000000000000000C2
:100E30000000000000000018001800000000000082
:100E400000000000018000800040004000200020E1
:100E50000010001000080008000400040002000058
:100E600000000038004400440082008200820082BA
:100E700000820082004400440038000000000000AE
:100E800000000010001E00100010001000100010E4
:100E9000001000100010001000FE00000000000014
:100EA0000000003E004200400040004000200020C2
:100EB0000010000800040002007E00000000000096
:100EC0000000003C0040004000400040003800406E
:100ED0000040004000400040003C000000000000D6
:100EE00000000020003000280028002400220022FA
:100EF000002100FF00200020002000000000000072
:100F00000000007C000400040004001C00200040DD
:100F10000040004000400020001C000000000000D5
:100F200000000078000400040002003A004600823D
:100F300000820082008200440038000000000000AF
:100F4000000000FE00800040002000200010001083
:100F50000008000800080004000400000000000071
:100F60000000007C0082008200820064001800649F
:100F70000042008200820042003C000000000000AD
:100F8000000000380044008200820082008200C419
:100F900000B8008000400040003C0000000000005D
:100FA0000000000000000000000000180018000011
:100FB0000000000000000018001800000000000001
:100FC00000000000000000000000001800180000F1
:100FD00000000000000000180018001000100008B9
:100FE00000000000000000000000000001C0003010
:100FF000000C000C003000C00000010000000000E8
:10100000000000000000000000000000000000FEE2
:101010000100000000FE01000000000000000000D0
:10102000000000000000000000000002000C003082
:1010300000C000C00030000C0002000000000000F2
:101040000000007E00C200820080004000200010EE
:101050000008000800000008000800000000000070
:1010600000000078008400E200930089008900C934
:1010700000C900E900B20346007C00000000000047
:101080000000000000000010003800280048004464
:10109000008400FE000201020101020000000000C5
:1010A000000000000000007E008200820042003E3E
:1010B0000042008200820082007E000000000000EA
:1010C00000000000000000F800860002000100019E
:1010D000000100010002000600F80000000000000E
:1010E000000000000000003E0042008200820082FA
:1010F0000082008200820042003E000000000000EA
:1011000000000000000000FE0002000200020002D9
:10111000007E00020002000200FE0000000000004D
:1011200000000000000000FE0002000200020002B9
:10113000007E000200020002000200000000000029
:1011400000000000000000F0010C01040002000299
:1011500000C201020104010C01F0010000000000C6
:1011600000000000000000820082008200820082F5
:1011700000FE008200820082008200000000000069
:1011800000000000000000FE001000100010001021
:10119000001000100010001000FE00000000000011
:1011A00000000000000000780040004000400040C7
:1011B0000040004000400040003C000000000000F3
:1011C0000000000000000082004200220012000E19
:1011D000000A00120062008200020100000000000C
:1011E00000000000000000020002000200020002F5
:1011F000000200020002000200FE000000000000E9
:1012000000000000000000C300C300C700A500A547
:1012100000AD0099009900810081000000000000ED
:1012200000000000000000820086008A008A009210
:10123000009200A200A200C2008200000000000094
:10124000000000000000007800840002010201029A
:101250000102010201020184007800000000000088
:10126000000000000000007E008200820082004238
:10127000003E000200020002000200000000000028
:10128000000000000000007800840002010201025A
:101290000102010201020184007800400080010087
:1012A000000000000000003E004200420042002218
:1012B000001E001200220042008200000000000018
:1012C00000000000000000FC008200020006001880
:1012D00000600080008000C2003E000000000000AE
:1012E00000000000000000FF0110001000100010BE
:1012F000001000100010001000100000000000009E
:101300000000000000000082008200820082008253
:101310000082008200820044003C000000000000C7
:1013200000000000000000010202010201840084AC
:101330000044004800480030003000000000000079
:10134000000000000000000102010212013201321F
:10135000012A014A01CC00CC0084000000000000FA
:10136000000000000000000102020184004800307B
:10137000003000480084000201010200000000006B
:101380000000000000000001020201840044002867
:1013900000100010001000100010000000000000FD
:1013A00000000000000000FE01000180004000205D
:1013B000001000080004000200FE01000000000010
:1013C000000000F8000800080008000800080008F5
:1013D00000080008000800080008000800F80000E5
:1013E00000000002000400040008000800100010C3
:1013F000002000200040004000800080000001002C
:101400000000003E002000200020002000200020DE
:10141000002000200020002000200020003E0000CE
:1014200000000020002000300050005800480088D4
:1014300000840084000201000000000000000000A1
:10144000000000000000000000000000000000009C
:101450000000000000000000000000FF030000008A
:10146000001000200000000000000000000000004C
:10147000000000000000000000000000000000006C
:1014800000000000000000000000003C00400040A0
:10149000007800440042006200DC00000000000010
:1014A00000000002000200020002007A00460082F2
:1014B0000082008200820046003A00000000000026
:1014C0000000000000000000000000F8000400021E
:1014D000000200020002000400F80000000000000A
:1014E0000000008000800080008000B800C40082FE
:1014F00000820082008200C400BC000000000000E6
:10150000000000000000000000000078008400825D
:1015100000FE00020002000400F8000000000000CD
:10152000000000E001180008000800FE01080008A3
:101530000008000800080008000800000000000083
:101540000000000000000000000000B800C400829D
:1015500000820082008200C400BC00800040003C89
:10156000000000020002000200020072008A0086F1
:1015700000820082008200820082000000000000E1
:1015800000000018001800000000001E00100010ED
:1015900000100010001000100010000000000000FB
:1015A00000000030003000000000003C002000205F
:1015B0000020002000200020002000200020001E2D
:1015C000000000020002000200020082006200121D
:1015D000000E000A003200420082000000000000FD
:1015E0000000003C002000200020002000200020FF
:1015F000002000200020002000200000000000004B
:101600000000000000000000000000CD00330111C8
:10161000011101110111011101110100000000006F
:10162000000000000000000000000072008E008634
:101630000082008200820082008200000000000020
:10164000000000000000000000000038004400829C
:101650000082008200820044003800000000000088
:1016600000000000000000000000007A0046008238
:101670000082008200820046003A0002000200025E
:101680000000000000000000000000B800C400825C
:1016900000820082008200C400BC008000800080C4
:1016A0000000000000000000000000E40094008C36
:1016B0000004000400040004000400000000000016
:1016C00000000000000000000000007C000200029A
:1016D000000C003000400042003E0000000000000E
:1016E0000000000000000008000800FE00080008DC
:1016F000000800080008000800F0000000000000DA
:101700000000000000000000000000420042004213
:101710000042004200420062005C00000000000045
:1017200000000000000000000000000101820082B3
:1017300000420044002400280018000000000000BF
:101740000000000000000000000000010211023251
:101750000132014A014A01CC00840000000000006F
:1017600000000000000000000000000201840048AA
:10177000003000300048008400020100000000003A
:101780000000000000000000000000010202010251
:101790000184004C004800300030001000080007B1
:1017A0000000000000000000000000FE018000407A
:1017B000002000100008000400FE010000000000EE
:1017C000000000E0001000100010001000100010D9
:1017D000000C0010001000100010001000E00000CD
:1017E0000000001000100010001000100010001089
:1017F0000010001000100010001000100010000079
:101800000000001C002000200020002000200020FC
:1018100000C000200020002000200020001C00004C
:101820000000000000000000000000000000000EAA
:10183000023102C1010000000000000000000000B1
:1018400000FF01020304050607FFFFFFFFFFFFFF84
:10185000FFFFFFFFFFFFFFFFFFFFFFFFFFFFFFFF98
:10186000FF101112131415161718191A1B1C1D1E20
:101870001F202122232425262728292A2B2C2D2E00
:101880002F303132333435363738393A3B3C3D3EF0
:101890003F404142434445464748494A4B4C4D4EE0
:1018A0004F505152535455565758595A5B5C5D5ED0
:1018B0005F606162636465666768696A6B6C6D6EC0
:1018C000FFFFFFFFFFFFFFFFFFFFFFFFFFFFFFFF28
:1018D000FFFFFFFFFFFFFFFFFFFFFFFFFFFFFFFF18
:1018E000FFFFFFFFFFFFFFFFFFFFFFFFFFFFFFFF08
:1018F000FF0FFFFFFFFF05FFFFFFFFFFFFFFFFFFE2
:10190000FFFFFFFFFF08FFFFFFFFFFFFFFFFFFFFDE
:10191000FFFFFFFFFFFFFF09FFFFFFFFFF0AFFFFC2
:101920000BFFFFFFFF0CFFFFFFFFFFFFFFFFFFFFAE
:10193000FFFFFFFFFFFFFF0DFFFFFFFFFF0EFFFF9A
:10194000FF0011241FBECFEFD8E0DEBFCDBF14BE15
:101950000FB6F894A895809160008861809360002C
:10196000109260000FBE11E0A0E0B1E0ECEDF6E7F0
:1019700002C005900D92A630B107D9F721E0A6E08C
:10198000B1E001C01D92AF3EB207E1F70E946C29A1
:101990000C946C3B0C9400008093CE016093CF01BB
:1019A0006150603190F441E050E0062E02C0440FD7
:1019B000551F0A94E2F72091C3013091C401242BF2
:1019C000352B3093C4012093C30181502AE0829FBC
:1019D000C001112401969093CC018093CB0180E14A
:1019E000689FB00111246E5F7F4F7093C8016093B0
:1019F000C70108958150E82FE695E695E695877032
:101A0000F0E0E454FE4F9081282F392F330F21113D
:101A10001AC038E0381B80E021E0880F97FD816014
:101A2000990F321302C0918131962F5F6217A8F788
:101A3000413041F4982F80E0880F90FD81609695A9
:101A40006150D1F708952150932FDFCF282F6B30AD
:101A500028F095E041FD08C093E006C093E040FF08
:101A600091E0691708F4962F862F891B281720F01C
:101A7000960F81E0921708F480E00895B0E0A0E0AE
:101A8000E4E4FDE00C94383B762E642E522E5C018B
:101A9000912CD0E08CEBC82E81E0D82EC0E011E074
:101AA000F12C711610F48F2D2AC0F50181905F0181
:101AB00010FD1FC0DF5FF394CC0F4E2D652D882DD8
:101AC000C5DF811107C04E2D602F882DBFDF882311
:101AD000B1F0C160D83059F4F601C0839394F5E0B9
:101AE000F91518F08FEFC81AD80AD0E0C0E01F5FD0
:101AF000D8CF4E2D662D882DA9DF8111F8CFD111B9
:101B000007C0CDB7DEB7EFE00C94543BCC0FDF5FDE
:101B1000D830E0F3F601C083F4CFB0E0A0E0E3E911
:101B2000FDE00C94373B6C01E62E722E602E42FBDA
:101B3000002700F9522E550C812CD0E08CEBA82EFA
:101B400081E0B82EC0E0FF24F39410E04270942EA0
:101B5000EF1440F4D1115EC0812FCDB7DEB7E0E1C4
:101B60000C94533BF6014080462D672D842D6EDF8B
:101B700081111AC0462D652D842D68DF8823C1F0A0
:101B800082E0F0FC17C0023089F491E0813009F462
:101B900090E0892F91E0DF5F1F5FCC0F9920C1F0AB
:101BA0009130C1F4C16016C081E0EBCF813051F1BA
:101BB00010E0D0CF013021F4813039F480E006C04C
:101BC0008130B1F7EF101DC016C082E092E0E3CF84
:101BD000923041F3D83059F4F501C0838394F5E095
:101BE000F81518F09FEFA91AB90AD0E0C0E0EF107D
:101BF00009C0823039F4F6017082F1E0CF1AD108C1
:101C0000E39482E09FEFC91AD90AF394082FA0CF7A
:101C1000CC0FDF5FD830E0F3F501C0839DCF98E0B3
:101C200087FF07C05C9A5A9A5A98880F9150C1F75B
:101C300008955C98F8CFCF93C82F599A892FEFDF7A
:101C40008C2FEDDFCF9108955998E9CF8AE2FCDF20
:101C50008091CB019091CC01EEDF8091C9019091F0
:101C6000CA01E9DF8BE2F0DF8091C7019091C801E2
:101C7000E2DF8091C5019091C601DDCFB0E0A0E028
:101C8000E4E4FEE00C943C3BE82F8091CE018131EE
:101C900008F047C0F0E0EF5BF74EC491CF3F09F486
:101CA00040C090E2C99FE0011124CF59D54F609107
:101CB000CF0172DE8091CB019091CC010996909377
:101CC000CA018093C9018091C7019091C8010F9604
:101CD0009093C6018093C501B9DFA090D301B09065
:101CE000D4018CE2B1DF6E01E0E2CE0ED11C7E01A8
:101CF000F2E0EF0EF11C0AE0102F093008F018E0B6
:101D0000011BFE019490111111C02196CE15DF0523
:101D100099F7CC16DD0659F78091CE018F5F80933D
:101D2000CE01CDB7DEB7EBE00C94583BC50190FC7B
:101D300002C090E080E07FDF96941150E4CF0F93D3
:101D40001F93CF93682FA89581E0611104C0609123
:101D5000CF018091CE016131E0F49FEF960F21E039
:101D600030E002C0220F331F9A95E2F74091C30181
:101D70005091C401FA01E223F323EF2B29F18130C2
:101D800041F420953095242335233093C4012093CA
:101D9000C30102DE80EA90E09093CA018093C901FA
:101DA0008091C7019091C8019C01215F3F4F22386B
:101DB000310570F43093C6012093C501C0E146DFC0
:101DC0008CE242DFC1110DC0CF911F910F91089598
:101DD000C2E8C81B81E890E09093C6018093C501DA
:101DE000EECF0091CB011091CC01013A110510F01A
:101DF000C150E8CF90E080E01EDF0F5F1F4FF5CFAE
:101E0000CF93C1E08C2F9BDFCF5FCA30D9F761E061
:101E100081E0C2DDCF91089590918D01EFE1F1E075
:101E2000911104C0F0E0E0E0CF0108952081281373
:101E300003C021812617C1F391503696F1CF16BC0D
:101E400081E085BDA99BFECF15BC82E085BB0895CE
:101E50008A3010F4805D12CF895AFDCFCF93C82FFE
:101E600082958F70F5DF8C2F8F70F2DFCF91089500
:101E700082E065DF62E081E08FCD8AE3FFCE80E221
:101E8000FDCECF93DF93C091D301D091D401E82F41
:101E9000F0E0EE0FFF1FE050FF4F208131813093C3
:101EA000D4012093D30190916D0189130AC08091D0
:101EB0007001E4DED093D401C093D301DF91CF91C0
:101EC000089590916E01891303C080917101F1CF43
:101ED00080917201EECF0F931F93CF93DF93CDECE0
:101EE000D1E00E811F81E82FF0E0EE0FFF1FE050E0
:101EF000FF4F208131813F832E838F5CBFDE1F83A4
:101F00000E83DF91CF911F910F910895CF93C82F2A
:101F100080919101E82FEE0FE80FE60FFF27FF1FDA
:101F2000EC5FF54FE491EE2311F18091D8018150DF
:101F30006091D901E4FF04C09091D7019695690F93
:101F4000E1FF04C09091D6019F5F890FE2FF04C0BA
:101F50009091D7019150690F1FDD80916D01C813D9
:101F600008C080917001883771F48C2F8ADFCF917F
:101F7000089580916E01C81303C080917101F3CF61
:101F800080917201F0CF8C2FA6DFF1CFCF93DF933A
:101F9000EC01FE018491811103C0DF91CF9108957E
:101FA0006DDE2196F6CFF2DF6ACFCF93DF936130FB
:101FB00009F43CC0623009F042C0EEE8F9E0CCE23E
:101FC000D0E029E130E04CE251E08417950708F4B5
:101FD0003FC0841B950BB9010E94AB3A422F481BAE
:101FE0006C171D0611F008F0BE017727660F771FEA
:101FF0006E0F7F1FFB0185919491FB013296C59175
:10200000D4918C1B9D0B489FB001499F700D1124EA
:10201000C90196958795860F971FB9010E94AB3A23
:10202000CE01860F971FDF91CF910895EAEEF9E078
:10203000C7E0D0E022E330E048EE53E0C6CFEEE464
:10204000F9E0CEE1D0E029E130E048EC50E0BDCF4E
:1020500090E080E0C0CFAAEAB1E08C9311966C9337
:10206000119712964C93129790E0FC01EE5BF64F9D
:10207000E4911696EC93169770E0FB01EE5BF64F39
:10208000E4911796EC93179750E0FA01EE5BF64F48
:10209000E4911896EC931897FC01EB5BF64FE491F2
:1020A0001996EC931997FB01EB5BF64FE4911A96A6
:1020B000EC931A97FA01EB5BF64FE4911B96EC93C5
:1020C0001B97FC01E85BF64FE4911C96EC931C9780
:1020D000FB01E85BF64FE4911D96EC931D97FA0126
:1020E000E85BF64FE4911E96EC931E97855B964F46
:1020F000FC0184911F968C931F97655B764FFB01C3
:10210000649150966C935097455B564FFA014491F9
:1021100051964C930895EAEAF1E045816481838108
:102120009ACF43E0481B461B96CFE3E9F1E080E0FD
:102130009191890F91E0ED39F907D1F7811101C033
:1021400081E00895E3E9F1E088EC90E091838083F9
:102150008CED90E09383828384E190E09583848387
:102160008BE286831782108611860895B0E0A0E086
:10217000ECEBF0E10C94363B4B015C01342E280172
:1021800039011E2DAC019B01D1E09AE0C92ED12C62
:10219000E12CF12C2A3031054105510510F5A30140
:1021A0009201C1E08AE0C82ED12CE12CF12C2A301A
:1021B000310541055105E8F481149104A104B104ED
:1021C00091F1411451046104710441F1432D4D0F0B
:1021D000E12EEC0EE416F4F1ED2F4E15D9F08FEF51
:1021E0002AC0CA01B901A70196010E94D23ADF5F55
:1021F000D1CFCA01B901A70196010E94D23ACF5F9F
:10220000D6CFAAE0B0E0A30192010E942B3B2B01A4
:102210003C01CF5FCD17ACF3EC1794F04814590490
:102220006A047B04B8F081E084149504A604B70422
:1022300008F080E08195CDB7DEB7E1E10C94523B28
:10224000AAE0B0E0A50194010E942B3B4B015C0188
:10225000EF5FE2CF81E0EFCFEF920F931F930091FA
:10226000DD011091DE012091DF013091E001E0906D
:10227000DC0143E069E170E080E090E077DF91E02D
:10228000813009F090E0892F1F910F91EF90089510
:10229000B7DD8FEF97E09093D4018093D3018FE95E
:1022A00090E074DEF8940FB6F894A89580916000E1
:1022B000886180936000109260000FBE5E9883B7C3
:1022C000817F846083BF83B7816083BF889583B734
:1022D0008E7F83BF0895D3DD8091890182FF03C083
:1022E00081E990E053CE8CE890E0FCCFC8DD80918E
:1022F000890180FF05C08EE4C1DC88E890E046CE0D
:1023000080E5FACF80E0E7DD81E0E5DD82E0E3DD36
:102310008DE3B4DC80E0B5DD81E0B3DD82E0B1CDFA
:10232000019708F40895EFE9FFE03197F1F700C055
:102330000000F6CFA895EFE9FFE03197F1F700C074
:1023400000000197B9F70895B0E0A0E0EAEAF1E1F2
:102350000C943F3BEC01162F15B818B88091B601CC
:10236000062F017060FFADC09091B10194B987B99B
:1023700087E080937A0080E480937B008091BA01AB
:10238000806C80937C0084E480BF0E945629A895CD
:1023900010928000109281001092850010928400AB
:1023A00087E286BB9091B601612F647012FF8EC0E8
:1023B00098B980E100008150E9F780918100816047
:1023C0008093810090E080E021E046B345FD85C028
:1023D00040FFFBCF26BB019680349105B1F710E09A
:1023E0001092810020E226BBC0908600D09087002A
:1023F0005091B1017091B001572B54B917B8E091C9
:102400008400F0918500CE16DF0628F440FF03C05B
:1024100041E046BB019647E940937A0040917B003A
:102420004F7B40937B00112309F442C0F12CE12C37
:10243000B0E0A0E0AC0133272227C22AD32AE42A45
:10244000F52A84E0662331F08FE3C80ED11CE11C2D
:10245000F11C83E0002309F442C08D5F90E0B0E0FE
:10246000A0E020E030E0A9018C159D05AE05BF0578
:1024700030F4A7019601281B390B4A0B5B0BA1E72F
:10248000B2E00E942B3B6B5F7F4F8F4F9F4F2AE044
:1024900030E040E050E00E94D23A288339834A83FA
:1024A0005B830023F1F0223E344041055105F0F0FA
:1024B00080EC8093A201812FCDB7DEB7E8E00C94C9
:1024C0005B3B14B89091B701892B51CF809181006B
:1024D00081608093810098B975CF13E081CF8F5FC1
:1024E000BDCF253631054105510510F712E0E0CF8B
:1024F000CF93DF938F70C82FC064C0937C00DC2F14
:10250000D07C8091A2018D1721F00E945B29D0938D
:10251000A20180917A00806480937A0080917A0091
:1025200086FDFCCF20E030E0A90180E0E091A00131
:102530008E17E8F0A091A301B091A401D03C21F046
:10254000A091A501B091A6010E942B3B2CE096958D
:102550008795779567952A95D1F72E2F30E050E033
:1025600040E00E94D23AC901DF91CF910895909145
:102570007A00906490937A0090917A0096FDFCCF57
:102580006091780070917900260F371F411D511D11
:10259000843061F4211590E1390740F4D03C31F0EA
:1025A0009091A101913011F4C06CA7CF8F5FBECF85
:1025B000A6E0B0E0EEEDF2E10C943C3B17B818B8A1
:1025C00015B88FE384B980E093DF9A83898381E033
:1025D0008FDF9C838B8382E08BDF9E838D83912CA6
:1025E00042E0E42E58E2F52EDD24D394AA24A394ED
:1025F000B12CE39423E0E21201C0E12C0E2D10E097
:10260000892D90E00E2C02C0959587950A94E2F7EB
:1026100080FDEFCFF801E55BF64FC4908C2D68DFAD
:10262000F801EE0FFF1F41E050E04C0F5D1FE40F7B
:10263000F51F208131818217930780F49183808375
:102640004F2D4D19550B443151052CF45AEE5F15A1
:1026500010F024E1F20EDD24D39409C08A309105F4
:1026600028F438E2F31202C020E5F22ED39483302E
:10267000910508F035C0C501002E01C0880F0A94ED
:10268000EAF7982A57E0951629F1FD1408F033C0AF
:1026900081E08093880180938901E0928E01F801A6
:1026A000E85BF64FE49187B1E095E823E7B9F801DC
:1026B000EB5BF64F8491F801EE5BF64FE49104B1C9
:1026C000E82BE095E023E4B98C2D12DF9093900184
:1026D00080938F0114B817B82696EBE00C94583B02
:1026E0008039914078F6F801E85BF64F8491E7B1C4
:1026F000E82BE7B9C7CFA89582E390E01BDE79CF3E
:10270000CF93C82FC09595B160FF11C0982B95B994
:1027100094B1892B84B963FF0CC00E94562984B1FF
:102720008C2384B985B18C2385B9CF9108959C23DE
:10273000EECF0E945129F3CFB0E0A0E0E2EAF3E14E
:102740000C94383BC42FD0E02EE0429FF0011124BE
:10275000ED5BFE4F1082118294EF928317821086F8
:1027600011861286138214821582168214861386AD
:1027700090918801913009F49DC1B62EF82E9A30BF
:1027800069F490908C012AEDC22E21E0D22EA12C6A
:10279000A91408F456C024E6A2128CC16B2D8F2D0B
:1027A0003BDB009739F0FC01828193818C3D9540A1
:1027B00008F480C16B2D8F2DB4DCA2E0EA2EF12C41
:1027C000B1E17B2E83E0682EF3DE809188018130B9
:1027D00009F483C018B88091B70187B98091B1011D
:1027E00085B984B98091B90183DE6C018091BA0109
:1027F0007FDEC81AD90A15B814B8912C812C2FEF96
:10280000821A920A672D8091B0017ADF8091B90116
:102810006FDEC816D9060CF0B7C28C010C191D0961
:102820008EE78816910499F50C3291E01907D4F5DA
:1028300081E00B3411050CF480E0A8958111DFCF05
:1028400032C0F60180818F1114C081818B1116C0B6
:10285000F6016381748185819681E12C0AE010E0A4
:1028600020E030E0428182DC8F3F41F493E6A92EE4
:1028700005C08B1103C081818F1551F3A394F7E03C
:10288000CF0ED11C85CFEE24E394F12C9DCF80E0B8
:102890000C32E1E01E070CF481E0F4EF8F16F1E05A
:1028A0009F0659F6A8950C3221E0120714F466240D
:1028B000639481E08816910499F4053195E0190735
:1028C0007CF0E9E07E2EE1E0EE16F104E1F670DE48
:1028D00080918801813009F0F2C080918801D4C0D4
:1028E000F3E06F1609F4A3C0E2E06E12C9C0EFCFA7
:1028F00021E0E21AF108FCDD9C012C193D09C81603
:10290000D90614F030E020E0A8958091B901E114D7
:10291000F10471F7D12CC12C2017310740F4680164
:10292000C21AD30A95E6C916D10408F084C0E0DDC6
:102930005C01E72DE0715E2E09F47FC00E944629FC
:102940008091B901D5DD8A159B0518F47501E81A47
:10295000F90AF3E06F12C8CF62E0C8018C0D9D1D2B
:1029600024DB9C01D4010E94163B4B015C015520E5
:1029700009F4F5C1AAE0B0E0AC019B010E942B3B39
:102980004B015C0128E3821629E8920621E4A206A5
:10299000B10408F4DCC1C501B40128EE33E040E025
:1029A00050E00E94D23A49015A01A8EEB3E00E94D9
:1029B0002B3B1AEF552009F4E2C122E434E040E059
:1029C00050E00E94D23A8EE08C9FF0018D9FF00D76
:1029D0001124ED5BFE4F8091AB0180838091AA01B1
:1029E0008183128387829086A186B2862383348373
:1029F000458356837AE0872E912CA12CB12C21306F
:102A000085E338078CE048075105D0F4D7010E94D0
:102A10002B3B28EE33E040E050E00E94D23A73FCBA
:102A20001F5F6AE0C62ED12CE12CF12C18C0740176
:102A300030E020E06ACF612C7ACF0E944B2980CF12
:102A4000CA01B901A50194010E94D23A1F5FD7CFF4
:102A5000CA01B901A70196010E94D23A1F5F211550
:102A6000310591E04907510598F78EE08C9FF00100
:102A70008D9FF00D1124ED5BFE4F34872387158762
:102A800080918801843188F49EE09C9FF0019D9F95
:102A9000F00D1124ED5BFE4F92818A3009F04AC19E
:102AA0009A3F1CF08BE08093880182DD17B818B83C
:102AB00014B815B8CDB7DEB7EFE00C94543B15B899
:102AC00097E097B918B88091B30184B980E48093F6
:102AD0007B0084E480BF8091B901806480937C0096
:102AE00090937A000E945A291092800010928100DF
:102AF000109285001092840087E286BB8091B3011A
:102B000085B9809188018F3109F003C18091B601A8
:102B10008095877091E09093810087B9F12CE12C2A
:102B200086B385FD0CC080FFFBCF96BBA895FFEF59
:102B3000EF1AFF0A20E8E2162CE0F20689F710925D
:102B4000810090E296BBC0908600D090870014B8B8
:102B50002091840030918500C216D30638F480FF9E
:102B600005C081E086BB8FEFE81AF80A87E98093F9
:102B70007A0080917B008F7B80937B008091B901EC
:102B8000B7DC4C0115B88091B30184B990E8E9161F
:102B90009CE0F90608F074CFC601B0E0A0E0670140
:102BA000F12CE12C7601DD24CC24C82AD92AEA2A8A
:102BB000FB2AE3E0CE16D104E104F10408F4ACC032
:102BC000F2E0CF1AD108E108F10828E3C21629E89B
:102BD000D20621E4E206F10408F49EC0C701B60162
:102BE00028EE33E040E050E00E94D23A69017A01D9
:102BF00017EF20919B018091A3019091A40161E0C6
:102C0000820F911D27FD9A95D0D9DC01A70196016D
:102C10000E942B3B20E436E040E050E00E94D23A94
:102C200069017A01143F99F48091990190E0B0E034
:102C3000A0E0C12CD12C7601281739074A075B0781
:102C400030F069017A01C81AD90AEA0AFB0A8EE053
:102C50008C9FF0018D9FF00D1124ED5BFE4F809154
:102C6000AB0180838091AA018183128327833087FF
:102C700041875287C382D482E582F682143F09F0ED
:102C80004DC080EAC81686E8D80681E0E806F1045F
:102C900008F4F6CE8091B9012BDC853D9340D0F746
:102CA00014B81092A1018091B90122DC5C0181E08D
:102CB0008093A1018091B9011BDCAC018091B3012B
:102CC00084B9D501A41BB50BA090A301B090A401B9
:102CD000CD010496099788F095010E94253B9A0141
:102CE00050E040E00E94F43A80919A01280F20932E
:102CF0009A01AC0CB11CC7FCBA9484010A191B09D7
:102D0000C801C1968336910508F0BACE00939B01A5
:102D1000B7CE8091B701FECE14EF6BCF173F09F00D
:102D2000AFCE91E2C9169EE4D906E104F10408F49D
:102D3000B1CFA6CE953F0CF0B5CE83819481A5810D
:102D4000B6810597A105B10508F0ACCEAECEA8EED0
:102D5000B3E0AC019B010E942B3B17EF2ECEF8E3B2
:102D60008F16F9E89F06F1E4AF06B10408F013CE20
:102D7000A8EEB3E0A50194010E942B3B17EF20E1E0
:102D800034E040E050E01DCE10E000E02EE7821677
:102D9000910409F081CD4CCDB0E0A0E0E2EDF6E188
:102DA0000C94373B182F04DC80918801813009F4A2
:102DB000A5C018B88091B70187B98091B00185B9D5
:102DC00084B90E945129C2E0D0E0C12CD12C7601F7
:102DD0008091B901A895806C80937C000E945B294A
:102DE00080917A00806480937A0080917A0086FDD9
:102DF000FCCF04E6812C912C540180917A008064F0
:102E000080937A0080917A0086FDFCCF80917800D3
:102E100090917900880E991EA11CB11C0E9458291E
:102E2000015059F7A091A301B091A401A50194010B
:102E30000E942B3B4B015C018CE0B694A7949794C5
:102E400087948A95D1F7219779F415B88091B701C5
:102E50009091B601892B87B98C149D04AE04BF04F0
:102E600050F090E080E042C0C1E0D0E07501640124
:102E70008091BA01AFCF2091A5013091A601A4E6BF
:102E8000B0E00E94163B9B01AC012C193D094E0994
:102E90005F090E942B3B2B013C01A70196012819D9
:102EA00039094A095B09A8EEB3E00E942B3B6B018C
:102EB0007C0120919501309196012057354E50E0CC
:102EC00040E0C301B2010E94D23AC701B6010E949C
:102ED000D23AC901113051F4609197017091980173
:102EE0006217730708F0BDCF861B970B20EC209369
:102EF000A201CDB7DEB7E0E10C94533B90E080E057
:102F0000F8CFB0E0A0E0E7E8F7E10C943B3B6B01C1
:102F10007C01C42F022F9AE0892E912CA12CB12C78
:102F200080E1C81687E2D806E104F10408F054C035
:102F3000C13F0CF45FC08FE08C0F23E0622F0E9432
:102F40009E3AD92F992319F08F5F291BD22F8830F1
:102F500008F051C0E82FF0E0E450F64F14914AE039
:102F600063E171E0C6010E94333A23E131E0F901E7
:102F700001900020E9F79F0124513140B22EC22F69
:102F8000CD1B1C165CF080E30E943E0E8EE20E9478
:102F90003E0ECC2319F080E30E943E0ED11101C0F9
:102FA000CFEFC15083E1C82E81E0D82EF12CE12C67
:102FB0000C2E000CDD0BEB1400F1112319F0812F06
:102FC0000E943E0E002319F0802F0E943E0ECDB7C6
:102FD000DEB7ECE00C94573BC701B6016B5F7F4F47
:102FE0008F4F9F4FA50194010E94D23A69017A0147
:102FF000CF5F96CFD0E010E0B2CFF60181916F01A4
:103000000E943E0ECE15DF0519F48EE20E943E0EA0
:10301000FFEFEF1AFF0ACFCFCF92DF92EF92FF922E
:10302000CF93DF936B017C01C42FD22FF7FE0BC02F
:103030008DE20E943E0EF094E094D094C094C11CA6
:10304000D11CE11CF11C2D2F4C2FC701B60159DFFB
:10305000DF91CF91FF90EF90DF90CF90089520E027
:1030600040E04FCF84EB90E00E94D30F8091A70106
:103070009091A801843823E0920788F480EE97E0CD
:103080009093D4018093D30180EB90E00E94C60F0F
:1030900080EE97E09093D4018093D30108956AE085
:1030A00070E00E94AB3A90E080E026E54EEF29DF29
:1030B0000E943F0F8091A7019091A80180382CE0D9
:1030C000920748F480E098EF9093D4018093D30165
:1030D0008CEA90E0DBCF8C3A9D4048F480EE9FEF85
:1030E0009093D4018093D30187EA90E0CFCF80EE14
:1030F00097E09093D4018093D30184EA90E0C6CF07
:1031000085E0F6D99093A8018093A70124E6209347
:10311000A901845893408C3F984038F40E94000FD6
:10312000A1DF88EB9BE006D9B3C8089540E0FC011D
:103130006081818101DBE3E4F1E063817481858159
:10314000968126E44281DDCECF93C82F0E9452297A
:103150008C2FCED9CF910895B0E0A0E0E2EBF8E15A
:103160000C943B3BA89524DA80918801813009F4C6
:1031700086C018B88091B70187B98091B901B8D9D4
:103180004C018091B30184B985B961E18091B201AC
:10319000B7DA8091B901D8DF5C018091B00184B9C0
:1031A00085B961E18091B201ABDA8091B901CCDFE0
:1031B0008C018091BA019CD96C01FAD98091880167
:1031C000813009F45CC018B88091B70187B980914B
:1031D000B9018ED97C0117B88091B60188B987B939
:1031E00015B88091B40184B960E18091B20188DAA8
:1031F0008091B901A9DFEC018091BA0179D9C81792
:10320000D90708F441C0C81BD90B0C191D098091BE
:10321000B10184B960E18091B20172DA8091B901A3
:1032200093DF6C018091BA0163D9C81AD90A17B823
:10323000C016D10660F5C8018C199D097401E5011D
:10324000893E9340E0F4C630D105C8F0CE018E1916
:103250009F09EC16FD0618F0C7018C1B9D0B23E09F
:10326000E216F10418F08436910548F0C832D10511
:1032700098F0C8018759910989389141A8F1CDB7D3
:10328000DEB7ECE00C94573BD0E0C0E0BECFC60107
:10329000801B910B8601D4CF15B88091B10184B900
:1032A0008091B60188B987B98091BA014DDF7C0160
:1032B0008091B00184B98091B70188B987B98091B4
:1032C000B90142DF9C01C70164E170E00E94AB3AA2
:1032D000C701861B970B8217930758F6E60EF71E59
:1032E0002E153F0530F6CBCF80918801882311F051
:1032F0008A3019F484E18093880180918D0196E0F1
:10330000899FF0011124E15EFE4F9091AA01908304
:103310009091AB01918313830283D583C4838F5F24
:1033200080938D01ACCF0E94911015B88091B101AE
:1033300084B98091B60187B988B98091BA0104DF58
:10334000813D934008F008CF0895CF92DF92EF922D
:10335000FF92CF93C82F15B88091B10184B98091A5
:10336000B60187B988B98091BA01EEDE8430910543
:10337000E8F1C0909301D0909401F12CE12C8937B1
:1033800025E0920760F1C13051F514B88091B60183
:103390009091B701892B87B98091BA01A9D820EA09
:1033A00036E841E050E0C9EF17B818B814B815B8BE
:1033B000DC010E942B3BA70196010E94D23A209388
:1033C0007E0130937F014093800150938101C0932F
:1033D0008201CF91FF90EF90DF90CF90089520E988
:1033E000C20E2AE1D21EE11CF11CD9CF8091B4019A
:1033F00084B98091BA01A8DE20EFC22E2BE2D22E32
:1034000027E0E22EF12C20E432E44FE050E0C7EF59
:10341000CBCFB0E0A0E0EFE0FAE10C94393BC82F4D
:103420007B018091AA018093AD018091AB018093D3
:10343000AE018091AC018093AF018091B501C130A4
:1034400009F044C19091B001892B84B985B90E94DB
:103450004D290091A5011091A6018091B90148D88C
:10346000081B190BC090A501D090A6018091BB014B
:103470003FD8F601E81BF90BC0909501D09096015A
:10348000D1E088E49DE02DEF39E02E173F0708F0EA
:103490007CC1809188018E3109F02FC18091890112
:1034A000982F9C238460992359F0C13059F490914E
:1034B0006E018091AA01981305C0C093880182E033
:1034C0008093890180918A01816080938A01E0164E
:1034D000F10610F40E191F09D80120EF3BE247E076
:1034E00050E00E942B3B9F0150E040E00E94D23A06
:1034F000AAE0B0E00E942B3B20E7C21A25EED20AD8
:10350000960150E040E00E94D23A69017A01909120
:10351000B201C13009F0F7C08091B60187B988B90E
:103520008091B101892B84B995B98091BA010CDEE3
:103530008C01A090A501B090A6018091BB010E94D2
:1035400078129501281B390B2115310511F421E062
:1035500030E0C801821B930BB9010E94AB3A4B01CA
:10356000B12CA12C2031310508F03FC08091B5016C
:10357000C13009F0E0C09091B101982B94B985B9A0
:103580008091BA01E1DD3C010091A5011091A601F5
:103590008091BB010E947812F801E81BF90B0091A1
:1035A000930110919401309711F4E1E0F0E0D30120
:1035B00020EF3BE247E050E00E942B3B9F0150E0B0
:1035C00040E00E94D23AAAE0B0E00E942B3B0057B4
:1035D000154E980150E040E00E94D23A82169306C0
:1035E000A406B50610F449015A01D2E0C814D90462
:1035F000EA04FB0418F046015701D1E0C0907A01BB
:10360000D0907B01E0907C01F0907D018091AC0135
:1036100040E06091AA01C13019F4682F8091AB019C
:103620008BD80E948B108091890182FF9BC00091F2
:103630004601109147012091480130914901609164
:103640008301709184018091850190918601E090C1
:103650004501409187010E94B610813009F488C06D
:103660008C2F84608093890180E06FDE80927A01E4
:1036700090927B01A0927C01B0927D01D093730166
:103680008091460190914701A0914801B091490174
:103690008093830190938401A0938501B093860168
:1036A00080914501809387018091AC0180936D01E9
:1036B0008091AA019091AB01C13009F05EC0809366
:1036C0006E0190936F011092910152C09091B101DF
:1036D000892B84B98091BA0137DD8C018091BB01BF
:1036E0000E947812FC01C0909301D090940180ED6B
:1036F00097E021ED33E0D2E0C8CE8EE180938801DF
:10370000C0938901E4CE18B88091B70187B9809140
:10371000B00185B9892B84B90091A5011091A6014A
:103720008091B90111DD081B190B8091BB010E942A
:1037300078129C0109CF9091B001892B84B96090D7
:10374000A5017090A6018091B901FEDC681A790A82
:103750008091BB010E947812FC01009195011091AB
:10376000960121CFC814D904EA04FB0408F47CCFE5
:10377000CDB7DEB7EEE00C94553B90936E0180938D
:103780006F0181E080939101F3CF31E6E316F104FC
:1037900078F78017910760F78091B9010E9478123D
:1037A0007C018091BA010E947812E81AF90A8AEF26
:1037B000E816F10408F0D0C02FE1209388012D2FE6
:1037C000246120938901D13009F0BBC0A0919501FB
:1037D000B0919601A057B54E22E0209391014AE0A6
:1037E0004E9D90014F9D300D11240E94163B980173
:1037F00050E040E00E94D23A809197019091980168
:103800008217930708F0A5C0281B390B3093750168
:10381000209374012D2F2170922E0091B001C09140
:10382000B60150E1852ED0FD06C00091B101C091D6
:10383000B70141E1842EC7708091BB018064809301
:103840007C000E945B291AE0C12CD12C7601AA24AD
:10385000AA9433E0B32EA895682D8091B2010E94FE
:1038600080138091B501802B84B9992009F482C01E
:1038700086B18C23E9F704B980917A008064809343
:103880007A0080917A0086FDFCCF8091780090913B
:1038900079009695879596958795992009F46EC03D
:1038A000C80ED91EE11CF11C1150A9F6C701B601C2
:1038B0002AE030E040E050E00E94F43AA091A501F7
:1038C000B091A6010E942B3B20E034E040E050E0A4
:1038D0000E94F43A309377012093760180E480933C
:1038E000A20180918A01816080938A018091AC015C
:1038F00080936D012091AB019091AA01D13009F024
:1039000045C090936E0120936F0140E060916F017C
:103910000E949C138091460190914701A09148011B
:10392000B09149018093830190938401A093850114
:10393000B093860180914501809387010E948B108E
:1039400017CFA0919301B0919401A057B54E23E0F9
:1039500044CF30E020E05ACF80E2809388018D2F61
:1039600084608093890188E0D13009F089E08093F8
:10397000910150CF86B18C23E9F37DCF9501281BAF
:10398000390BC21AD30AE108F1088ECF20936E01D9
:1039900090936F01BACFA8E0B0E0E1EDFCE10C94A8
:1039A000353BA89518B88091B70187B98091B001CF
:1039B00084B985B98091BA01C7DB4C018091B90106
:1039C0000E9478129B838A8315B88091B30184B9D1
:1039D0008091B901B9DB459740F58091B30185B974
:1039E0008091B901B1DB6C018091B60187B988B9CA
:1039F00015B88091B10184B98091B901A5DB2C0182
:103A00008091BA010E9478125C018091B40184B95E
:103A10008091BA0199DB3C012A813B8120333141FD
:103A200040F452E6C516D10448F02896E2E10C9421
:103A3000513B6CE6C61663E1D606B8F789EAA816CC
:103A4000B10408F071C096E26916710470F3D601F2
:103A500020EF3BE247E050E00E942B3BA091A50104
:103A6000B091A601BB83AA839D012C193D0950E0AA
:103A700040E00E94D23A49015A01AA81BB81A619AD
:103A8000B70920EF3BE247E050E00E942B3B930157
:103A900050E040E00E94D23ABEEDCB16B3E0DB0628
:103AA00038F5F2E0880C991CAA1CBB1CFA95D1F7DA
:103AB000CA01B901680D791D8A1D9B1D25E030E002
:103AC00040E050E00E94D23A225A3E4F4F4F5F4FA3
:103AD000AAE0B0E00E942B3B4B015C01B4E68B16E0
:103AE0009104A104B10408F4ADC02FEF2F83D3C01B
:103AF000EEED6E16E3E07E0670F4E2E0220F331F77
:103B0000441F551FEA95D1F7C501B401620F731F19
:103B1000841F951FD3CF280D391D4A1D5B1D569557
:103B2000479537952795D0CF2A813B8128153905B0
:103B300008F47FC04A145B0408F47BC04091A501DF
:103B40005091A6014217530721F4215031093B83BC
:103B50002A8320919501309196012057354EAA81F4
:103B6000BB81A819B9090E94163BAA81BB814A1BD7
:103B70005B0B9A0150E040E00E94D23A69017A0161
:103B800020919301309194012057354ED201AA190A
:103B9000BB090E94163B950150E040E00E94D23ADA
:103BA000EA81FB81EE3DF340B0F462E0CC0CDD1C19
:103BB000EE1CFF1C6A95D1F7CA01B9016C0D7D1D81
:103BC0008E1D9F1D25E030E040E050E00E94D23A7B
:103BD00049015A0183CF8EEDA81683E0B806F0F4B0
:103BE000283F94E2390791E04907510550F4CA0192
:103BF000B90142E0660F771F881F991F4A95D1F7D8
:103C0000DDCFA9E0B0E00E942B3B6C0D7D1D8E1D29
:103C10009F1D2AE030E040E050E0D8CFC20ED31E16
:103C2000E41EF51E46015701B694A7949794879415
:103C300055CFAFE8AA16A2E1BA0608F057C0812C0A
:103C4000912C540181E0A8D86C01F12CE12CA50144
:103C50009401220F331F441F551FE5E08E16910477
:103C6000A104B10420F4280D391D4A1D5B1DAAE0F2
:103C7000B0E00E942B3B611571058105910521F48F
:103C800064E670E080E090E0C616D706E806F90624
:103C900098F1FFEFFF8340918C0148875091AA0172
:103CA00059833090AB01609188016E8320E0A88534
:103CB0002A1738F1BE81B0938801243609F4B5CEB5
:103CC000A33008F0B2CE27E0A29FF0011124E65203
:103CD000FE4F30823981318383829482A582B682FD
:103CE0004F814283AF5FA0938C019FCE2AE0822E4A
:103CF000912CA12CB12CA6CF460157013EEF3F835A
:103D0000CACFC22ED12CA7E0AC9DC001AD9D900DB5
:103D10001124FC01E652FE4F3F018081F9818F138F
:103D20008FC0D30111968C9183118AC0E12C02E0DF
:103D300010E020E030E04F81C501B4010E94B610D0
:103D40008F3F09F072C0F301F280238044805580D8
:103D5000768002E010E020E030E04F2D622D742DDF
:103D6000852D972D0E94B610682EFFEF8F1320C06F
:103D70002F812F1102C066246394EF809501840186
:103D80004F2D622D742D852D972D0E94B61086150E
:103D900009F445C037E03C9DF0013D9DF00D112434
:103DA000E652FE4F83829482A582B6824F8142837F
:103DB00024013501769467945794479457E05C9DAD
:103DC000F0015D9DF00D1124E652FE4FF2808381DB
:103DD0009481A581B6818A839B83AC83BD83EF8068
:103DE0009501840104191509260937094F2DBC01D5
:103DF000CD010E94B61087FD10C095018401040D0D
:103E0000151D261D371DEF804F2D6A817B818C810A
:103E10009D810E94B6101816ACF428EC48CFFF82A2
:103E2000822C942CA52CB72CC3CFC501B40124E15E
:103E300030E040E050E00E94D23A29013A01BECF82
:103E40002F5F35CF9AE09E8324E631CFCF93DF9367
:103E50000E94911017B88091B00185B99091B1017D
:103E6000892B84B98091B9016FD9EC018091BA0195
:103E70000E947812AC012091A5013091A6013695DF
:103E80002795C9014E978C179D0760F4225E3F4F1E
:103E9000C217D30738F48417950720F481E042173E
:103EA000530708F080E014B8DF91CF910895CF93C5
:103EB00061E080E0CBDFC82F62E080E0C7DFC80FA1
:103EC00062E081E0C3DF8C0FCF910895CF93C82FBC
:103ED0000E9450298C2F0E947812CF9108958F92C2
:103EE0009F92BF92CF92DF92EF92FF920F931F9318
:103EF000CF93DF9390918801913009F493C2A895F4
:103F00000E942B1015B88091B10184B98091B6013F
:103F100087B988B960E18091B2010E9480138091D5
:103F2000BA0112D98C018091B1019091B201892B13
:103F300084B98091BA0108D92091B10124B98017C0
:103F4000910720F48530910508F48AC2013D23E0F1
:103F50001207F0F061E18091B2010E94801380911C
:103F6000BA01F2D88C019091B20195B98091B1015A
:103F7000892B84B98091BA01E7D815B82091B10195
:103F800024B98017910720F48530910508F468C2A0
:103F90000031110508F4A1C180918A01811196C1F7
:103FA00028EEC22EDD24D3940B3E31E0130718F423
:103FB00098E2C92ED12C8091B1019091B501892B45
:103FC00084B98091BA0182DFEC018091B50185B995
:103FD0008091BA017BDF7C01EC1AFD0A9E012C0D59
:103FE0003D1D2817390708F07AC08091B20184B9C5
:103FF00085B918B88091B70187B98091BB0166DF98
:1040000017B8C397BB24B3948938924018F0269709
:1040100008F0B12C8091B60187B98091BB0156DFC1
:10402000EC018091B9010E94781217B88C179D0796
:1040300038F4C81BD90BC23CD14010F4BB24B39454
:104040008091B70188B987B98091B0019091B5018D
:10405000892B84B915B88091B90138DFEC018091C2
:10406000B50185B98091B90131DF8C1B9D0BEC0145
:1040700018B88091B70187B98091B0019091B501CE
:10408000892B84B985B98091BB0120DF88349F409A
:10409000F8F089E18093890184E0809391018FE1B8
:1040A0008093880180918A01816080938A01409188
:1040B000AC0140936D018091AB019091AA01CE15A6
:1040C000DF0508F482C080936E0190936F0181C078
:1040D000B11005C089E28093890186E0DECF18B86F
:1040E0008091B70187B98091B0019091B501892B7A
:1040F00084B985B98091B901E9DEEC018091B00104
:1041000085B98091B901E2DE4C01C601880D991D87
:104110008C179D0708F0DAC0E090A501F090A60189
:104120008091B20184B915B88091B60187B988B978
:104130008091BB01CBDE18B88D5C9041BB24B39459
:104140008938924048F08CE0E81AF108BB24B39417
:10415000CE15DF0508F4B12CC819D9098091B60134
:1041600087B98091B1019091B501892B84B985B946
:104170008091BA01ABDE7C018091B10185B980915B
:10418000BA01A4DEE81AF90AD694C794EC14FD0427
:1041900028F09E2D8F2D7E01C92FD82F15B8809124
:1041A000B60188B987B98091BB0190DE813D93400B
:1041B00028F48AE18093890185E06FCFB11086C031
:1041C0008AE28093890187E068CF90936E018093A3
:1041D0006F01C70162E370E00E94AB3AC701861B22
:1041E000970BC817D90750F06E0D7F1D6C177D0710
:1041F00028F08091890180648093890160916F012A
:1042000080916E010E942B108091B7019091B801AE
:10421000892B87B99091B00194B92091890120FF31
:104220000DC118B895B9C091A501D091A601809192
:10423000B9014CDE9E01281B390BC9014091950143
:10424000509196014057554E9C01A0E1B7E20E9463
:10425000163B9A0150E040E00E94D23A20937E0142
:1042600030937F0140938001509381018AEF8093C6
:1042700082018091B4019091B501892B84B990910C
:10428000B60197B92091890120FFE2C015B898B90D
:104290000E9451298091BA010E947812EC0180910C
:1042A000BB010E9478128C1B9D0B90937901809327
:1042B00078012091890120FFCEC080549D4E813C21
:1042C000924120F0109279011092780180918A0138
:1042D000013D33E0130708F0FEC080918A0181118F
:1042E00095C08091B10184B915B88091B60187B9A4
:1042F00088B9D8D78091B1019091B201892B84B946
:104300008091BA010E94A4188F359D4018F0B80121
:1043100082E07FD880918A01811178C08091B701B5
:1043200087B918B88091B0019091B201892B84B9F6
:1043300085B98091B9010E94A4188034964008F094
:1043400065C08091BB010E947812EC018091BA0196
:104350000E9478127C0160E18091B2010E9480137A
:104360008091B9010E94A4186C0115B89BD7809167
:10437000B00185B98091B9010E94A41820E4C21649
:1043800026E0D20608F09DC08133914108F499C01F
:1043900014B815B88091B70188B984D78091B0015D
:1043A00084B98091B9010E94A418853F910508F055
:1043B00088C060E18091B2010E9480138091B901B0
:1043C0000E94A4186C018DEDC81682E0D80608F092
:1043D00049C082E28093880180918A018160809344
:1043E0008A018AE0809391018091AC0180936D01F4
:1043F0008091AA0180936E018091AB0180936F013F
:10440000CE19DF09D0937501C093740180918801A2
:10441000882319F08A3009F0A9C0BDDA17B818B896
:1044200014B815B8DF91CF911F910F91FF90EF90C5
:10443000DF90CF90BF909F908F90089588B915B866
:104440008091B90143DD4091930150919401FACEDE
:1044500085B918B81DCF813C924108F033CF36CFD3
:104460008C013BCF8091B00185B91CD715B88091E4
:10447000B9010E94A418853F910518F58091880123
:10448000813229F480918A01816080938A0181E2DE
:10449000809388018BE08093910180917A019091C3
:1044A0007B018C159D0508F0B9CFC601B0E0A0E0F6
:1044B00080937A0190937B01A0937C01B0937D015E
:1044C00093CF80918801813209F4A8CFB80181E0AF
:1044D0000E94091A9BCF811146C08091B9010E94A8
:1044E0007812EC018091BA010E9478127C018091CF
:1044F000BB010E9478128C0117B88091B60188B96F
:104500009091B50195B98091B101892B84B982E36D
:1045100090E00E949A118091B60187B98091BA010A
:104520000E9478120A97F8F483E280938B018CE062
:10453000809392018091AC0180930C018091AA013B
:1045400080930D018091AB0180930E01CE018E19F5
:104550009F099093100180930F01C01BD10BD09342
:104560001201C09311010E94AC1850CF8F3109F095
:1045700055CF9091890194FF51CF80916E01609148
:104580006F0190FD03C0962F682F892F0E940C0F9A
:10459000892B09F443CF10928801109289018091F0
:1045A0008A018E7F80938A0139CFB0E0A0E0EBEDE5
:1045B000F2E20C943E3B7C01162F62FF05C0809115
:1045C0009E0180FD4AC01C7F812F8370D82E39F058
:1045D00068E080E10E94CC0C8EE30E943E0ED0E0A9
:1045E000C1E000E084E1C82E812F8270B82E1870DF
:1045F000E114F10439F086E0E816F10488F185E071
:10460000E81AF1084F9939C08EE190E00E949A11A2
:10461000D0E0C11127C0C0E001E0112309F44EC071
:1046200082E390E00E949A11C4E101E04F990CC02E
:104630008EE190E00E949A114F9906C088EC90E0BC
:104640000E949A11C1E003E0C1508AE090E00E940C
:104650009A11C111EBCFD0E031C0F12CE12CB4CFD5
:10466000C0E0D0CF4F99D7CFDF5FDB3109F449C02D
:104670008AE090E00E949A11CCCF85E090E00E9401
:104680009A11DF5F8D2F6C2D0E94923A911107C015
:104690008091A901823050F181508093A901D436D4
:1046A00069F4BB20C1F268E080E1C13011F50E94DD
:1046B000CC0C80E20E943E0ED0E0C2E080919F01CF
:1046C00080FF22C080919F018E7F80939F01DD201B
:1046D00039F068E080E10E94CC0C80E20E943E0E3E
:1046E000802FCDB7DEB7E9E00C945A3B0E948018CA
:1046F000D6CF0E94CC0C8EE30E943E0ED0E0C1E0EB
:10470000DDCFC0E002E0DACFC11172CFE0CFCF93AE
:104710006091CF018091D10186131CC0C091CD0161
:10472000C0FF04C065E188EB9BE03FDFC1FF0EC026
:10473000C091D101C23028F462E081E00E94CC0C2B
:1047400007C08C2F0E949F0EC150F4CF0E94000F13
:10475000CF9108956F5FF1CFCF93DF93EC01D7DF57
:10476000CE010E94C60F0E943F0FDF91CF910895A6
:10477000B0E0A0E0EEEBF3E20C943B3B623008F4D7
:1047800078C1162F5C01FC01D081C1816C01F2E07F
:10479000CF0ED11C3EEFF32EF60E42E063EB8D2FD1
:1047A0000E94260D882309F44CC042E069E58C2F55
:1047B0000E94260D882369F1E12C01E22BE04BE0F9
:1047C0006F2DC6010E943E0D8032D9F58DE59AE02D
:1047D000C3DF41E068E081E00E94FA0C982E41E0DE
:1047E00068E089E00E94FA0CC82F41E068E081E1AE
:1047F0000E94FA0C882E8C2F8095981619F08C2F19
:104800000E942E0F892D0E942E0F0E943D0F882D91
:10481000FFC040E06DE28C2F0E94260D882389F0B6
:10482000133079F440E06BE0F50182810E94260D9F
:10483000882339F08DE59AE08FDF82E50E943E0EF5
:104840001FC142E062EA8D2F0E94260D8823B1F03D
:1048500040E060E58C2F0E94260D882379F0F3E27A
:10486000FF120CC040E060E5F50183890E94260D2F
:10487000811130C06501F3E1CF0ED11C40E068EA40
:104880008D2F0E94260D811107C042E068EB8D2F0D
:104890000E94260D8823E1F140E064E58C2F0E9400
:1048A000260D8823A9F1E12C00E22BE04BE06F2DCF
:1048B000C6010E943E0D803159F584E59AE04CDF37
:1048C00041E068E081E00E94FA0C982E41E068E047
:1048D00089E01AC08BE0F501838B88E59AE03CDF24
:1048E000E12C0EE12BE04BE063E2C6010E943E0D9D
:1048F000813109F045C041E068E081E00E94FA0C96
:10490000982E41E068E08AE00E94FA0C882E7ACF67
:1049100040E066E48D2F0E94260D882309F47BC0B9
:1049200040E066E48C2F0E94260D882359F1EFDECB
:1049300080E59AE00E94C60F22E0E22E04E321E126
:1049400041E16F2DC6010E943E0DC1E0883199F40E
:1049500041E066E081E00E94FA0C982E41E066E0BA
:1049600087E00E94FA0C882E8DE20E943E0E86E3BC
:104970000E943E0EC3E00E943F0FC13009F0D5C136
:104980008FE35CCF40E062E28C2F0E94260D8823EB
:1049900009F441C08CE49AE0DFDEEE24E3940AE1FE
:1049A00028E048E06F2DC6010E943E0D803341F79C
:1049B00041E068E081E00E94FA0CC82F41E068E025
:1049C00089E00E94FA0C0E942E0F8C2F0E942E0F5D
:1049D0000E943D0F41E064E085E10E94FA0C182F2F
:1049E00041E068E089E10E94FA0CD82F41E068E0DC
:1049F00081E20E94FA0CC82F812F0E94280F8DE2BD
:104A00000E943E0E8D2F0E942E0F0E943D0F8C2F74
:104A10000E942E0F35C040E06BE08D2F0E94260DC6
:104A2000882309F441C040E064E38C2F0E94260DE6
:104A30008823D1F100E02BE042E06F2DC6010E94F7
:104A40008D0D8A3089F541E068E082E00E94FA0C21
:104A5000D82F41E061E08AE00E94FA0CC82FDF3FC6
:104A6000B1F48130A1F48091C201811107C0C093DB
:104A7000C201CDB7DEB7ECE00C94573B8230C9F7EA
:104A80001092C20188EC90E00E949A11F2CF88E463
:104A90009AE062DE8C2F0E94280F8D2F0E942E0F2D
:104AA00082E08093C201E5CF40E069E58D2F0E944E
:104AB000260D8823F9F040E069E58C2F0E94260D31
:104AC0008823C1F083E49AE047DEE12C02E22BE088
:104AD0004BE06F2DC6010E943E0D803209F050CF91
:104AE00041E068E081E00E94FA0C982E41E068E025
:104AF00081E10ACF40E060E38D2F0E94260D8823DC
:104B000009F451C040E06CE08C2F0E94260D8823F0
:104B100009F449C0FCDD8EE39AE00E94C60F6FEFF6
:104B2000610FE12C08E12CE04CE0C60101970E94E6
:104B30003E0DC82F8C3099F18F3099F115E0D1E0FE
:104B4000843109F4D2E041E067E081E00E94FA0C90
:104B5000082F41E0612F88E00E94FA0C182FD23014
:104B600031F46C2F70E090E080E00E942F180E94DA
:104B70003F0FD23009F004CF802F0E942E0F0E94E9
:104B80003D0F812F0E942E0FC43109F079CF0E9472
:104B90003D0F41E068E08DE00E94FA0C39CF15E04E
:104BA000D1CF18E0CFCF40E066E08D2F0E94260DD8
:104BB0008823B1F140E06EE08C2F0E94260D811118
:104BC00007C040E063E28C2F0E94260D882341F14C
:104BD000E12C03E22EE046E0612FC5010E943E0D6C
:104BE0008F3009F0CDCE8091C201811149CF41E0D3
:104BF00065E081E00E94FA0CD82F41E068E086E091
:104C00000E94FA0CC82F88E39AE0A6DD8D2F0E943F
:104C10002E0F0E943D0F8C2F0E942E0F81E041CF5E
:104C200040E061E18D2F0E94260D8823E9F040E0ED
:104C300061E18C2F0E94260D8823B1F083E39AE076
:104C40008BDD00E021E145E0612FC5010E948D0D63
:104C50008E3009F095CE42E065E084E00E94FA0CC7
:104C6000982E42E066E034CE40E065E38D2F0E944E
:104C7000260D882309F45DC040E061E18C2F0E947D
:104C8000260D882309F455C08EE29AE065DD1F2DBC
:104C9000560100E0C0E0D0E080E1882E98E0E92EE7
:104CA000111117C0D23009F06BCE01E028E042E0CC
:104CB0006F2DC6010E948D0D853109F061CE42E055
:104CC00068E086E00E94FA0C982E42E068E08EE0F0
:104CD0001BCEF5019080C93050F440E068E0892D8A
:104CE0000E94260D8823A9F0CF5FC93068F040E00C
:104CF00061E1892D0E94260D882369F0F501E0828B
:104D0000DF5F0F5F023071F21150FFEFAF1ABF0A81
:104D1000C7CFCE5FEACF40E069E1892D0E94260D22
:104D2000882379F3F5018082EBCFC33009F0A8CE58
:104D300069CDEDDC612F70E090E080E00E942F18DB
:104D40000E943D0F6D2F70E090E080E00E942F18D0
:104D50008DE20E943E0E6C2F70E090E080E00E9499
:104D60002F188ECEEF920F931F93CF93DF93EC010A
:104D700060917E0170917F0180918001909181010D
:104D800027EFE22E0AE010E020E030E040918201BF
:104D90000E94B61087FD0FC0CE01DEDC60917E015F
:104DA00070917F01809180019091810121E4409177
:104DB00082010E948117DF91CF911F910F91EF9097
:104DC0000895CF93DF93EC01A2DCCE010E94C60FC1
:104DD000DF91CF9108951F93CF93DF93182FC0E0F9
:104DE000D0E0623011F4CBE0D0E00E9495108093C7
:104DF0009D014BE050E0BE0183E991E0123031F4B7
:104E00000E946C3ADF91CF911F9108950E945C3A05
:104E10000E94951090919D019923A1F3981791F309
:104E20000E94000F8CE199E00E94C60F85E199E095
:104E3000C8DF80ED97E00E949A110E94A210E2CF95
:104E40008FE690E00E94C60F88E690E0BADF80917E
:104E50000B018F5F80930B0108958091880182324E
:104E6000D9F48BE990E00E94C60F51DC0E948211B8
:104E70008091740190917501892B69F086E990E029
:104E80006BDC609174017091750190E080E026E523
:104E90004DEF0C948117089589E698E0E4CFFF92D6
:104EA0000F931F93CF93DF93F0908901D0916E0100
:104EB000C0916F01F0FE03C08D2FDC2FC82F6C2F27
:104EC0008D2F0E940C0F8C01892B59F00E943F0FEF
:104ED0008D2F0E94410F81E00E943E0E8C2F0E9478
:104EE000410FF2FE38C08091760190917701892BB5
:104EF00079F084E890E030DC609176017091770180
:104F0000072E000C880B990B26E54DEF0E940C181C
:104F100080E890E021DC60918301709184018091B0
:104F200085019091860126E4409187010E948117B6
:104F30008091740190917501892B69F08CE790E064
:104F40000BDC609174017091750190E080E024E0C9
:104F50004EEF0E9481170115110599F0D8DB81E011
:104F60000E943E0E0E943F0F8FE698E00E94D30FF2
:104F7000F8016281738190E080E026E54DEF0E94A8
:104F80008117CDB7DEB7E5E00C945E3B0F931F931E
:104F9000CF93DF9381E08093CD010E94000F8EE3D9
:104FA00099E00E94D30FC3E9D1E06881798190E054
:104FB00080E024E04FEF0E9481178AE399E0CCDB88
:104FC0006A817B8190E080E024E04FEF0E948117AE
:104FD00087E399E0C1DB6E8170E090E080E026E439
:104FE00044EF0E94811784E399E0B6DB6C817D81F8
:104FF00090E080E024E04EEF0E9481178FE299E07C
:10500000ABDB0EE911E0F8016581768190E080E08C
:1050100026E54DEF0E9481178BE299E09DDBF801B8
:105020006781708590E080E026E54DEF0E94811752
:1050300085E299E091DB6885062E000C770B880BE2
:10504000990B26E54DEF0E940C1865E188EB9BE07B
:10505000ACDADF91CF911F910F910895B0E0A0E0FD
:10506000E4E3F8E20C94353B262E4A01790144240E
:105070004A94480E3090D10155245A94530C0E9402
:105080003D0FD2E0712CC0E090EEC92EDD24DA9401
:1050900020EEA22E27E0B22E3A943A9481E05812E4
:1050A00002C0DF5F7C2E072D10E0000F111F080DDE
:1050B000191D612C651428F1F1E05F120CC060919C
:1050C000D1018091D0010E94CC0C8CE3C41508F46E
:1050D0008EE30E943E0E84E690E00E949A1160E109
:1050E00090E080E062DAD82F813009F052C04C1293
:1050F00045C0451408F05CC0712CC0E0CFCFD1E0B2
:10510000CDCF62E0660D81E00E94CC0CE1E05E163E
:1051100079F0872D860D8C1326C0D092D401C092D1
:10512000D3018AE20E943E0EB092D401A092D30134
:10513000D13089F0F1E02F1219C0F80180819181FE
:105140000E94C60FE114F10419F0C7010E94C60FB6
:1051500080E00E949F0E0E5F1F4F6394461408F07C
:10516000A9CF652CA7CF0E943F0FE2CFF801659130
:10517000749190E080E00E942F18E4CFCF5F832DE0
:10518000870DC8138BCFC41508F088CF7394D2E075
:1051900085CF823009F0B3CF0E94000F84EF91E0F9
:1051A0000E949A118C2FCDB7DEB7E2E10C94513BEF
:1051B000D2E0A2CFA9E0B0E0E0EEF8E20C94443BEC
:1051C000182F82E199E09A83898381E08F838FE0B1
:1051D00099E09C838B8382E088878AE099E09E83B4
:1051E0008D8319860E94000F85E099E0123011F03E
:1051F00080E099E00E94C60F30E020E0AE014F5FF2
:105200005F4F61E083E02ADF8C0F9D2F911DFC0131
:105210006781662311F0812FDEDD2996E3E00C948F
:10522000603B0F931F93CF93DF93D82F02EF18E0CB
:10523000C3E0811103C0C0E009EF18E00E94571FCE
:10524000C81781F00E94000FC8010E94C60F83EEAC
:1052500098E0B7DD0E94571FC8130AC088EC90E0A1
:105260000E949A1181E0DF91CF911F910F910895D3
:1052700060E184E690E099D9D13061F7882351F359
:1052800080E0F1CF03D002D001D000D000D003D015
:1052900002D001D000D0A89500D003D002D001D018
:1052A00000D000D003D002D001D000D000D003D075
:1052B00002D001D000D000D003D002D001D000D065
:1052C00000D003D002D001D000D000D000000000F8
:1052D0000000000000000895A8E7B0E0E2E7F9E26E
:1052E0000C94353B80E48AB98BB980E886BF9CE496
:1052F00096BF8093610091E09093610000000000F0
:105300008093F20087E98093F2008FEF8EBB8EB31B
:1053100081116AC08FEF8EBB8EB3811168C080E8A7
:105320008093F20087EB8093F2008FEF8EBB8EB3F9
:10533000811160C08FEF8EBB8EB381115EC080E89B
:10534000809361001092610084EF91E00E949011BF
:1053500080E185BF87E880937A0084B7887094B72E
:10536000977F94BF0FB6F894A895909160009861CC
:1053700090936000109260000FBE10929E0192E028
:1053800090939F019AB194619AB99BB19B7E9BB90E
:1053900090919E01986090939E019AB193609AB902
:1053A0009AB197619AB99BB1987E9BB95898882316
:1053B00039F10E94000F80E098EF9093D401809320
:1053C000D3018BED98E00E94C60F85E199E0F9DCEE
:1053D00080ED97E00E949A115E9890E080E0C858B6
:1053E000DF4FE2E10C94513B8EB381508FCF8EB3EF
:1053F000815091CF8EB3815099CF8EB381509BCF86
:1054000010E04F9B76C180E590E00E949011589A81
:1054100086E990E00E94901181E00E94240E86E9C6
:1054200090E00E94901186E30E94240E599A80E633
:105430000E940F0E8AE30E94240E599A85E00E9472
:105440000F0E1092CC011092CB018FE990E0909357
:10545000CA018093C9011092C8011092C7018FE759
:1054600090E09093C6018093C5010E94260E83E7C9
:1054700090E00E94901181E10E94240E88E790E064
:105480000E94901189E20E94240E80E18093D00155
:1054900088E08093D10183E08093D60182E08093FD
:1054A000D7018FEF9FEF9093C4018093C3010E94B7
:1054B000000F1092CD018FEF97E09093D40180936D
:1054C000D3011A3609F021C10E94A2108AEC98E09B
:1054D0000E94C60F83EC98E074DC80EE97E0909316
:1054E000D4018093D3018CED95E00E949A11109223
:1054F0000B0189E18093A00181E08093A101809359
:10550000A20189E893E19093A6018093A50188E127
:105510009FE00FB6F894A895809360000FBE90931B
:1055200060007894109288011092890110928A018B
:1055300010928B0110928D0110928C0110927301C8
:1055400010927501109274011092770110927601F9
:10555000109279011092780110927A0110927B01D9
:1055600010927C0110927D0110927E0110927F01B9
:1055700010928001109281011092100110920F017F
:10558000109212011092110183E08093D50117B897
:1055900082E08093CD010E94000F8091CD00809326
:1055A000C80080919A01082E000C990B9C5F909383
:1055B000A4018093A30189E18093A0010E94801837
:1055C0000E94321888EB98E0FCDB0E94D812809190
:1055D0008801813009F46EC042E061E080E00E9401
:1055E0006F1F42E060E081E00E946F1F41E062E0D7
:1055F00080E00E946F1F41E060E082E00E946F1F28
:1056000040E062E081E00E946F1F40E061E082E0E4
:105610000E946F1F80918B018823E1F090918A0195
:1056200090FD18C091FD04C0909188019E3190F4C6
:105630008093880180910C0180936D0180910D0110
:1056400080936E0180910E0180936F018091920191
:105650008093910180918801803209F46AC008F03A
:1056600058C095E423E432E48E3131F08F3109F4EF
:1056700059C090E020E030E0309370012093710138
:1056800090937201882311F08A30A1F40E943F0F99
:1056900083E40E943E0E40E060E082E00E949C13A2
:1056A00041E061E082E00E949C1342E060E081E022
:1056B0000E949C130E94000F83E08093CD01809193
:1056C00088018E3109F44CC308F057C08A3009F4C0
:1056D00052C4C0F5813009F404C1B2DBD9C11F5FE7
:1056E000153639F41AE680919E01816080939E01FF
:1056F0008ACE84E190E00E949A114F9BF0CF103146
:1057000010F411E080CE12E0EECF61E081E063DBC7
:10571000DDCE813289F093E421E4843208F0A9CF10
:1057200037E4AACF9091890196FF09C098E728E74E
:10573000F7CF95E423E4F4CF91E322E3F1CF93E5AF
:1057400024E4EECF8B3009F453C0843131F6D0908D
:105750008D01B1E0DB12FCC090902001AA24A3943B
:1057600025E0C22E35E0B32E10E000E06FE1E62E1A
:1057700061E0F62E75E0D72E55C18332B8F4813240
:1057800008F0F6C38F3109F4B2C3803209F0A5CF17
:105790008BEF90E00E94C60F0E9476110E946B1161
:1057A0000E9487230E9482117ADB72C1833209F042
:1057B00094CF83E091E00E94C60F0E9487230E944D
:1057C000821180E091E00E94AC2360911101709100
:1057D000120190E080E026E54DEF0E9481178FE6F0
:1057E00098E00E94AC2360910F01709110018FC06E
:1057F00000914601109147012091480130914901E3
:10580000609154017091550180915601909157011A
:10581000E0904501409153010E94B61073E4C72EF9
:1058200071E0D72E813021F461E5C62E61E0D62EDD
:10583000D60113960D911D912D913C911697609173
:1058400062017091630180916401909165011296EB
:10585000EC90409161010E94B610813021F45FE527
:10586000C52E51E0D52EF60180810E946B0F80E19C
:1058700091E00E94C60FD60111968C910E946B0F89
:105880000E948723F601638174818581968126E4D5
:1058900042810E948117D60113966D917D918D9161
:1058A0009C91169747EFE42E0AE010E020E030E0EC
:1058B00012964C910E94B61087FF60C5D6011B96C8
:1058C0008D919C91892B09F4E3C08CE091E00E94BA
:1058D000AC23F6016385748590E080E021E4458582
:1058E0001AC0809189018130C9F488EB90E00E9450
:1058F000C60F0E94872380918E010E946B0F0E9429
:105900003D0F0E943F0F60918F017091900190E0D8
:1059100080E026E54DEF0E948117BAC0823009F47D
:10592000DCCE809188018A3010F010920B01109229
:10593000CD016EE188EB9BE00E94D5228111B9C6B2
:1059400080910B01853008F4EDCD0E94481145CDC2
:10595000E2E0DE121EC0D0901F01909125018091DF
:105960002001C0902601D91609F427C1C81609F4F0
:1059700049C1DC1003C0981709F43DC1AA24A394BF
:1059800035E0C32E45E0B42E05E211E055E0952E3A
:10599000EDCEF3E0DF1274C0E12C96E02E2D30E066
:1059A0008E2D00E0929FF001939FF00D1124E05E98
:1059B000FE4F602F70E0081769F0969FA001979F37
:1059C000500D1124415E5E4F6081DA014C916417E5
:1059D00009F450C0402F4F5F433008F449C08F5F37
:1059E000833008F443C0853008F447C0B6E00B9F0D
:1059F00080011124015E1E4F86E0E89E7001112493
:105A0000F701E15EFE4F7F01829FF001839FF00D61
:105A10001124E15EFE4F9180AA24A39485E0C82E54
:105A200095E0B92ED7018C910E946B0F8BEC90E022
:105A30000E94C60F892D0E946B0F0115110509F0F8
:105A4000D3C0B4E0BB1508F0FCC08FE698E00E941C
:105A5000AC23D70112966D917C9190E080E026E511
:105A60004DEF0E9481170E943F0F38C1E82E96CF5C
:105A7000042F9FCF45E085E0AECF10E000E0BCCF23
:105A80008BEC90E00E94D30F80E38D0D0E943E0EC0
:105A9000809188018E3108F444CF9091D5019923EB
:105AA00009F43FCF2091D7013091D10181E0820FDD
:105AB000381708F436CF8091D001803120F0290FBB
:105AC000231708F4E8C53093CF010E94872383E0B1
:105AD00092E08093D8019093D90160E080916D01AC
